{
	"compilerInput": "{\"language\":\"Solidity\",\"sources\":{\"contracts/fix_multi_call/Caller_main.sol\":{\"content\":\"// SPDX-License-Identifier: GPL-3.0\\n\\npragma solidity >=0.8.2 <0.9.0;\\n\\n// contract Callee_sub {\\n\\n//     uint256 number;\\n//     function store(uint256 num) public {}\\n//     function retrieve() public returns (uint256){}\\n// }\\n\\nimport \\\"contracts/fix_multi_call/Callee_sub.sol\\\";\\n\\ncontract Caller_main {\\n\\n    uint256 number;\\n    address addr;\\n    Callee_sub sub;\\n\\n    constructor (){\\n        sub = new Callee_sub();\\n    }\\n    \\n    function fix_call_store(uint256 num) public returns (uint256){\\n        return sub.store(num);\\n    }\\n    \\n    function store(uint256 num) public {\\n        number = num;\\n    }\\n\\n    function retrieve() public returns (uint256){\\n        return number;\\n    }\\n    // 这个要留着的\\n    // function call_without_ABI(address _sub, string memory func_name, uint func_para) public returns (bytes memory){\\n    //     bytes memory _calldata;\\n    //     addr = _sub;\\n    //     _calldata = abi.encodeWithSignature(func_name, func_para);\\n    //     addr.call(_calldata);\\n    //     return _calldata;\\n    // }\\n\\n    function call_with_ABI(address _sub, string memory func_name, uint func_para) public returns (bool success){\\n                       \\n        sub = Callee_sub(_sub);\\n        if (sub.retrieve() == 3){\\n            return false;\\n        }\\n        return true;\\n    }\\n    \\n\\n}\"},\"contracts/fix_multi_call/Callee_sub.sol\":{\"content\":\"// SPDX-License-Identifier: GPL-3.0\\n\\npragma solidity >=0.8.2 <0.9.0;\\n\\n\\ncontract Callee_sub {\\n\\n    uint256 number;\\n\\n  \\n    function store(uint256 num) public returns (uint256){\\n        number = num+1;\\n        return number;\\n    }\\n\\n    function retrieve() public returns (uint256){\\n        return number;\\n    }\\n}\"}},\"settings\":{\"optimizer\":{\"enabled\":false,\"runs\":200},\"outputSelection\":{\"*\":{\"\":[\"ast\"],\"*\":[\"abi\",\"metadata\",\"devdoc\",\"userdoc\",\"storageLayout\",\"evm.legacyAssembly\",\"evm.bytecode\",\"evm.deployedBytecode\",\"evm.methodIdentifiers\",\"evm.gasEstimates\",\"evm.assembly\"]}}}}",
	"name": "Caller_main",
	"bytecode": {
		"linkReferences": {},
		"object": "608060405234801561001057600080fd5b5060405161001d9061007f565b604051809103906000f080158015610039573d6000803e3d6000fd5b50600260006101000a81548173ffffffffffffffffffffffffffffffffffffffff021916908373ffffffffffffffffffffffffffffffffffffffff16021790555061008c565b61021e806106b383390190565b6106188061009b6000396000f3fe608060405234801561001057600080fd5b506004361061004c5760003560e01c80632e64cec1146100515780636057361d1461006f578063a8a750341461008b578063d324082e146100bb575b600080fd5b6100596100eb565b6040516100669190610467565b60405180910390f35b610089600480360381019061008491906103d4565b6100f4565b005b6100a560048036038101906100a09190610365565b6100fe565b6040516100b2919061044c565b60405180910390f35b6100d560048036038101906100d091906103d4565b610200565b6040516100e29190610467565b60405180910390f35b60008054905090565b8060008190555050565b600083600260006101000a81548173ffffffffffffffffffffffffffffffffffffffff021916908373ffffffffffffffffffffffffffffffffffffffff1602179055506003600260009054906101000a900473ffffffffffffffffffffffffffffffffffffffff1673ffffffffffffffffffffffffffffffffffffffff16632e64cec16040518163ffffffff1660e01b8152600401602060405180830381600087803b1580156101ad57600080fd5b505af11580156101c1573d6000803e3d6000fd5b505050506040513d601f19601f820116820180604052508101906101e59190610401565b14156101f457600090506101f9565b600190505b9392505050565b6000600260009054906101000a900473ffffffffffffffffffffffffffffffffffffffff1673ffffffffffffffffffffffffffffffffffffffff16636057361d836040518263ffffffff1660e01b815260040161025d9190610467565b602060405180830381600087803b15801561027757600080fd5b505af115801561028b573d6000803e3d6000fd5b505050506040513d601f19601f820116820180604052508101906102af9190610401565b9050919050565b60006102c96102c4846104a7565b610482565b9050828152602081018484840111156102e5576102e4610594565b5b6102f0848285610520565b509392505050565b600081359050610307816105b4565b92915050565b600082601f8301126103225761032161058f565b5b81356103328482602086016102b6565b91505092915050565b60008135905061034a816105cb565b92915050565b60008151905061035f816105cb565b92915050565b60008060006060848603121561037e5761037d61059e565b5b600061038c868287016102f8565b935050602084013567ffffffffffffffff8111156103ad576103ac610599565b5b6103b98682870161030d565b92505060406103ca8682870161033b565b9150509250925092565b6000602082840312156103ea576103e961059e565b5b60006103f88482850161033b565b91505092915050565b6000602082840312156104175761041661059e565b5b600061042584828501610350565b91505092915050565b610437816104ea565b82525050565b61044681610516565b82525050565b6000602082019050610461600083018461042e565b92915050565b600060208201905061047c600083018461043d565b92915050565b600061048c61049d565b9050610498828261052f565b919050565b6000604051905090565b600067ffffffffffffffff8211156104c2576104c1610560565b5b6104cb826105a3565b9050602081019050919050565b60006104e3826104f6565b9050919050565b60008115159050919050565b600073ffffffffffffffffffffffffffffffffffffffff82169050919050565b6000819050919050565b82818337600083830152505050565b610538826105a3565b810181811067ffffffffffffffff8211171561055757610556610560565b5b80604052505050565b7f4e487b7100000000000000000000000000000000000000000000000000000000600052604160045260246000fd5b600080fd5b600080fd5b600080fd5b600080fd5b6000601f19601f8301169050919050565b6105bd816104d8565b81146105c857600080fd5b50565b6105d481610516565b81146105df57600080fd5b5056fea2646970667358221220e31351561237c7297ceca14f7b1e988cb5cf757cb41e59770a3f25da52f05fe364736f6c63430008070033608060405234801561001057600080fd5b506101fe806100206000396000f3fe608060405234801561001057600080fd5b50600436106100365760003560e01c80632e64cec11461003b5780636057361d14610059575b600080fd5b610043610089565b6040516100509190610102565b60405180910390f35b610073600480360381019061006e91906100c6565b610092565b6040516100809190610102565b60405180910390f35b60008054905090565b60006001826100a1919061011d565b6000819055506000549050919050565b6000813590506100c0816101b1565b92915050565b6000602082840312156100dc576100db6101ac565b5b60006100ea848285016100b1565b91505092915050565b6100fc81610173565b82525050565b600060208201905061011760008301846100f3565b92915050565b600061012882610173565b915061013383610173565b9250827fffffffffffffffffffffffffffffffffffffffffffffffffffffffffffffffff038211156101685761016761017d565b5b828201905092915050565b6000819050919050565b7f4e487b7100000000000000000000000000000000000000000000000000000000600052601160045260246000fd5b600080fd5b6101ba81610173565b81146101c557600080fd5b5056fea26469706673582212208ac8aa5c0d358e56eaeac20681fa1a209d5f6a767568285fcbd589676711ea9664736f6c63430008070033",
		"opcodes": "PUSH1 0x80 PUSH1 0x40 MSTORE CALLVALUE DUP1 ISZERO PUSH2 0x10 JUMPI PUSH1 0x0 DUP1 REVERT JUMPDEST POP PUSH1 0x40 MLOAD PUSH2 0x1D SWAP1 PUSH2 0x7F JUMP JUMPDEST PUSH1 0x40 MLOAD DUP1 SWAP2 SUB SWAP1 PUSH1 0x0 CREATE DUP1 ISZERO DUP1 ISZERO PUSH2 0x39 JUMPI RETURNDATASIZE PUSH1 0x0 DUP1 RETURNDATACOPY RETURNDATASIZE PUSH1 0x0 REVERT JUMPDEST POP PUSH1 0x2 PUSH1 0x0 PUSH2 0x100 EXP DUP2 SLOAD DUP2 PUSH20 0xFFFFFFFFFFFFFFFFFFFFFFFFFFFFFFFFFFFFFFFF MUL NOT AND SWAP1 DUP4 PUSH20 0xFFFFFFFFFFFFFFFFFFFFFFFFFFFFFFFFFFFFFFFF AND MUL OR SWAP1 SSTORE POP PUSH2 0x8C JUMP JUMPDEST PUSH2 0x21E DUP1 PUSH2 0x6B3 DUP4 CODECOPY ADD SWAP1 JUMP JUMPDEST PUSH2 0x618 DUP1 PUSH2 0x9B PUSH1 0x0 CODECOPY PUSH1 0x0 RETURN INVALID PUSH1 0x80 PUSH1 0x40 MSTORE CALLVALUE DUP1 ISZERO PUSH2 0x10 JUMPI PUSH1 0x0 DUP1 REVERT JUMPDEST POP PUSH1 0x4 CALLDATASIZE LT PUSH2 0x4C JUMPI PUSH1 0x0 CALLDATALOAD PUSH1 0xE0 SHR DUP1 PUSH4 0x2E64CEC1 EQ PUSH2 0x51 JUMPI DUP1 PUSH4 0x6057361D EQ PUSH2 0x6F JUMPI DUP1 PUSH4 0xA8A75034 EQ PUSH2 0x8B JUMPI DUP1 PUSH4 0xD324082E EQ PUSH2 0xBB JUMPI JUMPDEST PUSH1 0x0 DUP1 REVERT JUMPDEST PUSH2 0x59 PUSH2 0xEB JUMP JUMPDEST PUSH1 0x40 MLOAD PUSH2 0x66 SWAP2 SWAP1 PUSH2 0x467 JUMP JUMPDEST PUSH1 0x40 MLOAD DUP1 SWAP2 SUB SWAP1 RETURN JUMPDEST PUSH2 0x89 PUSH1 0x4 DUP1 CALLDATASIZE SUB DUP2 ADD SWAP1 PUSH2 0x84 SWAP2 SWAP1 PUSH2 0x3D4 JUMP JUMPDEST PUSH2 0xF4 JUMP JUMPDEST STOP JUMPDEST PUSH2 0xA5 PUSH1 0x4 DUP1 CALLDATASIZE SUB DUP2 ADD SWAP1 PUSH2 0xA0 SWAP2 SWAP1 PUSH2 0x365 JUMP JUMPDEST PUSH2 0xFE JUMP JUMPDEST PUSH1 0x40 MLOAD PUSH2 0xB2 SWAP2 SWAP1 PUSH2 0x44C JUMP JUMPDEST PUSH1 0x40 MLOAD DUP1 SWAP2 SUB SWAP1 RETURN JUMPDEST PUSH2 0xD5 PUSH1 0x4 DUP1 CALLDATASIZE SUB DUP2 ADD SWAP1 PUSH2 0xD0 SWAP2 SWAP1 PUSH2 0x3D4 JUMP JUMPDEST PUSH2 0x200 JUMP JUMPDEST PUSH1 0x40 MLOAD PUSH2 0xE2 SWAP2 SWAP1 PUSH2 0x467 JUMP JUMPDEST PUSH1 0x40 MLOAD DUP1 SWAP2 SUB SWAP1 RETURN JUMPDEST PUSH1 0x0 DUP1 SLOAD SWAP1 POP SWAP1 JUMP JUMPDEST DUP1 PUSH1 0x0 DUP2 SWAP1 SSTORE POP POP JUMP JUMPDEST PUSH1 0x0 DUP4 PUSH1 0x2 PUSH1 0x0 PUSH2 0x100 EXP DUP2 SLOAD DUP2 PUSH20 0xFFFFFFFFFFFFFFFFFFFFFFFFFFFFFFFFFFFFFFFF MUL NOT AND SWAP1 DUP4 PUSH20 0xFFFFFFFFFFFFFFFFFFFFFFFFFFFFFFFFFFFFFFFF AND MUL OR SWAP1 SSTORE POP PUSH1 0x3 PUSH1 0x2 PUSH1 0x0 SWAP1 SLOAD SWAP1 PUSH2 0x100 EXP SWAP1 DIV PUSH20 0xFFFFFFFFFFFFFFFFFFFFFFFFFFFFFFFFFFFFFFFF AND PUSH20 0xFFFFFFFFFFFFFFFFFFFFFFFFFFFFFFFFFFFFFFFF AND PUSH4 0x2E64CEC1 PUSH1 0x40 MLOAD DUP2 PUSH4 0xFFFFFFFF AND PUSH1 0xE0 SHL DUP2 MSTORE PUSH1 0x4 ADD PUSH1 0x20 PUSH1 0x40 MLOAD DUP1 DUP4 SUB DUP2 PUSH1 0x0 DUP8 DUP1 EXTCODESIZE ISZERO DUP1 ISZERO PUSH2 0x1AD JUMPI PUSH1 0x0 DUP1 REVERT JUMPDEST POP GAS CALL ISZERO DUP1 ISZERO PUSH2 0x1C1 JUMPI RETURNDATASIZE PUSH1 0x0 DUP1 RETURNDATACOPY RETURNDATASIZE PUSH1 0x0 REVERT JUMPDEST POP POP POP POP PUSH1 0x40 MLOAD RETURNDATASIZE PUSH1 0x1F NOT PUSH1 0x1F DUP3 ADD AND DUP3 ADD DUP1 PUSH1 0x40 MSTORE POP DUP2 ADD SWAP1 PUSH2 0x1E5 SWAP2 SWAP1 PUSH2 0x401 JUMP JUMPDEST EQ ISZERO PUSH2 0x1F4 JUMPI PUSH1 0x0 SWAP1 POP PUSH2 0x1F9 JUMP JUMPDEST PUSH1 0x1 SWAP1 POP JUMPDEST SWAP4 SWAP3 POP POP POP JUMP JUMPDEST PUSH1 0x0 PUSH1 0x2 PUSH1 0x0 SWAP1 SLOAD SWAP1 PUSH2 0x100 EXP SWAP1 DIV PUSH20 0xFFFFFFFFFFFFFFFFFFFFFFFFFFFFFFFFFFFFFFFF AND PUSH20 0xFFFFFFFFFFFFFFFFFFFFFFFFFFFFFFFFFFFFFFFF AND PUSH4 0x6057361D DUP4 PUSH1 0x40 MLOAD DUP3 PUSH4 0xFFFFFFFF AND PUSH1 0xE0 SHL DUP2 MSTORE PUSH1 0x4 ADD PUSH2 0x25D SWAP2 SWAP1 PUSH2 0x467 JUMP JUMPDEST PUSH1 0x20 PUSH1 0x40 MLOAD DUP1 DUP4 SUB DUP2 PUSH1 0x0 DUP8 DUP1 EXTCODESIZE ISZERO DUP1 ISZERO PUSH2 0x277 JUMPI PUSH1 0x0 DUP1 REVERT JUMPDEST POP GAS CALL ISZERO DUP1 ISZERO PUSH2 0x28B JUMPI RETURNDATASIZE PUSH1 0x0 DUP1 RETURNDATACOPY RETURNDATASIZE PUSH1 0x0 REVERT JUMPDEST POP POP POP POP PUSH1 0x40 MLOAD RETURNDATASIZE PUSH1 0x1F NOT PUSH1 0x1F DUP3 ADD AND DUP3 ADD DUP1 PUSH1 0x40 MSTORE POP DUP2 ADD SWAP1 PUSH2 0x2AF SWAP2 SWAP1 PUSH2 0x401 JUMP JUMPDEST SWAP1 POP SWAP2 SWAP1 POP JUMP JUMPDEST PUSH1 0x0 PUSH2 0x2C9 PUSH2 0x2C4 DUP5 PUSH2 0x4A7 JUMP JUMPDEST PUSH2 0x482 JUMP JUMPDEST SWAP1 POP DUP3 DUP2 MSTORE PUSH1 0x20 DUP2 ADD DUP5 DUP5 DUP5 ADD GT ISZERO PUSH2 0x2E5 JUMPI PUSH2 0x2E4 PUSH2 0x594 JUMP JUMPDEST JUMPDEST PUSH2 0x2F0 DUP5 DUP3 DUP6 PUSH2 0x520 JUMP JUMPDEST POP SWAP4 SWAP3 POP POP POP JUMP JUMPDEST PUSH1 0x0 DUP2 CALLDATALOAD SWAP1 POP PUSH2 0x307 DUP2 PUSH2 0x5B4 JUMP JUMPDEST SWAP3 SWAP2 POP POP JUMP JUMPDEST PUSH1 0x0 DUP3 PUSH1 0x1F DUP4 ADD SLT PUSH2 0x322 JUMPI PUSH2 0x321 PUSH2 0x58F JUMP JUMPDEST JUMPDEST DUP2 CALLDATALOAD PUSH2 0x332 DUP5 DUP3 PUSH1 0x20 DUP7 ADD PUSH2 0x2B6 JUMP JUMPDEST SWAP2 POP POP SWAP3 SWAP2 POP POP JUMP JUMPDEST PUSH1 0x0 DUP2 CALLDATALOAD SWAP1 POP PUSH2 0x34A DUP2 PUSH2 0x5CB JUMP JUMPDEST SWAP3 SWAP2 POP POP JUMP JUMPDEST PUSH1 0x0 DUP2 MLOAD SWAP1 POP PUSH2 0x35F DUP2 PUSH2 0x5CB JUMP JUMPDEST SWAP3 SWAP2 POP POP JUMP JUMPDEST PUSH1 0x0 DUP1 PUSH1 0x0 PUSH1 0x60 DUP5 DUP7 SUB SLT ISZERO PUSH2 0x37E JUMPI PUSH2 0x37D PUSH2 0x59E JUMP JUMPDEST JUMPDEST PUSH1 0x0 PUSH2 0x38C DUP7 DUP3 DUP8 ADD PUSH2 0x2F8 JUMP JUMPDEST SWAP4 POP POP PUSH1 0x20 DUP5 ADD CALLDATALOAD PUSH8 0xFFFFFFFFFFFFFFFF DUP2 GT ISZERO PUSH2 0x3AD JUMPI PUSH2 0x3AC PUSH2 0x599 JUMP JUMPDEST JUMPDEST PUSH2 0x3B9 DUP7 DUP3 DUP8 ADD PUSH2 0x30D JUMP JUMPDEST SWAP3 POP POP PUSH1 0x40 PUSH2 0x3CA DUP7 DUP3 DUP8 ADD PUSH2 0x33B JUMP JUMPDEST SWAP2 POP POP SWAP3 POP SWAP3 POP SWAP3 JUMP JUMPDEST PUSH1 0x0 PUSH1 0x20 DUP3 DUP5 SUB SLT ISZERO PUSH2 0x3EA JUMPI PUSH2 0x3E9 PUSH2 0x59E JUMP JUMPDEST JUMPDEST PUSH1 0x0 PUSH2 0x3F8 DUP5 DUP3 DUP6 ADD PUSH2 0x33B JUMP JUMPDEST SWAP2 POP POP SWAP3 SWAP2 POP POP JUMP JUMPDEST PUSH1 0x0 PUSH1 0x20 DUP3 DUP5 SUB SLT ISZERO PUSH2 0x417 JUMPI PUSH2 0x416 PUSH2 0x59E JUMP JUMPDEST JUMPDEST PUSH1 0x0 PUSH2 0x425 DUP5 DUP3 DUP6 ADD PUSH2 0x350 JUMP JUMPDEST SWAP2 POP POP SWAP3 SWAP2 POP POP JUMP JUMPDEST PUSH2 0x437 DUP2 PUSH2 0x4EA JUMP JUMPDEST DUP3 MSTORE POP POP JUMP JUMPDEST PUSH2 0x446 DUP2 PUSH2 0x516 JUMP JUMPDEST DUP3 MSTORE POP POP JUMP JUMPDEST PUSH1 0x0 PUSH1 0x20 DUP3 ADD SWAP1 POP PUSH2 0x461 PUSH1 0x0 DUP4 ADD DUP5 PUSH2 0x42E JUMP JUMPDEST SWAP3 SWAP2 POP POP JUMP JUMPDEST PUSH1 0x0 PUSH1 0x20 DUP3 ADD SWAP1 POP PUSH2 0x47C PUSH1 0x0 DUP4 ADD DUP5 PUSH2 0x43D JUMP JUMPDEST SWAP3 SWAP2 POP POP JUMP JUMPDEST PUSH1 0x0 PUSH2 0x48C PUSH2 0x49D JUMP JUMPDEST SWAP1 POP PUSH2 0x498 DUP3 DUP3 PUSH2 0x52F JUMP JUMPDEST SWAP2 SWAP1 POP JUMP JUMPDEST PUSH1 0x0 PUSH1 0x40 MLOAD SWAP1 POP SWAP1 JUMP JUMPDEST PUSH1 0x0 PUSH8 0xFFFFFFFFFFFFFFFF DUP3 GT ISZERO PUSH2 0x4C2 JUMPI PUSH2 0x4C1 PUSH2 0x560 JUMP JUMPDEST JUMPDEST PUSH2 0x4CB DUP3 PUSH2 0x5A3 JUMP JUMPDEST SWAP1 POP PUSH1 0x20 DUP2 ADD SWAP1 POP SWAP2 SWAP1 POP JUMP JUMPDEST PUSH1 0x0 PUSH2 0x4E3 DUP3 PUSH2 0x4F6 JUMP JUMPDEST SWAP1 POP SWAP2 SWAP1 POP JUMP JUMPDEST PUSH1 0x0 DUP2 ISZERO ISZERO SWAP1 POP SWAP2 SWAP1 POP JUMP JUMPDEST PUSH1 0x0 PUSH20 0xFFFFFFFFFFFFFFFFFFFFFFFFFFFFFFFFFFFFFFFF DUP3 AND SWAP1 POP SWAP2 SWAP1 POP JUMP JUMPDEST PUSH1 0x0 DUP2 SWAP1 POP SWAP2 SWAP1 POP JUMP JUMPDEST DUP3 DUP2 DUP4 CALLDATACOPY PUSH1 0x0 DUP4 DUP4 ADD MSTORE POP POP POP JUMP JUMPDEST PUSH2 0x538 DUP3 PUSH2 0x5A3 JUMP JUMPDEST DUP2 ADD DUP2 DUP2 LT PUSH8 0xFFFFFFFFFFFFFFFF DUP3 GT OR ISZERO PUSH2 0x557 JUMPI PUSH2 0x556 PUSH2 0x560 JUMP JUMPDEST JUMPDEST DUP1 PUSH1 0x40 MSTORE POP POP POP JUMP JUMPDEST PUSH32 0x4E487B7100000000000000000000000000000000000000000000000000000000 PUSH1 0x0 MSTORE PUSH1 0x41 PUSH1 0x4 MSTORE PUSH1 0x24 PUSH1 0x0 REVERT JUMPDEST PUSH1 0x0 DUP1 REVERT JUMPDEST PUSH1 0x0 DUP1 REVERT JUMPDEST PUSH1 0x0 DUP1 REVERT JUMPDEST PUSH1 0x0 DUP1 REVERT JUMPDEST PUSH1 0x0 PUSH1 0x1F NOT PUSH1 0x1F DUP4 ADD AND SWAP1 POP SWAP2 SWAP1 POP JUMP JUMPDEST PUSH2 0x5BD DUP2 PUSH2 0x4D8 JUMP JUMPDEST DUP2 EQ PUSH2 0x5C8 JUMPI PUSH1 0x0 DUP1 REVERT JUMPDEST POP JUMP JUMPDEST PUSH2 0x5D4 DUP2 PUSH2 0x516 JUMP JUMPDEST DUP2 EQ PUSH2 0x5DF JUMPI PUSH1 0x0 DUP1 REVERT JUMPDEST POP JUMP INVALID LOG2 PUSH5 0x6970667358 0x22 SLT KECCAK256 0xE3 SGT MLOAD JUMP SLT CALLDATACOPY 0xC7 0x29 PUSH29 0xECA14F7B1E988CB5CF757CB41E59770A3F25DA52F05FE364736F6C6343 STOP ADDMOD SMOD STOP CALLER PUSH1 0x80 PUSH1 0x40 MSTORE CALLVALUE DUP1 ISZERO PUSH2 0x10 JUMPI PUSH1 0x0 DUP1 REVERT JUMPDEST POP PUSH2 0x1FE DUP1 PUSH2 0x20 PUSH1 0x0 CODECOPY PUSH1 0x0 RETURN INVALID PUSH1 0x80 PUSH1 0x40 MSTORE CALLVALUE DUP1 ISZERO PUSH2 0x10 JUMPI PUSH1 0x0 DUP1 REVERT JUMPDEST POP PUSH1 0x4 CALLDATASIZE LT PUSH2 0x36 JUMPI PUSH1 0x0 CALLDATALOAD PUSH1 0xE0 SHR DUP1 PUSH4 0x2E64CEC1 EQ PUSH2 0x3B JUMPI DUP1 PUSH4 0x6057361D EQ PUSH2 0x59 JUMPI JUMPDEST PUSH1 0x0 DUP1 REVERT JUMPDEST PUSH2 0x43 PUSH2 0x89 JUMP JUMPDEST PUSH1 0x40 MLOAD PUSH2 0x50 SWAP2 SWAP1 PUSH2 0x102 JUMP JUMPDEST PUSH1 0x40 MLOAD DUP1 SWAP2 SUB SWAP1 RETURN JUMPDEST PUSH2 0x73 PUSH1 0x4 DUP1 CALLDATASIZE SUB DUP2 ADD SWAP1 PUSH2 0x6E SWAP2 SWAP1 PUSH2 0xC6 JUMP JUMPDEST PUSH2 0x92 JUMP JUMPDEST PUSH1 0x40 MLOAD PUSH2 0x80 SWAP2 SWAP1 PUSH2 0x102 JUMP JUMPDEST PUSH1 0x40 MLOAD DUP1 SWAP2 SUB SWAP1 RETURN JUMPDEST PUSH1 0x0 DUP1 SLOAD SWAP1 POP SWAP1 JUMP JUMPDEST PUSH1 0x0 PUSH1 0x1 DUP3 PUSH2 0xA1 SWAP2 SWAP1 PUSH2 0x11D JUMP JUMPDEST PUSH1 0x0 DUP2 SWAP1 SSTORE POP PUSH1 0x0 SLOAD SWAP1 POP SWAP2 SWAP1 POP JUMP JUMPDEST PUSH1 0x0 DUP2 CALLDATALOAD SWAP1 POP PUSH2 0xC0 DUP2 PUSH2 0x1B1 JUMP JUMPDEST SWAP3 SWAP2 POP POP JUMP JUMPDEST PUSH1 0x0 PUSH1 0x20 DUP3 DUP5 SUB SLT ISZERO PUSH2 0xDC JUMPI PUSH2 0xDB PUSH2 0x1AC JUMP JUMPDEST JUMPDEST PUSH1 0x0 PUSH2 0xEA DUP5 DUP3 DUP6 ADD PUSH2 0xB1 JUMP JUMPDEST SWAP2 POP POP SWAP3 SWAP2 POP POP JUMP JUMPDEST PUSH2 0xFC DUP2 PUSH2 0x173 JUMP JUMPDEST DUP3 MSTORE POP POP JUMP JUMPDEST PUSH1 0x0 PUSH1 0x20 DUP3 ADD SWAP1 POP PUSH2 0x117 PUSH1 0x0 DUP4 ADD DUP5 PUSH2 0xF3 JUMP JUMPDEST SWAP3 SWAP2 POP POP JUMP JUMPDEST PUSH1 0x0 PUSH2 0x128 DUP3 PUSH2 0x173 JUMP JUMPDEST SWAP2 POP PUSH2 0x133 DUP4 PUSH2 0x173 JUMP JUMPDEST SWAP3 POP DUP3 PUSH32 0xFFFFFFFFFFFFFFFFFFFFFFFFFFFFFFFFFFFFFFFFFFFFFFFFFFFFFFFFFFFFFFFF SUB DUP3 GT ISZERO PUSH2 0x168 JUMPI PUSH2 0x167 PUSH2 0x17D JUMP JUMPDEST JUMPDEST DUP3 DUP3 ADD SWAP1 POP SWAP3 SWAP2 POP POP JUMP JUMPDEST PUSH1 0x0 DUP2 SWAP1 POP SWAP2 SWAP1 POP JUMP JUMPDEST PUSH32 0x4E487B7100000000000000000000000000000000000000000000000000000000 PUSH1 0x0 MSTORE PUSH1 0x11 PUSH1 0x4 MSTORE PUSH1 0x24 PUSH1 0x0 REVERT JUMPDEST PUSH1 0x0 DUP1 REVERT JUMPDEST PUSH2 0x1BA DUP2 PUSH2 0x173 JUMP JUMPDEST DUP2 EQ PUSH2 0x1C5 JUMPI PUSH1 0x0 DUP1 REVERT JUMPDEST POP JUMP INVALID LOG2 PUSH5 0x6970667358 0x22 SLT KECCAK256 DUP11 0xC8 0xAA 0x5C 0xD CALLDATALOAD DUP15 JUMP 0xEA 0xEA 0xC2 MOD DUP2 STATICCALL BYTE KECCAK256 SWAP14 0x5F PUSH11 0x767568285FCBD589676711 0xEA SWAP7 PUSH5 0x736F6C6343 STOP ADDMOD SMOD STOP CALLER "
	},
	"abi": [
		{
			"inputs": [
				{
					"internalType": "address",
					"name": "_sub",
					"type": "address"
				},
				{
					"internalType": "string",
					"name": "func_name",
					"type": "string"
				},
				{
					"internalType": "uint256",
					"name": "func_para",
					"type": "uint256"
				}
			],
			"name": "call_with_ABI",
			"outputs": [
				{
					"internalType": "bool",
					"name": "success",
					"type": "bool"
				}
			],
			"stateMutability": "nonpayable",
			"type": "function"
		},
		{
			"inputs": [
				{
					"internalType": "uint256",
					"name": "num",
					"type": "uint256"
				}
			],
			"name": "fix_call_store",
			"outputs": [
				{
					"internalType": "uint256",
					"name": "",
					"type": "uint256"
				}
			],
			"stateMutability": "nonpayable",
			"type": "function"
		},
		{
			"inputs": [],
			"name": "retrieve",
			"outputs": [
				{
					"internalType": "uint256",
					"name": "",
					"type": "uint256"
				}
			],
			"stateMutability": "nonpayable",
			"type": "function"
		},
		{
			"inputs": [
				{
					"internalType": "uint256",
					"name": "num",
					"type": "uint256"
				}
			],
			"name": "store",
			"outputs": [],
			"stateMutability": "nonpayable",
			"type": "function"
		},
		{
			"inputs": [],
			"stateMutability": "nonpayable",
			"type": "constructor"
		}
	],
	"storageLayout": {
		"storage": [
			{
				"astId": 33,
				"contract": "contracts/fix_multi_call/Caller_main.sol:Caller_main",
				"label": "number",
				"offset": 0,
				"slot": "0",
				"type": "t_uint256"
			},
			{
				"astId": 35,
				"contract": "contracts/fix_multi_call/Caller_main.sol:Caller_main",
				"label": "addr",
				"offset": 0,
				"slot": "1",
				"type": "t_address"
			},
			{
				"astId": 38,
				"contract": "contracts/fix_multi_call/Caller_main.sol:Caller_main",
				"label": "sub",
				"offset": 0,
				"slot": "2",
				"type": "t_contract(Callee_sub)28"
			}
		],
		"types": {
			"t_address": {
				"encoding": "inplace",
				"label": "address",
				"numberOfBytes": "20"
			},
			"t_contract(Callee_sub)28": {
				"encoding": "inplace",
				"label": "contract Callee_sub",
				"numberOfBytes": "20"
			},
			"t_uint256": {
				"encoding": "inplace",
				"label": "uint256",
				"numberOfBytes": "32"
			}
		}
	},
	"web3Deploy": "var caller_mainContract = new web3.eth.Contract([{\"inputs\":[],\"stateMutability\":\"nonpayable\",\"type\":\"constructor\"},{\"inputs\":[{\"internalType\":\"address\",\"name\":\"_sub\",\"type\":\"address\"},{\"internalType\":\"string\",\"name\":\"func_name\",\"type\":\"string\"},{\"internalType\":\"uint256\",\"name\":\"func_para\",\"type\":\"uint256\"}],\"name\":\"call_with_ABI\",\"outputs\":[{\"internalType\":\"bool\",\"name\":\"success\",\"type\":\"bool\"}],\"stateMutability\":\"nonpayable\",\"type\":\"function\"},{\"inputs\":[{\"internalType\":\"uint256\",\"name\":\"num\",\"type\":\"uint256\"}],\"name\":\"fix_call_store\",\"outputs\":[{\"internalType\":\"uint256\",\"name\":\"\",\"type\":\"uint256\"}],\"stateMutability\":\"nonpayable\",\"type\":\"function\"},{\"inputs\":[],\"name\":\"retrieve\",\"outputs\":[{\"internalType\":\"uint256\",\"name\":\"\",\"type\":\"uint256\"}],\"stateMutability\":\"nonpayable\",\"type\":\"function\"},{\"inputs\":[{\"internalType\":\"uint256\",\"name\":\"num\",\"type\":\"uint256\"}],\"name\":\"store\",\"outputs\":[],\"stateMutability\":\"nonpayable\",\"type\":\"function\"}]);\nvar caller_main = caller_mainContract.deploy({\n     data: '0x608060405234801561001057600080fd5b5060405161001d9061007f565b604051809103906000f080158015610039573d6000803e3d6000fd5b50600260006101000a81548173ffffffffffffffffffffffffffffffffffffffff021916908373ffffffffffffffffffffffffffffffffffffffff16021790555061008c565b61021e806106b383390190565b6106188061009b6000396000f3fe608060405234801561001057600080fd5b506004361061004c5760003560e01c80632e64cec1146100515780636057361d1461006f578063a8a750341461008b578063d324082e146100bb575b600080fd5b6100596100eb565b6040516100669190610467565b60405180910390f35b610089600480360381019061008491906103d4565b6100f4565b005b6100a560048036038101906100a09190610365565b6100fe565b6040516100b2919061044c565b60405180910390f35b6100d560048036038101906100d091906103d4565b610200565b6040516100e29190610467565b60405180910390f35b60008054905090565b8060008190555050565b600083600260006101000a81548173ffffffffffffffffffffffffffffffffffffffff021916908373ffffffffffffffffffffffffffffffffffffffff1602179055506003600260009054906101000a900473ffffffffffffffffffffffffffffffffffffffff1673ffffffffffffffffffffffffffffffffffffffff16632e64cec16040518163ffffffff1660e01b8152600401602060405180830381600087803b1580156101ad57600080fd5b505af11580156101c1573d6000803e3d6000fd5b505050506040513d601f19601f820116820180604052508101906101e59190610401565b14156101f457600090506101f9565b600190505b9392505050565b6000600260009054906101000a900473ffffffffffffffffffffffffffffffffffffffff1673ffffffffffffffffffffffffffffffffffffffff16636057361d836040518263ffffffff1660e01b815260040161025d9190610467565b602060405180830381600087803b15801561027757600080fd5b505af115801561028b573d6000803e3d6000fd5b505050506040513d601f19601f820116820180604052508101906102af9190610401565b9050919050565b60006102c96102c4846104a7565b610482565b9050828152602081018484840111156102e5576102e4610594565b5b6102f0848285610520565b509392505050565b600081359050610307816105b4565b92915050565b600082601f8301126103225761032161058f565b5b81356103328482602086016102b6565b91505092915050565b60008135905061034a816105cb565b92915050565b60008151905061035f816105cb565b92915050565b60008060006060848603121561037e5761037d61059e565b5b600061038c868287016102f8565b935050602084013567ffffffffffffffff8111156103ad576103ac610599565b5b6103b98682870161030d565b92505060406103ca8682870161033b565b9150509250925092565b6000602082840312156103ea576103e961059e565b5b60006103f88482850161033b565b91505092915050565b6000602082840312156104175761041661059e565b5b600061042584828501610350565b91505092915050565b610437816104ea565b82525050565b61044681610516565b82525050565b6000602082019050610461600083018461042e565b92915050565b600060208201905061047c600083018461043d565b92915050565b600061048c61049d565b9050610498828261052f565b919050565b6000604051905090565b600067ffffffffffffffff8211156104c2576104c1610560565b5b6104cb826105a3565b9050602081019050919050565b60006104e3826104f6565b9050919050565b60008115159050919050565b600073ffffffffffffffffffffffffffffffffffffffff82169050919050565b6000819050919050565b82818337600083830152505050565b610538826105a3565b810181811067ffffffffffffffff8211171561055757610556610560565b5b80604052505050565b7f4e487b7100000000000000000000000000000000000000000000000000000000600052604160045260246000fd5b600080fd5b600080fd5b600080fd5b600080fd5b6000601f19601f8301169050919050565b6105bd816104d8565b81146105c857600080fd5b50565b6105d481610516565b81146105df57600080fd5b5056fea2646970667358221220e31351561237c7297ceca14f7b1e988cb5cf757cb41e59770a3f25da52f05fe364736f6c63430008070033608060405234801561001057600080fd5b506101fe806100206000396000f3fe608060405234801561001057600080fd5b50600436106100365760003560e01c80632e64cec11461003b5780636057361d14610059575b600080fd5b610043610089565b6040516100509190610102565b60405180910390f35b610073600480360381019061006e91906100c6565b610092565b6040516100809190610102565b60405180910390f35b60008054905090565b60006001826100a1919061011d565b6000819055506000549050919050565b6000813590506100c0816101b1565b92915050565b6000602082840312156100dc576100db6101ac565b5b60006100ea848285016100b1565b91505092915050565b6100fc81610173565b82525050565b600060208201905061011760008301846100f3565b92915050565b600061012882610173565b915061013383610173565b9250827fffffffffffffffffffffffffffffffffffffffffffffffffffffffffffffffff038211156101685761016761017d565b5b828201905092915050565b6000819050919050565b7f4e487b7100000000000000000000000000000000000000000000000000000000600052601160045260246000fd5b600080fd5b6101ba81610173565b81146101c557600080fd5b5056fea26469706673582212208ac8aa5c0d358e56eaeac20681fa1a209d5f6a767568285fcbd589676711ea9664736f6c63430008070033', \n     arguments: [\n     ]\n}).send({\n     from: web3.eth.accounts[0], \n     gas: '4700000'\n   }, function (e, contract){\n    console.log(e, contract);\n    if (typeof contract.address !== 'undefined') {\n         console.log('Contract mined! address: ' + contract.address + ' transactionHash: ' + contract.transactionHash);\n    }\n })",
	"functionHashes": {
		"a8a75034": "call_with_ABI(address,string,uint256)",
		"d324082e": "fix_call_store(uint256)",
		"2e64cec1": "retrieve()",
		"6057361d": "store(uint256)"
	},
	"gasEstimates": {
		"Creation": {
			"codeDepositCost": "312000",
			"executionCost": "infinite",
			"totalCost": "infinite"
		},
		"External": {
			"call_with_ABI(address,string,uint256)": "infinite",
			"fix_call_store(uint256)": "infinite",
			"retrieve()": "2415",
			"store(uint256)": "22520"
		}
	},
	"devdoc": {
		"kind": "dev",
		"methods": {},
		"version": 1
	},
	"userdoc": {
		"kind": "user",
		"methods": {},
		"version": 1
	},
	"Runtime Bytecode": {
		"immutableReferences": {},
		"linkReferences": {},
		"object": "608060405234801561001057600080fd5b506004361061004c5760003560e01c80632e64cec1146100515780636057361d1461006f578063a8a750341461008b578063d324082e146100bb575b600080fd5b6100596100eb565b6040516100669190610467565b60405180910390f35b610089600480360381019061008491906103d4565b6100f4565b005b6100a560048036038101906100a09190610365565b6100fe565b6040516100b2919061044c565b60405180910390f35b6100d560048036038101906100d091906103d4565b610200565b6040516100e29190610467565b60405180910390f35b60008054905090565b8060008190555050565b600083600260006101000a81548173ffffffffffffffffffffffffffffffffffffffff021916908373ffffffffffffffffffffffffffffffffffffffff1602179055506003600260009054906101000a900473ffffffffffffffffffffffffffffffffffffffff1673ffffffffffffffffffffffffffffffffffffffff16632e64cec16040518163ffffffff1660e01b8152600401602060405180830381600087803b1580156101ad57600080fd5b505af11580156101c1573d6000803e3d6000fd5b505050506040513d601f19601f820116820180604052508101906101e59190610401565b14156101f457600090506101f9565b600190505b9392505050565b6000600260009054906101000a900473ffffffffffffffffffffffffffffffffffffffff1673ffffffffffffffffffffffffffffffffffffffff16636057361d836040518263ffffffff1660e01b815260040161025d9190610467565b602060405180830381600087803b15801561027757600080fd5b505af115801561028b573d6000803e3d6000fd5b505050506040513d601f19601f820116820180604052508101906102af9190610401565b9050919050565b60006102c96102c4846104a7565b610482565b9050828152602081018484840111156102e5576102e4610594565b5b6102f0848285610520565b509392505050565b600081359050610307816105b4565b92915050565b600082601f8301126103225761032161058f565b5b81356103328482602086016102b6565b91505092915050565b60008135905061034a816105cb565b92915050565b60008151905061035f816105cb565b92915050565b60008060006060848603121561037e5761037d61059e565b5b600061038c868287016102f8565b935050602084013567ffffffffffffffff8111156103ad576103ac610599565b5b6103b98682870161030d565b92505060406103ca8682870161033b565b9150509250925092565b6000602082840312156103ea576103e961059e565b5b60006103f88482850161033b565b91505092915050565b6000602082840312156104175761041661059e565b5b600061042584828501610350565b91505092915050565b610437816104ea565b82525050565b61044681610516565b82525050565b6000602082019050610461600083018461042e565b92915050565b600060208201905061047c600083018461043d565b92915050565b600061048c61049d565b9050610498828261052f565b919050565b6000604051905090565b600067ffffffffffffffff8211156104c2576104c1610560565b5b6104cb826105a3565b9050602081019050919050565b60006104e3826104f6565b9050919050565b60008115159050919050565b600073ffffffffffffffffffffffffffffffffffffffff82169050919050565b6000819050919050565b82818337600083830152505050565b610538826105a3565b810181811067ffffffffffffffff8211171561055757610556610560565b5b80604052505050565b7f4e487b7100000000000000000000000000000000000000000000000000000000600052604160045260246000fd5b600080fd5b600080fd5b600080fd5b600080fd5b6000601f19601f8301169050919050565b6105bd816104d8565b81146105c857600080fd5b50565b6105d481610516565b81146105df57600080fd5b5056fea2646970667358221220e31351561237c7297ceca14f7b1e988cb5cf757cb41e59770a3f25da52f05fe364736f6c63430008070033",
		"opcodes": "PUSH1 0x80 PUSH1 0x40 MSTORE CALLVALUE DUP1 ISZERO PUSH2 0x10 JUMPI PUSH1 0x0 DUP1 REVERT JUMPDEST POP PUSH1 0x4 CALLDATASIZE LT PUSH2 0x4C JUMPI PUSH1 0x0 CALLDATALOAD PUSH1 0xE0 SHR DUP1 PUSH4 0x2E64CEC1 EQ PUSH2 0x51 JUMPI DUP1 PUSH4 0x6057361D EQ PUSH2 0x6F JUMPI DUP1 PUSH4 0xA8A75034 EQ PUSH2 0x8B JUMPI DUP1 PUSH4 0xD324082E EQ PUSH2 0xBB JUMPI JUMPDEST PUSH1 0x0 DUP1 REVERT JUMPDEST PUSH2 0x59 PUSH2 0xEB JUMP JUMPDEST PUSH1 0x40 MLOAD PUSH2 0x66 SWAP2 SWAP1 PUSH2 0x467 JUMP JUMPDEST PUSH1 0x40 MLOAD DUP1 SWAP2 SUB SWAP1 RETURN JUMPDEST PUSH2 0x89 PUSH1 0x4 DUP1 CALLDATASIZE SUB DUP2 ADD SWAP1 PUSH2 0x84 SWAP2 SWAP1 PUSH2 0x3D4 JUMP JUMPDEST PUSH2 0xF4 JUMP JUMPDEST STOP JUMPDEST PUSH2 0xA5 PUSH1 0x4 DUP1 CALLDATASIZE SUB DUP2 ADD SWAP1 PUSH2 0xA0 SWAP2 SWAP1 PUSH2 0x365 JUMP JUMPDEST PUSH2 0xFE JUMP JUMPDEST PUSH1 0x40 MLOAD PUSH2 0xB2 SWAP2 SWAP1 PUSH2 0x44C JUMP JUMPDEST PUSH1 0x40 MLOAD DUP1 SWAP2 SUB SWAP1 RETURN JUMPDEST PUSH2 0xD5 PUSH1 0x4 DUP1 CALLDATASIZE SUB DUP2 ADD SWAP1 PUSH2 0xD0 SWAP2 SWAP1 PUSH2 0x3D4 JUMP JUMPDEST PUSH2 0x200 JUMP JUMPDEST PUSH1 0x40 MLOAD PUSH2 0xE2 SWAP2 SWAP1 PUSH2 0x467 JUMP JUMPDEST PUSH1 0x40 MLOAD DUP1 SWAP2 SUB SWAP1 RETURN JUMPDEST PUSH1 0x0 DUP1 SLOAD SWAP1 POP SWAP1 JUMP JUMPDEST DUP1 PUSH1 0x0 DUP2 SWAP1 SSTORE POP POP JUMP JUMPDEST PUSH1 0x0 DUP4 PUSH1 0x2 PUSH1 0x0 PUSH2 0x100 EXP DUP2 SLOAD DUP2 PUSH20 0xFFFFFFFFFFFFFFFFFFFFFFFFFFFFFFFFFFFFFFFF MUL NOT AND SWAP1 DUP4 PUSH20 0xFFFFFFFFFFFFFFFFFFFFFFFFFFFFFFFFFFFFFFFF AND MUL OR SWAP1 SSTORE POP PUSH1 0x3 PUSH1 0x2 PUSH1 0x0 SWAP1 SLOAD SWAP1 PUSH2 0x100 EXP SWAP1 DIV PUSH20 0xFFFFFFFFFFFFFFFFFFFFFFFFFFFFFFFFFFFFFFFF AND PUSH20 0xFFFFFFFFFFFFFFFFFFFFFFFFFFFFFFFFFFFFFFFF AND PUSH4 0x2E64CEC1 PUSH1 0x40 MLOAD DUP2 PUSH4 0xFFFFFFFF AND PUSH1 0xE0 SHL DUP2 MSTORE PUSH1 0x4 ADD PUSH1 0x20 PUSH1 0x40 MLOAD DUP1 DUP4 SUB DUP2 PUSH1 0x0 DUP8 DUP1 EXTCODESIZE ISZERO DUP1 ISZERO PUSH2 0x1AD JUMPI PUSH1 0x0 DUP1 REVERT JUMPDEST POP GAS CALL ISZERO DUP1 ISZERO PUSH2 0x1C1 JUMPI RETURNDATASIZE PUSH1 0x0 DUP1 RETURNDATACOPY RETURNDATASIZE PUSH1 0x0 REVERT JUMPDEST POP POP POP POP PUSH1 0x40 MLOAD RETURNDATASIZE PUSH1 0x1F NOT PUSH1 0x1F DUP3 ADD AND DUP3 ADD DUP1 PUSH1 0x40 MSTORE POP DUP2 ADD SWAP1 PUSH2 0x1E5 SWAP2 SWAP1 PUSH2 0x401 JUMP JUMPDEST EQ ISZERO PUSH2 0x1F4 JUMPI PUSH1 0x0 SWAP1 POP PUSH2 0x1F9 JUMP JUMPDEST PUSH1 0x1 SWAP1 POP JUMPDEST SWAP4 SWAP3 POP POP POP JUMP JUMPDEST PUSH1 0x0 PUSH1 0x2 PUSH1 0x0 SWAP1 SLOAD SWAP1 PUSH2 0x100 EXP SWAP1 DIV PUSH20 0xFFFFFFFFFFFFFFFFFFFFFFFFFFFFFFFFFFFFFFFF AND PUSH20 0xFFFFFFFFFFFFFFFFFFFFFFFFFFFFFFFFFFFFFFFF AND PUSH4 0x6057361D DUP4 PUSH1 0x40 MLOAD DUP3 PUSH4 0xFFFFFFFF AND PUSH1 0xE0 SHL DUP2 MSTORE PUSH1 0x4 ADD PUSH2 0x25D SWAP2 SWAP1 PUSH2 0x467 JUMP JUMPDEST PUSH1 0x20 PUSH1 0x40 MLOAD DUP1 DUP4 SUB DUP2 PUSH1 0x0 DUP8 DUP1 EXTCODESIZE ISZERO DUP1 ISZERO PUSH2 0x277 JUMPI PUSH1 0x0 DUP1 REVERT JUMPDEST POP GAS CALL ISZERO DUP1 ISZERO PUSH2 0x28B JUMPI RETURNDATASIZE PUSH1 0x0 DUP1 RETURNDATACOPY RETURNDATASIZE PUSH1 0x0 REVERT JUMPDEST POP POP POP POP PUSH1 0x40 MLOAD RETURNDATASIZE PUSH1 0x1F NOT PUSH1 0x1F DUP3 ADD AND DUP3 ADD DUP1 PUSH1 0x40 MSTORE POP DUP2 ADD SWAP1 PUSH2 0x2AF SWAP2 SWAP1 PUSH2 0x401 JUMP JUMPDEST SWAP1 POP SWAP2 SWAP1 POP JUMP JUMPDEST PUSH1 0x0 PUSH2 0x2C9 PUSH2 0x2C4 DUP5 PUSH2 0x4A7 JUMP JUMPDEST PUSH2 0x482 JUMP JUMPDEST SWAP1 POP DUP3 DUP2 MSTORE PUSH1 0x20 DUP2 ADD DUP5 DUP5 DUP5 ADD GT ISZERO PUSH2 0x2E5 JUMPI PUSH2 0x2E4 PUSH2 0x594 JUMP JUMPDEST JUMPDEST PUSH2 0x2F0 DUP5 DUP3 DUP6 PUSH2 0x520 JUMP JUMPDEST POP SWAP4 SWAP3 POP POP POP JUMP JUMPDEST PUSH1 0x0 DUP2 CALLDATALOAD SWAP1 POP PUSH2 0x307 DUP2 PUSH2 0x5B4 JUMP JUMPDEST SWAP3 SWAP2 POP POP JUMP JUMPDEST PUSH1 0x0 DUP3 PUSH1 0x1F DUP4 ADD SLT PUSH2 0x322 JUMPI PUSH2 0x321 PUSH2 0x58F JUMP JUMPDEST JUMPDEST DUP2 CALLDATALOAD PUSH2 0x332 DUP5 DUP3 PUSH1 0x20 DUP7 ADD PUSH2 0x2B6 JUMP JUMPDEST SWAP2 POP POP SWAP3 SWAP2 POP POP JUMP JUMPDEST PUSH1 0x0 DUP2 CALLDATALOAD SWAP1 POP PUSH2 0x34A DUP2 PUSH2 0x5CB JUMP JUMPDEST SWAP3 SWAP2 POP POP JUMP JUMPDEST PUSH1 0x0 DUP2 MLOAD SWAP1 POP PUSH2 0x35F DUP2 PUSH2 0x5CB JUMP JUMPDEST SWAP3 SWAP2 POP POP JUMP JUMPDEST PUSH1 0x0 DUP1 PUSH1 0x0 PUSH1 0x60 DUP5 DUP7 SUB SLT ISZERO PUSH2 0x37E JUMPI PUSH2 0x37D PUSH2 0x59E JUMP JUMPDEST JUMPDEST PUSH1 0x0 PUSH2 0x38C DUP7 DUP3 DUP8 ADD PUSH2 0x2F8 JUMP JUMPDEST SWAP4 POP POP PUSH1 0x20 DUP5 ADD CALLDATALOAD PUSH8 0xFFFFFFFFFFFFFFFF DUP2 GT ISZERO PUSH2 0x3AD JUMPI PUSH2 0x3AC PUSH2 0x599 JUMP JUMPDEST JUMPDEST PUSH2 0x3B9 DUP7 DUP3 DUP8 ADD PUSH2 0x30D JUMP JUMPDEST SWAP3 POP POP PUSH1 0x40 PUSH2 0x3CA DUP7 DUP3 DUP8 ADD PUSH2 0x33B JUMP JUMPDEST SWAP2 POP POP SWAP3 POP SWAP3 POP SWAP3 JUMP JUMPDEST PUSH1 0x0 PUSH1 0x20 DUP3 DUP5 SUB SLT ISZERO PUSH2 0x3EA JUMPI PUSH2 0x3E9 PUSH2 0x59E JUMP JUMPDEST JUMPDEST PUSH1 0x0 PUSH2 0x3F8 DUP5 DUP3 DUP6 ADD PUSH2 0x33B JUMP JUMPDEST SWAP2 POP POP SWAP3 SWAP2 POP POP JUMP JUMPDEST PUSH1 0x0 PUSH1 0x20 DUP3 DUP5 SUB SLT ISZERO PUSH2 0x417 JUMPI PUSH2 0x416 PUSH2 0x59E JUMP JUMPDEST JUMPDEST PUSH1 0x0 PUSH2 0x425 DUP5 DUP3 DUP6 ADD PUSH2 0x350 JUMP JUMPDEST SWAP2 POP POP SWAP3 SWAP2 POP POP JUMP JUMPDEST PUSH2 0x437 DUP2 PUSH2 0x4EA JUMP JUMPDEST DUP3 MSTORE POP POP JUMP JUMPDEST PUSH2 0x446 DUP2 PUSH2 0x516 JUMP JUMPDEST DUP3 MSTORE POP POP JUMP JUMPDEST PUSH1 0x0 PUSH1 0x20 DUP3 ADD SWAP1 POP PUSH2 0x461 PUSH1 0x0 DUP4 ADD DUP5 PUSH2 0x42E JUMP JUMPDEST SWAP3 SWAP2 POP POP JUMP JUMPDEST PUSH1 0x0 PUSH1 0x20 DUP3 ADD SWAP1 POP PUSH2 0x47C PUSH1 0x0 DUP4 ADD DUP5 PUSH2 0x43D JUMP JUMPDEST SWAP3 SWAP2 POP POP JUMP JUMPDEST PUSH1 0x0 PUSH2 0x48C PUSH2 0x49D JUMP JUMPDEST SWAP1 POP PUSH2 0x498 DUP3 DUP3 PUSH2 0x52F JUMP JUMPDEST SWAP2 SWAP1 POP JUMP JUMPDEST PUSH1 0x0 PUSH1 0x40 MLOAD SWAP1 POP SWAP1 JUMP JUMPDEST PUSH1 0x0 PUSH8 0xFFFFFFFFFFFFFFFF DUP3 GT ISZERO PUSH2 0x4C2 JUMPI PUSH2 0x4C1 PUSH2 0x560 JUMP JUMPDEST JUMPDEST PUSH2 0x4CB DUP3 PUSH2 0x5A3 JUMP JUMPDEST SWAP1 POP PUSH1 0x20 DUP2 ADD SWAP1 POP SWAP2 SWAP1 POP JUMP JUMPDEST PUSH1 0x0 PUSH2 0x4E3 DUP3 PUSH2 0x4F6 JUMP JUMPDEST SWAP1 POP SWAP2 SWAP1 POP JUMP JUMPDEST PUSH1 0x0 DUP2 ISZERO ISZERO SWAP1 POP SWAP2 SWAP1 POP JUMP JUMPDEST PUSH1 0x0 PUSH20 0xFFFFFFFFFFFFFFFFFFFFFFFFFFFFFFFFFFFFFFFF DUP3 AND SWAP1 POP SWAP2 SWAP1 POP JUMP JUMPDEST PUSH1 0x0 DUP2 SWAP1 POP SWAP2 SWAP1 POP JUMP JUMPDEST DUP3 DUP2 DUP4 CALLDATACOPY PUSH1 0x0 DUP4 DUP4 ADD MSTORE POP POP POP JUMP JUMPDEST PUSH2 0x538 DUP3 PUSH2 0x5A3 JUMP JUMPDEST DUP2 ADD DUP2 DUP2 LT PUSH8 0xFFFFFFFFFFFFFFFF DUP3 GT OR ISZERO PUSH2 0x557 JUMPI PUSH2 0x556 PUSH2 0x560 JUMP JUMPDEST JUMPDEST DUP1 PUSH1 0x40 MSTORE POP POP POP JUMP JUMPDEST PUSH32 0x4E487B7100000000000000000000000000000000000000000000000000000000 PUSH1 0x0 MSTORE PUSH1 0x41 PUSH1 0x4 MSTORE PUSH1 0x24 PUSH1 0x0 REVERT JUMPDEST PUSH1 0x0 DUP1 REVERT JUMPDEST PUSH1 0x0 DUP1 REVERT JUMPDEST PUSH1 0x0 DUP1 REVERT JUMPDEST PUSH1 0x0 DUP1 REVERT JUMPDEST PUSH1 0x0 PUSH1 0x1F NOT PUSH1 0x1F DUP4 ADD AND SWAP1 POP SWAP2 SWAP1 POP JUMP JUMPDEST PUSH2 0x5BD DUP2 PUSH2 0x4D8 JUMP JUMPDEST DUP2 EQ PUSH2 0x5C8 JUMPI PUSH1 0x0 DUP1 REVERT JUMPDEST POP JUMP JUMPDEST PUSH2 0x5D4 DUP2 PUSH2 0x516 JUMP JUMPDEST DUP2 EQ PUSH2 0x5DF JUMPI PUSH1 0x0 DUP1 REVERT JUMPDEST POP JUMP INVALID LOG2 PUSH5 0x6970667358 0x22 SLT KECCAK256 0xE3 SGT MLOAD JUMP SLT CALLDATACOPY 0xC7 0x29 PUSH29 0xECA14F7B1E988CB5CF757CB41E59770A3F25DA52F05FE364736F6C6343 STOP ADDMOD SMOD STOP CALLER "
	},
	"Assembly": ".code\n  PUSH 80\t\t\tcontract Caller_main {\\n\\n    ...\n  PUSH 40\t\t\tcontract Caller_main {\\n\\n    ...\n  MSTORE \t\t\tcontract Caller_main {\\n\\n    ...\n  CALLVALUE \t\t\tconstructor (){\\n        sub =...\n  DUP1 \t\t\tconstructor (){\\n        sub =...\n  ISZERO \t\t\tconstructor (){\\n        sub =...\n  PUSH [tag] 1\t\t\tconstructor (){\\n        sub =...\n  JUMPI \t\t\tconstructor (){\\n        sub =...\n  PUSH 0\t\t\tconstructor (){\\n        sub =...\n  DUP1 \t\t\tconstructor (){\\n        sub =...\n  REVERT \t\t\tconstructor (){\\n        sub =...\ntag 1\t\t\tconstructor (){\\n        sub =...\n  JUMPDEST \t\t\tconstructor (){\\n        sub =...\n  POP \t\t\tconstructor (){\\n        sub =...\n  PUSH 40\t\t\tnew Callee_sub()\n  MLOAD \t\t\tnew Callee_sub()\n  PUSH [tag] 4\t\t\tnew Callee_sub()\n  SWAP1 \t\t\tnew Callee_sub()\n  PUSH [tag] 5\t\t\tnew Callee_sub()\n  JUMP [in]\t\t\tnew Callee_sub()\ntag 4\t\t\tnew Callee_sub()\n  JUMPDEST \t\t\tnew Callee_sub()\n  PUSH 40\t\t\tnew Callee_sub()\n  MLOAD \t\t\tnew Callee_sub()\n  DUP1 \t\t\tnew Callee_sub()\n  SWAP2 \t\t\tnew Callee_sub()\n  SUB \t\t\tnew Callee_sub()\n  SWAP1 \t\t\tnew Callee_sub()\n  PUSH 0\t\t\tnew Callee_sub()\n  CREATE \t\t\tnew Callee_sub()\n  DUP1 \t\t\tnew Callee_sub()\n  ISZERO \t\t\tnew Callee_sub()\n  DUP1 \t\t\tnew Callee_sub()\n  ISZERO \t\t\tnew Callee_sub()\n  PUSH [tag] 6\t\t\tnew Callee_sub()\n  JUMPI \t\t\tnew Callee_sub()\n  RETURNDATASIZE \t\t\tnew Callee_sub()\n  PUSH 0\t\t\tnew Callee_sub()\n  DUP1 \t\t\tnew Callee_sub()\n  RETURNDATACOPY \t\t\tnew Callee_sub()\n  RETURNDATASIZE \t\t\tnew Callee_sub()\n  PUSH 0\t\t\tnew Callee_sub()\n  REVERT \t\t\tnew Callee_sub()\ntag 6\t\t\tnew Callee_sub()\n  JUMPDEST \t\t\tnew Callee_sub()\n  POP \t\t\tnew Callee_sub()\n  PUSH 2\t\t\tsub\n  PUSH 0\t\t\tsub\n  PUSH 100\t\t\tsub = new Callee_sub()\n  EXP \t\t\tsub = new Callee_sub()\n  DUP2 \t\t\tsub = new Callee_sub()\n  SLOAD \t\t\tsub = new Callee_sub()\n  DUP2 \t\t\tsub = new Callee_sub()\n  PUSH FFFFFFFFFFFFFFFFFFFFFFFFFFFFFFFFFFFFFFFF\t\t\tsub = new Callee_sub()\n  MUL \t\t\tsub = new Callee_sub()\n  NOT \t\t\tsub = new Callee_sub()\n  AND \t\t\tsub = new Callee_sub()\n  SWAP1 \t\t\tsub = new Callee_sub()\n  DUP4 \t\t\tsub = new Callee_sub()\n  PUSH FFFFFFFFFFFFFFFFFFFFFFFFFFFFFFFFFFFFFFFF\t\t\tsub = new Callee_sub()\n  AND \t\t\tsub = new Callee_sub()\n  MUL \t\t\tsub = new Callee_sub()\n  OR \t\t\tsub = new Callee_sub()\n  SWAP1 \t\t\tsub = new Callee_sub()\n  SSTORE \t\t\tsub = new Callee_sub()\n  POP \t\t\tsub = new Callee_sub()\n  PUSH [tag] 7\t\t\tcontract Caller_main {\\n\\n    ...\n  JUMP \t\t\tcontract Caller_main {\\n\\n    ...\ntag 5\t\t\tcontract Caller_main {\\n\\n    ...\n  JUMPDEST \t\t\tcontract Caller_main {\\n\\n    ...\n  PUSH #[$] 0000000000000000000000000000000000000000000000000000000000000001\t\t\tcontract Caller_main {\\n\\n    ...\n  DUP1 \t\t\tcontract Caller_main {\\n\\n    ...\n  PUSH [$] 0000000000000000000000000000000000000000000000000000000000000001\t\t\tcontract Caller_main {\\n\\n    ...\n  DUP4 \t\t\tcontract Caller_main {\\n\\n    ...\n  CODECOPY \t\t\tcontract Caller_main {\\n\\n    ...\n  ADD \t\t\tcontract Caller_main {\\n\\n    ...\n  SWAP1 \t\t\tcontract Caller_main {\\n\\n    ...\n  JUMP [out]\t\t\tcontract Caller_main {\\n\\n    ...\ntag 7\t\t\tcontract Caller_main {\\n\\n    ...\n  JUMPDEST \t\t\tcontract Caller_main {\\n\\n    ...\n  PUSH #[$] 0000000000000000000000000000000000000000000000000000000000000000\t\t\tcontract Caller_main {\\n\\n    ...\n  DUP1 \t\t\tcontract Caller_main {\\n\\n    ...\n  PUSH [$] 0000000000000000000000000000000000000000000000000000000000000000\t\t\tcontract Caller_main {\\n\\n    ...\n  PUSH 0\t\t\tcontract Caller_main {\\n\\n    ...\n  CODECOPY \t\t\tcontract Caller_main {\\n\\n    ...\n  PUSH 0\t\t\tcontract Caller_main {\\n\\n    ...\n  RETURN \t\t\tcontract Caller_main {\\n\\n    ...\n.data\n  0:\n    .code\n      PUSH 80\t\t\tcontract Caller_main {\\n\\n    ...\n      PUSH 40\t\t\tcontract Caller_main {\\n\\n    ...\n      MSTORE \t\t\tcontract Caller_main {\\n\\n    ...\n      CALLVALUE \t\t\tcontract Caller_main {\\n\\n    ...\n      DUP1 \t\t\tcontract Caller_main {\\n\\n    ...\n      ISZERO \t\t\tcontract Caller_main {\\n\\n    ...\n      PUSH [tag] 1\t\t\tcontract Caller_main {\\n\\n    ...\n      JUMPI \t\t\tcontract Caller_main {\\n\\n    ...\n      PUSH 0\t\t\tcontract Caller_main {\\n\\n    ...\n      DUP1 \t\t\tcontract Caller_main {\\n\\n    ...\n      REVERT \t\t\tcontract Caller_main {\\n\\n    ...\n    tag 1\t\t\tcontract Caller_main {\\n\\n    ...\n      JUMPDEST \t\t\tcontract Caller_main {\\n\\n    ...\n      POP \t\t\tcontract Caller_main {\\n\\n    ...\n      PUSH 4\t\t\tcontract Caller_main {\\n\\n    ...\n      CALLDATASIZE \t\t\tcontract Caller_main {\\n\\n    ...\n      LT \t\t\tcontract Caller_main {\\n\\n    ...\n      PUSH [tag] 2\t\t\tcontract Caller_main {\\n\\n    ...\n      JUMPI \t\t\tcontract Caller_main {\\n\\n    ...\n      PUSH 0\t\t\tcontract Caller_main {\\n\\n    ...\n      CALLDATALOAD \t\t\tcontract Caller_main {\\n\\n    ...\n      PUSH E0\t\t\tcontract Caller_main {\\n\\n    ...\n      SHR \t\t\tcontract Caller_main {\\n\\n    ...\n      DUP1 \t\t\tcontract Caller_main {\\n\\n    ...\n      PUSH 2E64CEC1\t\t\tcontract Caller_main {\\n\\n    ...\n      EQ \t\t\tcontract Caller_main {\\n\\n    ...\n      PUSH [tag] 3\t\t\tcontract Caller_main {\\n\\n    ...\n      JUMPI \t\t\tcontract Caller_main {\\n\\n    ...\n      DUP1 \t\t\tcontract Caller_main {\\n\\n    ...\n      PUSH 6057361D\t\t\tcontract Caller_main {\\n\\n    ...\n      EQ \t\t\tcontract Caller_main {\\n\\n    ...\n      PUSH [tag] 4\t\t\tcontract Caller_main {\\n\\n    ...\n      JUMPI \t\t\tcontract Caller_main {\\n\\n    ...\n      DUP1 \t\t\tcontract Caller_main {\\n\\n    ...\n      PUSH A8A75034\t\t\tcontract Caller_main {\\n\\n    ...\n      EQ \t\t\tcontract Caller_main {\\n\\n    ...\n      PUSH [tag] 5\t\t\tcontract Caller_main {\\n\\n    ...\n      JUMPI \t\t\tcontract Caller_main {\\n\\n    ...\n      DUP1 \t\t\tcontract Caller_main {\\n\\n    ...\n      PUSH D324082E\t\t\tcontract Caller_main {\\n\\n    ...\n      EQ \t\t\tcontract Caller_main {\\n\\n    ...\n      PUSH [tag] 6\t\t\tcontract Caller_main {\\n\\n    ...\n      JUMPI \t\t\tcontract Caller_main {\\n\\n    ...\n    tag 2\t\t\tcontract Caller_main {\\n\\n    ...\n      JUMPDEST \t\t\tcontract Caller_main {\\n\\n    ...\n      PUSH 0\t\t\tcontract Caller_main {\\n\\n    ...\n      DUP1 \t\t\tcontract Caller_main {\\n\\n    ...\n      REVERT \t\t\tcontract Caller_main {\\n\\n    ...\n    tag 3\t\t\tfunction retrieve() public ret...\n      JUMPDEST \t\t\tfunction retrieve() public ret...\n      PUSH [tag] 7\t\t\tfunction retrieve() public ret...\n      PUSH [tag] 8\t\t\tfunction retrieve() public ret...\n      JUMP [in]\t\t\tfunction retrieve() public ret...\n    tag 7\t\t\tfunction retrieve() public ret...\n      JUMPDEST \t\t\tfunction retrieve() public ret...\n      PUSH 40\t\t\tfunction retrieve() public ret...\n      MLOAD \t\t\tfunction retrieve() public ret...\n      PUSH [tag] 9\t\t\tfunction retrieve() public ret...\n      SWAP2 \t\t\tfunction retrieve() public ret...\n      SWAP1 \t\t\tfunction retrieve() public ret...\n      PUSH [tag] 10\t\t\tfunction retrieve() public ret...\n      JUMP [in]\t\t\tfunction retrieve() public ret...\n    tag 9\t\t\tfunction retrieve() public ret...\n      JUMPDEST \t\t\tfunction retrieve() public ret...\n      PUSH 40\t\t\tfunction retrieve() public ret...\n      MLOAD \t\t\tfunction retrieve() public ret...\n      DUP1 \t\t\tfunction retrieve() public ret...\n      SWAP2 \t\t\tfunction retrieve() public ret...\n      SUB \t\t\tfunction retrieve() public ret...\n      SWAP1 \t\t\tfunction retrieve() public ret...\n      RETURN \t\t\tfunction retrieve() public ret...\n    tag 4\t\t\tfunction store(uint256 num) pu...\n      JUMPDEST \t\t\tfunction store(uint256 num) pu...\n      PUSH [tag] 11\t\t\tfunction store(uint256 num) pu...\n      PUSH 4\t\t\tfunction store(uint256 num) pu...\n      DUP1 \t\t\tfunction store(uint256 num) pu...\n      CALLDATASIZE \t\t\tfunction store(uint256 num) pu...\n      SUB \t\t\tfunction store(uint256 num) pu...\n      DUP2 \t\t\tfunction store(uint256 num) pu...\n      ADD \t\t\tfunction store(uint256 num) pu...\n      SWAP1 \t\t\tfunction store(uint256 num) pu...\n      PUSH [tag] 12\t\t\tfunction store(uint256 num) pu...\n      SWAP2 \t\t\tfunction store(uint256 num) pu...\n      SWAP1 \t\t\tfunction store(uint256 num) pu...\n      PUSH [tag] 13\t\t\tfunction store(uint256 num) pu...\n      JUMP [in]\t\t\tfunction store(uint256 num) pu...\n    tag 12\t\t\tfunction store(uint256 num) pu...\n      JUMPDEST \t\t\tfunction store(uint256 num) pu...\n      PUSH [tag] 14\t\t\tfunction store(uint256 num) pu...\n      JUMP [in]\t\t\tfunction store(uint256 num) pu...\n    tag 11\t\t\tfunction store(uint256 num) pu...\n      JUMPDEST \t\t\tfunction store(uint256 num) pu...\n      STOP \t\t\tfunction store(uint256 num) pu...\n    tag 5\t\t\tl_with_ABI(address _sub, strin...\n      JUMPDEST \t\t\tl_with_ABI(address _sub, strin...\n      PUSH [tag] 15\t\t\tl_with_ABI(address _sub, strin...\n      PUSH 4\t\t\tl_with_ABI(address _sub, strin...\n      DUP1 \t\t\tl_with_ABI(address _sub, strin...\n      CALLDATASIZE \t\t\tl_with_ABI(address _sub, strin...\n      SUB \t\t\tl_with_ABI(address _sub, strin...\n      DUP2 \t\t\tl_with_ABI(address _sub, strin...\n      ADD \t\t\tl_with_ABI(address _sub, strin...\n      SWAP1 \t\t\tl_with_ABI(address _sub, strin...\n      PUSH [tag] 16\t\t\tl_with_ABI(address _sub, strin...\n      SWAP2 \t\t\tl_with_ABI(address _sub, strin...\n      SWAP1 \t\t\tl_with_ABI(address _sub, strin...\n      PUSH [tag] 17\t\t\tl_with_ABI(address _sub, strin...\n      JUMP [in]\t\t\tl_with_ABI(address _sub, strin...\n    tag 16\t\t\tl_with_ABI(address _sub, strin...\n      JUMPDEST \t\t\tl_with_ABI(address _sub, strin...\n      PUSH [tag] 18\t\t\tl_with_ABI(address _sub, strin...\n      JUMP [in]\t\t\tl_with_ABI(address _sub, strin...\n    tag 15\t\t\tl_with_ABI(address _sub, strin...\n      JUMPDEST \t\t\tl_with_ABI(address _sub, strin...\n      PUSH 40\t\t\tl_with_ABI(address _sub, strin...\n      MLOAD \t\t\tl_with_ABI(address _sub, strin...\n      PUSH [tag] 19\t\t\tl_with_ABI(address _sub, strin...\n      SWAP2 \t\t\tl_with_ABI(address _sub, strin...\n      SWAP1 \t\t\tl_with_ABI(address _sub, strin...\n      PUSH [tag] 20\t\t\tl_with_ABI(address _sub, strin...\n      JUMP [in]\t\t\tl_with_ABI(address _sub, strin...\n    tag 19\t\t\tl_with_ABI(address _sub, strin...\n      JUMPDEST \t\t\tl_with_ABI(address _sub, strin...\n      PUSH 40\t\t\tl_with_ABI(address _sub, strin...\n      MLOAD \t\t\tl_with_ABI(address _sub, strin...\n      DUP1 \t\t\tl_with_ABI(address _sub, strin...\n      SWAP2 \t\t\tl_with_ABI(address _sub, strin...\n      SUB \t\t\tl_with_ABI(address _sub, strin...\n      SWAP1 \t\t\tl_with_ABI(address _sub, strin...\n      RETURN \t\t\tl_with_ABI(address _sub, strin...\n    tag 6\t\t\tfunction fix_call_store(uint25...\n      JUMPDEST \t\t\tfunction fix_call_store(uint25...\n      PUSH [tag] 21\t\t\tfunction fix_call_store(uint25...\n      PUSH 4\t\t\tfunction fix_call_store(uint25...\n      DUP1 \t\t\tfunction fix_call_store(uint25...\n      CALLDATASIZE \t\t\tfunction fix_call_store(uint25...\n      SUB \t\t\tfunction fix_call_store(uint25...\n      DUP2 \t\t\tfunction fix_call_store(uint25...\n      ADD \t\t\tfunction fix_call_store(uint25...\n      SWAP1 \t\t\tfunction fix_call_store(uint25...\n      PUSH [tag] 22\t\t\tfunction fix_call_store(uint25...\n      SWAP2 \t\t\tfunction fix_call_store(uint25...\n      SWAP1 \t\t\tfunction fix_call_store(uint25...\n      PUSH [tag] 13\t\t\tfunction fix_call_store(uint25...\n      JUMP [in]\t\t\tfunction fix_call_store(uint25...\n    tag 22\t\t\tfunction fix_call_store(uint25...\n      JUMPDEST \t\t\tfunction fix_call_store(uint25...\n      PUSH [tag] 23\t\t\tfunction fix_call_store(uint25...\n      JUMP [in]\t\t\tfunction fix_call_store(uint25...\n    tag 21\t\t\tfunction fix_call_store(uint25...\n      JUMPDEST \t\t\tfunction fix_call_store(uint25...\n      PUSH 40\t\t\tfunction fix_call_store(uint25...\n      MLOAD \t\t\tfunction fix_call_store(uint25...\n      PUSH [tag] 24\t\t\tfunction fix_call_store(uint25...\n      SWAP2 \t\t\tfunction fix_call_store(uint25...\n      SWAP1 \t\t\tfunction fix_call_store(uint25...\n      PUSH [tag] 10\t\t\tfunction fix_call_store(uint25...\n      JUMP [in]\t\t\tfunction fix_call_store(uint25...\n    tag 24\t\t\tfunction fix_call_store(uint25...\n      JUMPDEST \t\t\tfunction fix_call_store(uint25...\n      PUSH 40\t\t\tfunction fix_call_store(uint25...\n      MLOAD \t\t\tfunction fix_call_store(uint25...\n      DUP1 \t\t\tfunction fix_call_store(uint25...\n      SWAP2 \t\t\tfunction fix_call_store(uint25...\n      SUB \t\t\tfunction fix_call_store(uint25...\n      SWAP1 \t\t\tfunction fix_call_store(uint25...\n      RETURN \t\t\tfunction fix_call_store(uint25...\n    tag 8\t\t\tfunction retrieve() public ret...\n      JUMPDEST \t\t\tfunction retrieve() public ret...\n      PUSH 0\t\t\tuint256\n      DUP1 \t\t\tnumber\n      SLOAD \t\t\tnumber\n      SWAP1 \t\t\treturn number\n      POP \t\t\treturn number\n      SWAP1 \t\t\tfunction retrieve() public ret...\n      JUMP [out]\t\t\tfunction retrieve() public ret...\n    tag 14\t\t\tfunction store(uint256 num) pu...\n      JUMPDEST \t\t\tfunction store(uint256 num) pu...\n      DUP1 \t\t\tnum\n      PUSH 0\t\t\tnumber\n      DUP2 \t\t\tnumber = num\n      SWAP1 \t\t\tnumber = num\n      SSTORE \t\t\tnumber = num\n      POP \t\t\tnumber = num\n      POP \t\t\tfunction store(uint256 num) pu...\n      JUMP [out]\t\t\tfunction store(uint256 num) pu...\n    tag 18\t\t\tl_with_ABI(address _sub, strin...\n      JUMPDEST \t\t\tl_with_ABI(address _sub, strin...\n      PUSH 0\t\t\t){\\n         \n      DUP4 \t\t\t   i\n      PUSH 2\t\t\t_su\n      PUSH 0\t\t\t_su\n      PUSH 100\t\t\t_sub(_sub);\\n        if\n      EXP \t\t\t_sub(_sub);\\n        if\n      DUP2 \t\t\t_sub(_sub);\\n        if\n      SLOAD \t\t\t_sub(_sub);\\n        if\n      DUP2 \t\t\t_sub(_sub);\\n        if\n      PUSH FFFFFFFFFFFFFFFFFFFFFFFFFFFFFFFFFFFFFFFF\t\t\t_sub(_sub);\\n        if\n      MUL \t\t\t_sub(_sub);\\n        if\n      NOT \t\t\t_sub(_sub);\\n        if\n      AND \t\t\t_sub(_sub);\\n        if\n      SWAP1 \t\t\t_sub(_sub);\\n        if\n      DUP4 \t\t\t_sub(_sub);\\n        if\n      PUSH FFFFFFFFFFFFFFFFFFFFFFFFFFFFFFFFFFFFFFFF\t\t\t_sub(_sub);\\n        if\n      AND \t\t\t_sub(_sub);\\n        if\n      MUL \t\t\t_sub(_sub);\\n        if\n      OR \t\t\t_sub(_sub);\\n        if\n      SWAP1 \t\t\t_sub(_sub);\\n        if\n      SSTORE \t\t\t_sub(_sub);\\n        if\n      POP \t\t\t_sub(_sub);\\n        if\n      PUSH 3\t\t\t \n      PUSH 2\t\t\t() \n      PUSH 0\t\t\t() \n      SWAP1 \t\t\t() \n      SLOAD \t\t\t() \n      SWAP1 \t\t\t() \n      PUSH 100\t\t\t() \n      EXP \t\t\t() \n      SWAP1 \t\t\t() \n      DIV \t\t\t() \n      PUSH FFFFFFFFFFFFFFFFFFFFFFFFFFFFFFFFFFFFFFFF\t\t\t() \n      AND \t\t\t() \n      PUSH FFFFFFFFFFFFFFFFFFFFFFFFFFFFFFFFFFFFFFFF\t\t\t() == 3){\\n  \n      AND \t\t\t() == 3){\\n  \n      PUSH 2E64CEC1\t\t\t() == 3){\\n  \n      PUSH 40\t\t\t() == 3){\\n    \n      MLOAD \t\t\t() == 3){\\n    \n      DUP2 \t\t\t() == 3){\\n    \n      PUSH FFFFFFFF\t\t\t() == 3){\\n    \n      AND \t\t\t() == 3){\\n    \n      PUSH E0\t\t\t() == 3){\\n    \n      SHL \t\t\t() == 3){\\n    \n      DUP2 \t\t\t() == 3){\\n    \n      MSTORE \t\t\t() == 3){\\n    \n      PUSH 4\t\t\t() == 3){\\n    \n      ADD \t\t\t() == 3){\\n    \n      PUSH 20\t\t\t() == 3){\\n    \n      PUSH 40\t\t\t() == 3){\\n    \n      MLOAD \t\t\t() == 3){\\n    \n      DUP1 \t\t\t() == 3){\\n    \n      DUP4 \t\t\t() == 3){\\n    \n      SUB \t\t\t() == 3){\\n    \n      DUP2 \t\t\t() == 3){\\n    \n      PUSH 0\t\t\t() == 3){\\n    \n      DUP8 \t\t\t() == 3){\\n    \n      DUP1 \t\t\t() == 3){\\n    \n      EXTCODESIZE \t\t\t() == 3){\\n    \n      ISZERO \t\t\t() == 3){\\n    \n      DUP1 \t\t\t() == 3){\\n    \n      ISZERO \t\t\t() == 3){\\n    \n      PUSH [tag] 28\t\t\t() == 3){\\n    \n      JUMPI \t\t\t() == 3){\\n    \n      PUSH 0\t\t\t() == 3){\\n    \n      DUP1 \t\t\t() == 3){\\n    \n      REVERT \t\t\t() == 3){\\n    \n    tag 28\t\t\t() == 3){\\n    \n      JUMPDEST \t\t\t() == 3){\\n    \n      POP \t\t\t() == 3){\\n    \n      GAS \t\t\t() == 3){\\n    \n      CALL \t\t\t() == 3){\\n    \n      ISZERO \t\t\t() == 3){\\n    \n      DUP1 \t\t\t() == 3){\\n    \n      ISZERO \t\t\t() == 3){\\n    \n      PUSH [tag] 30\t\t\t() == 3){\\n    \n      JUMPI \t\t\t() == 3){\\n    \n      RETURNDATASIZE \t\t\t() == 3){\\n    \n      PUSH 0\t\t\t() == 3){\\n    \n      DUP1 \t\t\t() == 3){\\n    \n      RETURNDATACOPY \t\t\t() == 3){\\n    \n      RETURNDATASIZE \t\t\t() == 3){\\n    \n      PUSH 0\t\t\t() == 3){\\n    \n      REVERT \t\t\t() == 3){\\n    \n    tag 30\t\t\t() == 3){\\n    \n      JUMPDEST \t\t\t() == 3){\\n    \n      POP \t\t\t() == 3){\\n    \n      POP \t\t\t() == 3){\\n    \n      POP \t\t\t() == 3){\\n    \n      POP \t\t\t() == 3){\\n    \n      PUSH 40\t\t\t() == 3){\\n    \n      MLOAD \t\t\t() == 3){\\n    \n      RETURNDATASIZE \t\t\t() == 3){\\n    \n      PUSH 1F\t\t\t() == 3){\\n    \n      NOT \t\t\t() == 3){\\n    \n      PUSH 1F\t\t\t() == 3){\\n    \n      DUP3 \t\t\t() == 3){\\n    \n      ADD \t\t\t() == 3){\\n    \n      AND \t\t\t() == 3){\\n    \n      DUP3 \t\t\t() == 3){\\n    \n      ADD \t\t\t() == 3){\\n    \n      DUP1 \t\t\t() == 3){\\n    \n      PUSH 40\t\t\t() == 3){\\n    \n      MSTORE \t\t\t() == 3){\\n    \n      POP \t\t\t() == 3){\\n    \n      DUP2 \t\t\t() == 3){\\n    \n      ADD \t\t\t() == 3){\\n    \n      SWAP1 \t\t\t() == 3){\\n    \n      PUSH [tag] 31\t\t\t() == 3){\\n    \n      SWAP2 \t\t\t() == 3){\\n    \n      SWAP1 \t\t\t() == 3){\\n    \n      PUSH [tag] 32\t\t\t() == 3){\\n    \n      JUMP [in]\t\t\t() == 3){\\n    \n    tag 31\t\t\t() == 3){\\n    \n      JUMPDEST \t\t\t() == 3){\\n    \n      EQ \t\t\t() == 3){\\n         \n      ISZERO \t\t\tieve() == 3){\\n            ret...\n      PUSH [tag] 33\t\t\tieve() == 3){\\n            ret...\n      JUMPI \t\t\tieve() == 3){\\n            ret...\n      PUSH 0\t\t\t   }\\n\n      SWAP1 \t\t\t;\\n        }\\n\n      POP \t\t\t;\\n        }\\n\n      PUSH [tag] 27\t\t\t;\\n        }\\n\n      JUMP \t\t\t;\\n        }\\n\n    tag 33\t\t\tieve() == 3){\\n            ret...\n      JUMPDEST \t\t\tieve() == 3){\\n            ret...\n      PUSH 1\t\t\t    \n      SWAP1 \t\t\t\\n    }\\n    \n      POP \t\t\t\\n    }\\n    \n    tag 27\t\t\tl_with_ABI(address _sub, strin...\n      JUMPDEST \t\t\tl_with_ABI(address _sub, strin...\n      SWAP4 \t\t\tl_with_ABI(address _sub, strin...\n      SWAP3 \t\t\tl_with_ABI(address _sub, strin...\n      POP \t\t\tl_with_ABI(address _sub, strin...\n      POP \t\t\tl_with_ABI(address _sub, strin...\n      POP \t\t\tl_with_ABI(address _sub, strin...\n      JUMP [out]\t\t\tl_with_ABI(address _sub, strin...\n    tag 23\t\t\tfunction fix_call_store(uint25...\n      JUMPDEST \t\t\tfunction fix_call_store(uint25...\n      PUSH 0\t\t\tuint256\n      PUSH 2\t\t\tsub\n      PUSH 0\t\t\tsub\n      SWAP1 \t\t\tsub\n      SLOAD \t\t\tsub\n      SWAP1 \t\t\tsub\n      PUSH 100\t\t\tsub\n      EXP \t\t\tsub\n      SWAP1 \t\t\tsub\n      DIV \t\t\tsub\n      PUSH FFFFFFFFFFFFFFFFFFFFFFFFFFFFFFFFFFFFFFFF\t\t\tsub\n      AND \t\t\tsub\n      PUSH FFFFFFFFFFFFFFFFFFFFFFFFFFFFFFFFFFFFFFFF\t\t\tsub.store\n      AND \t\t\tsub.store\n      PUSH 6057361D\t\t\tsub.store\n      DUP4 \t\t\tnum\n      PUSH 40\t\t\tsub.store(num)\n      MLOAD \t\t\tsub.store(num)\n      DUP3 \t\t\tsub.store(num)\n      PUSH FFFFFFFF\t\t\tsub.store(num)\n      AND \t\t\tsub.store(num)\n      PUSH E0\t\t\tsub.store(num)\n      SHL \t\t\tsub.store(num)\n      DUP2 \t\t\tsub.store(num)\n      MSTORE \t\t\tsub.store(num)\n      PUSH 4\t\t\tsub.store(num)\n      ADD \t\t\tsub.store(num)\n      PUSH [tag] 35\t\t\tsub.store(num)\n      SWAP2 \t\t\tsub.store(num)\n      SWAP1 \t\t\tsub.store(num)\n      PUSH [tag] 10\t\t\tsub.store(num)\n      JUMP [in]\t\t\tsub.store(num)\n    tag 35\t\t\tsub.store(num)\n      JUMPDEST \t\t\tsub.store(num)\n      PUSH 20\t\t\tsub.store(num)\n      PUSH 40\t\t\tsub.store(num)\n      MLOAD \t\t\tsub.store(num)\n      DUP1 \t\t\tsub.store(num)\n      DUP4 \t\t\tsub.store(num)\n      SUB \t\t\tsub.store(num)\n      DUP2 \t\t\tsub.store(num)\n      PUSH 0\t\t\tsub.store(num)\n      DUP8 \t\t\tsub.store(num)\n      DUP1 \t\t\tsub.store(num)\n      EXTCODESIZE \t\t\tsub.store(num)\n      ISZERO \t\t\tsub.store(num)\n      DUP1 \t\t\tsub.store(num)\n      ISZERO \t\t\tsub.store(num)\n      PUSH [tag] 36\t\t\tsub.store(num)\n      JUMPI \t\t\tsub.store(num)\n      PUSH 0\t\t\tsub.store(num)\n      DUP1 \t\t\tsub.store(num)\n      REVERT \t\t\tsub.store(num)\n    tag 36\t\t\tsub.store(num)\n      JUMPDEST \t\t\tsub.store(num)\n      POP \t\t\tsub.store(num)\n      GAS \t\t\tsub.store(num)\n      CALL \t\t\tsub.store(num)\n      ISZERO \t\t\tsub.store(num)\n      DUP1 \t\t\tsub.store(num)\n      ISZERO \t\t\tsub.store(num)\n      PUSH [tag] 38\t\t\tsub.store(num)\n      JUMPI \t\t\tsub.store(num)\n      RETURNDATASIZE \t\t\tsub.store(num)\n      PUSH 0\t\t\tsub.store(num)\n      DUP1 \t\t\tsub.store(num)\n      RETURNDATACOPY \t\t\tsub.store(num)\n      RETURNDATASIZE \t\t\tsub.store(num)\n      PUSH 0\t\t\tsub.store(num)\n      REVERT \t\t\tsub.store(num)\n    tag 38\t\t\tsub.store(num)\n      JUMPDEST \t\t\tsub.store(num)\n      POP \t\t\tsub.store(num)\n      POP \t\t\tsub.store(num)\n      POP \t\t\tsub.store(num)\n      POP \t\t\tsub.store(num)\n      PUSH 40\t\t\tsub.store(num)\n      MLOAD \t\t\tsub.store(num)\n      RETURNDATASIZE \t\t\tsub.store(num)\n      PUSH 1F\t\t\tsub.store(num)\n      NOT \t\t\tsub.store(num)\n      PUSH 1F\t\t\tsub.store(num)\n      DUP3 \t\t\tsub.store(num)\n      ADD \t\t\tsub.store(num)\n      AND \t\t\tsub.store(num)\n      DUP3 \t\t\tsub.store(num)\n      ADD \t\t\tsub.store(num)\n      DUP1 \t\t\tsub.store(num)\n      PUSH 40\t\t\tsub.store(num)\n      MSTORE \t\t\tsub.store(num)\n      POP \t\t\tsub.store(num)\n      DUP2 \t\t\tsub.store(num)\n      ADD \t\t\tsub.store(num)\n      SWAP1 \t\t\tsub.store(num)\n      PUSH [tag] 39\t\t\tsub.store(num)\n      SWAP2 \t\t\tsub.store(num)\n      SWAP1 \t\t\tsub.store(num)\n      PUSH [tag] 32\t\t\tsub.store(num)\n      JUMP [in]\t\t\tsub.store(num)\n    tag 39\t\t\tsub.store(num)\n      JUMPDEST \t\t\tsub.store(num)\n      SWAP1 \t\t\treturn sub.store(num)\n      POP \t\t\treturn sub.store(num)\n      SWAP2 \t\t\tfunction fix_call_store(uint25...\n      SWAP1 \t\t\tfunction fix_call_store(uint25...\n      POP \t\t\tfunction fix_call_store(uint25...\n      JUMP [out]\t\t\tfunction fix_call_store(uint25...\n    tag 41\t\t\t-License-Identifier: GPL-3.0\\n...\n      JUMPDEST \t\t\t-License-Identifier: GPL-3.0\\n...\n      PUSH 0\t\t\tlee_s\n      PUSH [tag] 43\t\t\t number;\\n//     function stor...\n      PUSH [tag] 44\t\t\tfunction store(uint256 num) pu...\n      DUP5 \t\t\t   fun\n      PUSH [tag] 45\t\t\tfunction store(uint256 num) pu...\n      JUMP [in]\t\t\tfunction store(uint256 num) pu...\n    tag 44\t\t\tfunction store(uint256 num) pu...\n      JUMPDEST \t\t\tfunction store(uint256 num) pu...\n      PUSH [tag] 46\t\t\t number;\\n//     function stor...\n      JUMP [in]\t\t\t number;\\n//     function stor...\n    tag 43\t\t\t number;\\n//     function stor...\n      JUMPDEST \t\t\t number;\\n//     function stor...\n      SWAP1 \t\t\t  uint256 number;\\n//     func...\n      POP \t\t\t  uint256 number;\\n//     func...\n      DUP3 \t\t\teturns\n      DUP2 \t\t\tublic\n      MSTORE \t\t\teve() public returns \n      PUSH 20\t\t\tacts\n      DUP2 \t\t\t \"con\n      ADD \t\t\tport \"contracts/\n      DUP5 \t\t\tcon\n      DUP5 \t\t\tb.sol\"\n      DUP5 \t\t\tee_\n      ADD \t\t\tCallee_sub.sol\";\n      GT \t\t\tll/Callee_sub.sol\";\\n\\ncont\n      ISZERO \t\t\t_call/Callee_sub.sol\";\\n\\ncont...\n      PUSH [tag] 47\t\t\t_call/Callee_sub.sol\";\\n\\ncont...\n      JUMPI \t\t\t_call/Callee_sub.sol\";\\n\\ncont...\n      PUSH [tag] 48\t\t\tt Caller_main {\\n\\n    uint256...\n      PUSH [tag] 49\t\t\tt Caller_main {\\n\\n    uint256...\n      JUMP [in]\t\t\tt Caller_main {\\n\\n    uint256...\n    tag 48\t\t\tt Caller_main {\\n\\n    uint256...\n      JUMPDEST \t\t\tt Caller_main {\\n\\n    uint256...\n    tag 47\t\t\t_call/Callee_sub.sol\";\\n\\ncont...\n      JUMPDEST \t\t\t_call/Callee_sub.sol\";\\n\\ncont...\n      PUSH [tag] 50\t\t\tr (){\\n        sub = new Calle...\n      DUP5 \t\t\t();\\n  \n      DUP3 \t\t\te_s\n      DUP6 \t\t\tCal\n      PUSH [tag] 51\t\t\tr (){\\n        sub = new Calle...\n      JUMP [in]\t\t\tr (){\\n        sub = new Calle...\n    tag 50\t\t\tr (){\\n        sub = new Calle...\n      JUMPDEST \t\t\tr (){\\n        sub = new Calle...\n      POP \t\t\tb {\\n\\n//     uint256 number;\\...\n      SWAP4 \t\t\t-License-Identifier: GPL-3.0\\n...\n      SWAP3 \t\t\t-License-Identifier: GPL-3.0\\n...\n      POP \t\t\t-License-Identifier: GPL-3.0\\n...\n      POP \t\t\t-License-Identifier: GPL-3.0\\n...\n      POP \t\t\t-License-Identifier: GPL-3.0\\n...\n      JUMP [out]\t\t\t-License-Identifier: GPL-3.0\\n...\n    tag 52\t\t\tfunction fix_call_store(uint25...\n      JUMPDEST \t\t\tfunction fix_call_store(uint25...\n      PUSH 0\t\t\tturns\n      DUP2 \t\t\tore(nu\n      CALLDATALOAD \t\t\treturn sub.store(num\n      SWAP1 \t\t\t\\n        return sub.store(num\n      POP \t\t\t\\n        return sub.store(num\n      PUSH [tag] 54\t\t\t    \\n    function store(uint2...\n      DUP2 \t\t\tt256 \n      PUSH [tag] 55\t\t\t    \\n    function store(uint2...\n      JUMP [in]\t\t\t    \\n    function store(uint2...\n    tag 54\t\t\t    \\n    function store(uint2...\n      JUMPDEST \t\t\t    \\n    function store(uint2...\n      SWAP3 \t\t\tfunction fix_call_store(uint25...\n      SWAP2 \t\t\tfunction fix_call_store(uint25...\n      POP \t\t\tfunction fix_call_store(uint25...\n      POP \t\t\tfunction fix_call_store(uint25...\n      JUMP [out]\t\t\tfunction fix_call_store(uint25...\n    tag 56\t\t\tr = num;\\n    }\\n\\n    functio...\n      JUMPDEST \t\t\tr = num;\\n    }\\n\\n    functio...\n      PUSH 0\t\t\tuint2\n      DUP3 \t\t\t留着的\n      PUSH 1F\t\t\t // \n      DUP4 \t\t\t   }\\n \n      ADD \t\t\tr;\\n    }\\n    // 这\n      SLT \t\t\tumber;\\n    }\\n    // 这个要留着的\\n\n      PUSH [tag] 58\t\t\t  return number;\\n    }\\n    /...\n      JUMPI \t\t\t  return number;\\n    }\\n    /...\n      PUSH [tag] 59\t\t\t// function call_without_ABI(a...\n      PUSH [tag] 60\t\t\t// function call_without_ABI(a...\n      JUMP [in]\t\t\t// function call_without_ABI(a...\n    tag 59\t\t\t// function call_without_ABI(a...\n      JUMPDEST \t\t\t// function call_without_ABI(a...\n    tag 58\t\t\t  return number;\\n    }\\n    /...\n      JUMPDEST \t\t\t  return number;\\n    }\\n    /...\n      DUP2 \t\t\t  //  \n      CALLDATALOAD \t\t\ts memory){\\n    //   \n      PUSH [tag] 61\t\t\tlldata;\\n    //     addr = _su...\n      DUP5 \t\t\ture\n      DUP3 \t\t\tthSign\n      PUSH 20\t\t\tncod\n      DUP7 \t\t\t = abi\n      ADD \t\t\tdata = abi.encode\n      PUSH [tag] 41\t\t\tlldata;\\n    //     addr = _su...\n      JUMP [in]\t\t\tlldata;\\n    //     addr = _su...\n    tag 61\t\t\tlldata;\\n    //     addr = _su...\n      JUMPDEST \t\t\tlldata;\\n    //     addr = _su...\n      SWAP2 \t\t\temory _calldata;\\n    //     a...\n      POP \t\t\temory _calldata;\\n    //     a...\n      POP \t\t\t6){\\n        return number;\\n ...\n      SWAP3 \t\t\tr = num;\\n    }\\n\\n    functio...\n      SWAP2 \t\t\tr = num;\\n    }\\n\\n    functio...\n      POP \t\t\tr = num;\\n    }\\n\\n    functio...\n      POP \t\t\tr = num;\\n    }\\n\\n    functio...\n      JUMP [out]\t\t\tr = num;\\n    }\\n\\n    functio...\n    tag 62\t\t\tunc_para);\\n    //     addr.ca...\n      JUMPDEST \t\t\tunc_para);\\n    //     addr.ca...\n      PUSH 0\t\t\t  // \n      DUP2 \t\t\t   fun\n      CALLDATALOAD \t\t\t;\\n    // }\\n\\n    func\n      SWAP1 \t\t\t_calldata;\\n    // }\\n\\n    fu...\n      POP \t\t\t_calldata;\\n    // }\\n\\n    fu...\n      PUSH [tag] 64\t\t\t_with_ABI(address _sub, string...\n      DUP2 \t\t\ting m\n      PUSH [tag] 65\t\t\t_with_ABI(address _sub, string...\n      JUMP [in]\t\t\t_with_ABI(address _sub, string...\n    tag 64\t\t\t_with_ABI(address _sub, string...\n      JUMPDEST \t\t\t_with_ABI(address _sub, string...\n      SWAP3 \t\t\tunc_para);\\n    //     addr.ca...\n      SWAP2 \t\t\tunc_para);\\n    //     addr.ca...\n      POP \t\t\tunc_para);\\n    //     addr.ca...\n      POP \t\t\tunc_para);\\n    //     addr.ca...\n      JUMP [out]\t\t\tunc_para);\\n    //     addr.ca...\n    tag 66\t\t\tme, uint func_para) public ret...\n      JUMPDEST \t\t\tme, uint func_para) public ret...\n      PUSH 0\t\t\t     \n      DUP2 \t\t\t Calle\n      MLOAD \t\t\t sub = Callee\n      SWAP1 \t\t\t \\n        sub = Callee\n      POP \t\t\t \\n        sub = Callee\n      PUSH [tag] 68\t\t\t);\\n        if (sub.retrieve()...\n      DUP2 \t\t\t() ==\n      PUSH [tag] 65\t\t\t);\\n        if (sub.retrieve()...\n      JUMP [in]\t\t\t);\\n        if (sub.retrieve()...\n    tag 68\t\t\t);\\n        if (sub.retrieve()...\n      JUMPDEST \t\t\t);\\n        if (sub.retrieve()...\n      SWAP3 \t\t\tme, uint func_para) public ret...\n      SWAP2 \t\t\tme, uint func_para) public ret...\n      POP \t\t\tme, uint func_para) public ret...\n      POP \t\t\tme, uint func_para) public ret...\n      JUMP [out]\t\t\tme, uint func_para) public ret...\n    tag 17\t\t\t    return false;\\n        }\\n...\n      JUMPDEST \t\t\t    return false;\\n        }\\n...\n      PUSH 0\t\t\t\n      DUP1 \t\t\t\n      PUSH 0\t\t\t\n      PUSH 60\t\t\t\n      DUP5 \t\t\t\n      DUP7 \t\t\t\n      SUB \t\t\t\n      SLT \t\t\t\n      ISZERO \t\t\t\n      PUSH [tag] 70\t\t\t\n      JUMPI \t\t\t\n      PUSH [tag] 71\t\t\t\n      PUSH [tag] 72\t\t\t\n      JUMP [in]\t\t\t\n    tag 71\t\t\t\n      JUMPDEST \t\t\t\n    tag 70\t\t\t\n      JUMPDEST \t\t\t\n      PUSH 0\t\t\t\n      PUSH [tag] 73\t\t\t\n      DUP7 \t\t\t\n      DUP3 \t\t\t\n      DUP8 \t\t\t\n      ADD \t\t\t\n      PUSH [tag] 52\t\t\t\n      JUMP [in]\t\t\t\n    tag 73\t\t\t\n      JUMPDEST \t\t\t\n      SWAP4 \t\t\t\n      POP \t\t\t\n      POP \t\t\t\n      PUSH 20\t\t\t\n      DUP5 \t\t\t\n      ADD \t\t\t\n      CALLDATALOAD \t\t\t\n      PUSH FFFFFFFFFFFFFFFF\t\t\t\n      DUP2 \t\t\t\n      GT \t\t\t\n      ISZERO \t\t\t\n      PUSH [tag] 74\t\t\t\n      JUMPI \t\t\t\n      PUSH [tag] 75\t\t\t\n      PUSH [tag] 76\t\t\t\n      JUMP [in]\t\t\t\n    tag 75\t\t\t\n      JUMPDEST \t\t\t\n    tag 74\t\t\t\n      JUMPDEST \t\t\t\n      PUSH [tag] 77\t\t\t\n      DUP7 \t\t\t\n      DUP3 \t\t\t\n      DUP8 \t\t\t\n      ADD \t\t\t\n      PUSH [tag] 56\t\t\t\n      JUMP [in]\t\t\t\n    tag 77\t\t\t\n      JUMPDEST \t\t\t\n      SWAP3 \t\t\t\n      POP \t\t\t\n      POP \t\t\t\n      PUSH 40\t\t\t\n      PUSH [tag] 78\t\t\t\n      DUP7 \t\t\t\n      DUP3 \t\t\t\n      DUP8 \t\t\t\n      ADD \t\t\t\n      PUSH [tag] 62\t\t\t\n      JUMP [in]\t\t\t\n    tag 78\t\t\t\n      JUMPDEST \t\t\t\n      SWAP2 \t\t\t\n      POP \t\t\t\n      POP \t\t\t\n      SWAP3 \t\t\t    return false;\\n        }\\n...\n      POP \t\t\t    return false;\\n        }\\n...\n      SWAP3 \t\t\t    return false;\\n        }\\n...\n      POP \t\t\t    return false;\\n        }\\n...\n      SWAP3 \t\t\t    return false;\\n        }\\n...\n      JUMP [out]\t\t\t    return false;\\n        }\\n...\n    tag 13\t\t\t\n      JUMPDEST \t\t\t\n      PUSH 0\t\t\t\n      PUSH 20\t\t\t\n      DUP3 \t\t\t\n      DUP5 \t\t\t\n      SUB \t\t\t\n      SLT \t\t\t\n      ISZERO \t\t\t\n      PUSH [tag] 80\t\t\t\n      JUMPI \t\t\t\n      PUSH [tag] 81\t\t\t\n      PUSH [tag] 72\t\t\t\n      JUMP [in]\t\t\t\n    tag 81\t\t\t\n      JUMPDEST \t\t\t\n    tag 80\t\t\t\n      JUMPDEST \t\t\t\n      PUSH 0\t\t\t\n      PUSH [tag] 82\t\t\t\n      DUP5 \t\t\t\n      DUP3 \t\t\t\n      DUP6 \t\t\t\n      ADD \t\t\t\n      PUSH [tag] 62\t\t\t\n      JUMP [in]\t\t\t\n    tag 82\t\t\t\n      JUMPDEST \t\t\t\n      SWAP2 \t\t\t\n      POP \t\t\t\n      POP \t\t\t\n      SWAP3 \t\t\t\n      SWAP2 \t\t\t\n      POP \t\t\t\n      POP \t\t\t\n      JUMP [out]\t\t\t\n    tag 32\t\t\t\n      JUMPDEST \t\t\t\n      PUSH 0\t\t\t\n      PUSH 20\t\t\t\n      DUP3 \t\t\t\n      DUP5 \t\t\t\n      SUB \t\t\t\n      SLT \t\t\t\n      ISZERO \t\t\t\n      PUSH [tag] 84\t\t\t\n      JUMPI \t\t\t\n      PUSH [tag] 85\t\t\t\n      PUSH [tag] 72\t\t\t\n      JUMP [in]\t\t\t\n    tag 85\t\t\t\n      JUMPDEST \t\t\t\n    tag 84\t\t\t\n      JUMPDEST \t\t\t\n      PUSH 0\t\t\t\n      PUSH [tag] 86\t\t\t\n      DUP5 \t\t\t\n      DUP3 \t\t\t\n      DUP6 \t\t\t\n      ADD \t\t\t\n      PUSH [tag] 66\t\t\t\n      JUMP [in]\t\t\t\n    tag 86\t\t\t\n      JUMPDEST \t\t\t\n      SWAP2 \t\t\t\n      POP \t\t\t\n      POP \t\t\t\n      SWAP3 \t\t\t\n      SWAP2 \t\t\t\n      POP \t\t\t\n      POP \t\t\t\n      JUMP [out]\t\t\t\n    tag 87\t\t\t\n      JUMPDEST \t\t\t\n      PUSH [tag] 89\t\t\t\n      DUP2 \t\t\t\n      PUSH [tag] 90\t\t\t\n      JUMP [in]\t\t\t\n    tag 89\t\t\t\n      JUMPDEST \t\t\t\n      DUP3 \t\t\t\n      MSTORE \t\t\t\n      POP \t\t\t\n      POP \t\t\t\n      JUMP [out]\t\t\t\n    tag 91\t\t\t\n      JUMPDEST \t\t\t\n      PUSH [tag] 93\t\t\t\n      DUP2 \t\t\t\n      PUSH [tag] 94\t\t\t\n      JUMP [in]\t\t\t\n    tag 93\t\t\t\n      JUMPDEST \t\t\t\n      DUP3 \t\t\t\n      MSTORE \t\t\t\n      POP \t\t\t\n      POP \t\t\t\n      JUMP [out]\t\t\t\n    tag 20\t\t\t\n      JUMPDEST \t\t\t\n      PUSH 0\t\t\t\n      PUSH 20\t\t\t\n      DUP3 \t\t\t\n      ADD \t\t\t\n      SWAP1 \t\t\t\n      POP \t\t\t\n      PUSH [tag] 96\t\t\t\n      PUSH 0\t\t\t\n      DUP4 \t\t\t\n      ADD \t\t\t\n      DUP5 \t\t\t\n      PUSH [tag] 87\t\t\t\n      JUMP [in]\t\t\t\n    tag 96\t\t\t\n      JUMPDEST \t\t\t\n      SWAP3 \t\t\t\n      SWAP2 \t\t\t\n      POP \t\t\t\n      POP \t\t\t\n      JUMP [out]\t\t\t\n    tag 10\t\t\t\n      JUMPDEST \t\t\t\n      PUSH 0\t\t\t\n      PUSH 20\t\t\t\n      DUP3 \t\t\t\n      ADD \t\t\t\n      SWAP1 \t\t\t\n      POP \t\t\t\n      PUSH [tag] 98\t\t\t\n      PUSH 0\t\t\t\n      DUP4 \t\t\t\n      ADD \t\t\t\n      DUP5 \t\t\t\n      PUSH [tag] 91\t\t\t\n      JUMP [in]\t\t\t\n    tag 98\t\t\t\n      JUMPDEST \t\t\t\n      SWAP3 \t\t\t\n      SWAP2 \t\t\t\n      POP \t\t\t\n      POP \t\t\t\n      JUMP [out]\t\t\t\n    tag 46\t\t\t\n      JUMPDEST \t\t\t\n      PUSH 0\t\t\t\n      PUSH [tag] 100\t\t\t\n      PUSH [tag] 101\t\t\t\n      JUMP [in]\t\t\t\n    tag 100\t\t\t\n      JUMPDEST \t\t\t\n      SWAP1 \t\t\t\n      POP \t\t\t\n      PUSH [tag] 102\t\t\t\n      DUP3 \t\t\t\n      DUP3 \t\t\t\n      PUSH [tag] 103\t\t\t\n      JUMP [in]\t\t\t\n    tag 102\t\t\t\n      JUMPDEST \t\t\t\n      SWAP2 \t\t\t\n      SWAP1 \t\t\t\n      POP \t\t\t\n      JUMP [out]\t\t\t\n    tag 101\t\t\t\n      JUMPDEST \t\t\t\n      PUSH 0\t\t\t\n      PUSH 40\t\t\t\n      MLOAD \t\t\t\n      SWAP1 \t\t\t\n      POP \t\t\t\n      SWAP1 \t\t\t\n      JUMP [out]\t\t\t\n    tag 45\t\t\t\n      JUMPDEST \t\t\t\n      PUSH 0\t\t\t\n      PUSH FFFFFFFFFFFFFFFF\t\t\t\n      DUP3 \t\t\t\n      GT \t\t\t\n      ISZERO \t\t\t\n      PUSH [tag] 106\t\t\t\n      JUMPI \t\t\t\n      PUSH [tag] 107\t\t\t\n      PUSH [tag] 108\t\t\t\n      JUMP [in]\t\t\t\n    tag 107\t\t\t\n      JUMPDEST \t\t\t\n    tag 106\t\t\t\n      JUMPDEST \t\t\t\n      PUSH [tag] 109\t\t\t\n      DUP3 \t\t\t\n      PUSH [tag] 110\t\t\t\n      JUMP [in]\t\t\t\n    tag 109\t\t\t\n      JUMPDEST \t\t\t\n      SWAP1 \t\t\t\n      POP \t\t\t\n      PUSH 20\t\t\t\n      DUP2 \t\t\t\n      ADD \t\t\t\n      SWAP1 \t\t\t\n      POP \t\t\t\n      SWAP2 \t\t\t\n      SWAP1 \t\t\t\n      POP \t\t\t\n      JUMP [out]\t\t\t\n    tag 111\t\t\t\n      JUMPDEST \t\t\t\n      PUSH 0\t\t\t\n      PUSH [tag] 113\t\t\t\n      DUP3 \t\t\t\n      PUSH [tag] 114\t\t\t\n      JUMP [in]\t\t\t\n    tag 113\t\t\t\n      JUMPDEST \t\t\t\n      SWAP1 \t\t\t\n      POP \t\t\t\n      SWAP2 \t\t\t\n      SWAP1 \t\t\t\n      POP \t\t\t\n      JUMP [out]\t\t\t\n    tag 90\t\t\t\n      JUMPDEST \t\t\t\n      PUSH 0\t\t\t\n      DUP2 \t\t\t\n      ISZERO \t\t\t\n      ISZERO \t\t\t\n      SWAP1 \t\t\t\n      POP \t\t\t\n      SWAP2 \t\t\t\n      SWAP1 \t\t\t\n      POP \t\t\t\n      JUMP [out]\t\t\t\n    tag 114\t\t\t\n      JUMPDEST \t\t\t\n      PUSH 0\t\t\t\n      PUSH FFFFFFFFFFFFFFFFFFFFFFFFFFFFFFFFFFFFFFFF\t\t\t\n      DUP3 \t\t\t\n      AND \t\t\t\n      SWAP1 \t\t\t\n      POP \t\t\t\n      SWAP2 \t\t\t\n      SWAP1 \t\t\t\n      POP \t\t\t\n      JUMP [out]\t\t\t\n    tag 94\t\t\t\n      JUMPDEST \t\t\t\n      PUSH 0\t\t\t\n      DUP2 \t\t\t\n      SWAP1 \t\t\t\n      POP \t\t\t\n      SWAP2 \t\t\t\n      SWAP1 \t\t\t\n      POP \t\t\t\n      JUMP [out]\t\t\t\n    tag 51\t\t\t\n      JUMPDEST \t\t\t\n      DUP3 \t\t\t\n      DUP2 \t\t\t\n      DUP4 \t\t\t\n      CALLDATACOPY \t\t\t\n      PUSH 0\t\t\t\n      DUP4 \t\t\t\n      DUP4 \t\t\t\n      ADD \t\t\t\n      MSTORE \t\t\t\n      POP \t\t\t\n      POP \t\t\t\n      POP \t\t\t\n      JUMP [out]\t\t\t\n    tag 103\t\t\t\n      JUMPDEST \t\t\t\n      PUSH [tag] 120\t\t\t\n      DUP3 \t\t\t\n      PUSH [tag] 110\t\t\t\n      JUMP [in]\t\t\t\n    tag 120\t\t\t\n      JUMPDEST \t\t\t\n      DUP2 \t\t\t\n      ADD \t\t\t\n      DUP2 \t\t\t\n      DUP2 \t\t\t\n      LT \t\t\t\n      PUSH FFFFFFFFFFFFFFFF\t\t\t\n      DUP3 \t\t\t\n      GT \t\t\t\n      OR \t\t\t\n      ISZERO \t\t\t\n      PUSH [tag] 121\t\t\t\n      JUMPI \t\t\t\n      PUSH [tag] 122\t\t\t\n      PUSH [tag] 108\t\t\t\n      JUMP [in]\t\t\t\n    tag 122\t\t\t\n      JUMPDEST \t\t\t\n    tag 121\t\t\t\n      JUMPDEST \t\t\t\n      DUP1 \t\t\t\n      PUSH 40\t\t\t\n      MSTORE \t\t\t\n      POP \t\t\t\n      POP \t\t\t\n      POP \t\t\t\n      JUMP [out]\t\t\t\n    tag 108\t\t\t\n      JUMPDEST \t\t\t\n      PUSH 4E487B7100000000000000000000000000000000000000000000000000000000\t\t\t\n      PUSH 0\t\t\t\n      MSTORE \t\t\t\n      PUSH 41\t\t\t\n      PUSH 4\t\t\t\n      MSTORE \t\t\t\n      PUSH 24\t\t\t\n      PUSH 0\t\t\t\n      REVERT \t\t\t\n    tag 60\t\t\t\n      JUMPDEST \t\t\t\n      PUSH 0\t\t\t\n      DUP1 \t\t\t\n      REVERT \t\t\t\n    tag 49\t\t\t\n      JUMPDEST \t\t\t\n      PUSH 0\t\t\t\n      DUP1 \t\t\t\n      REVERT \t\t\t\n    tag 76\t\t\t\n      JUMPDEST \t\t\t\n      PUSH 0\t\t\t\n      DUP1 \t\t\t\n      REVERT \t\t\t\n    tag 72\t\t\t\n      JUMPDEST \t\t\t\n      PUSH 0\t\t\t\n      DUP1 \t\t\t\n      REVERT \t\t\t\n    tag 110\t\t\t\n      JUMPDEST \t\t\t\n      PUSH 0\t\t\t\n      PUSH 1F\t\t\t\n      NOT \t\t\t\n      PUSH 1F\t\t\t\n      DUP4 \t\t\t\n      ADD \t\t\t\n      AND \t\t\t\n      SWAP1 \t\t\t\n      POP \t\t\t\n      SWAP2 \t\t\t\n      SWAP1 \t\t\t\n      POP \t\t\t\n      JUMP [out]\t\t\t\n    tag 55\t\t\t\n      JUMPDEST \t\t\t\n      PUSH [tag] 130\t\t\t\n      DUP2 \t\t\t\n      PUSH [tag] 111\t\t\t\n      JUMP [in]\t\t\t\n    tag 130\t\t\t\n      JUMPDEST \t\t\t\n      DUP2 \t\t\t\n      EQ \t\t\t\n      PUSH [tag] 131\t\t\t\n      JUMPI \t\t\t\n      PUSH 0\t\t\t\n      DUP1 \t\t\t\n      REVERT \t\t\t\n    tag 131\t\t\t\n      JUMPDEST \t\t\t\n      POP \t\t\t\n      JUMP [out]\t\t\t\n    tag 65\t\t\t\n      JUMPDEST \t\t\t\n      PUSH [tag] 133\t\t\t\n      DUP2 \t\t\t\n      PUSH [tag] 94\t\t\t\n      JUMP [in]\t\t\t\n    tag 133\t\t\t\n      JUMPDEST \t\t\t\n      DUP2 \t\t\t\n      EQ \t\t\t\n      PUSH [tag] 134\t\t\t\n      JUMPI \t\t\t\n      PUSH 0\t\t\t\n      DUP1 \t\t\t\n      REVERT \t\t\t\n    tag 134\t\t\t\n      JUMPDEST \t\t\t\n      POP \t\t\t\n      JUMP [out]\t\t\t\n    .data\n  1:\n    .code\n      PUSH 80\t\t\t/ contract Callee_sub {\\n\\n// ...\n      PUSH 40\t\t\t/ contract Callee_sub {\\n\\n// ...\n      MSTORE \t\t\t/ contract Callee_sub {\\n\\n// ...\n      CALLVALUE \t\t\t/ contract Callee_sub {\\n\\n// ...\n      DUP1 \t\t\t/ contract Callee_sub {\\n\\n// ...\n      ISZERO \t\t\t/ contract Callee_sub {\\n\\n// ...\n      PUSH [tag] 1\t\t\t/ contract Callee_sub {\\n\\n// ...\n      JUMPI \t\t\t/ contract Callee_sub {\\n\\n// ...\n      PUSH 0\t\t\t/ contract Callee_sub {\\n\\n// ...\n      DUP1 \t\t\t/ contract Callee_sub {\\n\\n// ...\n      REVERT \t\t\t/ contract Callee_sub {\\n\\n// ...\n    tag 1\t\t\t/ contract Callee_sub {\\n\\n// ...\n      JUMPDEST \t\t\t/ contract Callee_sub {\\n\\n// ...\n      POP \t\t\t/ contract Callee_sub {\\n\\n// ...\n      PUSH #[$] 0000000000000000000000000000000000000000000000000000000000000000\t\t\t/ contract Callee_sub {\\n\\n// ...\n      DUP1 \t\t\t/ contract Callee_sub {\\n\\n// ...\n      PUSH [$] 0000000000000000000000000000000000000000000000000000000000000000\t\t\t/ contract Callee_sub {\\n\\n// ...\n      PUSH 0\t\t\t/ contract Callee_sub {\\n\\n// ...\n      CODECOPY \t\t\t/ contract Callee_sub {\\n\\n// ...\n      PUSH 0\t\t\t/ contract Callee_sub {\\n\\n// ...\n      RETURN \t\t\t/ contract Callee_sub {\\n\\n// ...\n    .data\n      0:\n        .code\n          PUSH 80\t\t\t/ contract Callee_sub {\\n\\n// ...\n          PUSH 40\t\t\t/ contract Callee_sub {\\n\\n// ...\n          MSTORE \t\t\t/ contract Callee_sub {\\n\\n// ...\n          CALLVALUE \t\t\t/ contract Callee_sub {\\n\\n// ...\n          DUP1 \t\t\t/ contract Callee_sub {\\n\\n// ...\n          ISZERO \t\t\t/ contract Callee_sub {\\n\\n// ...\n          PUSH [tag] 1\t\t\t/ contract Callee_sub {\\n\\n// ...\n          JUMPI \t\t\t/ contract Callee_sub {\\n\\n// ...\n          PUSH 0\t\t\t/ contract Callee_sub {\\n\\n// ...\n          DUP1 \t\t\t/ contract Callee_sub {\\n\\n// ...\n          REVERT \t\t\t/ contract Callee_sub {\\n\\n// ...\n        tag 1\t\t\t/ contract Callee_sub {\\n\\n// ...\n          JUMPDEST \t\t\t/ contract Callee_sub {\\n\\n// ...\n          POP \t\t\t/ contract Callee_sub {\\n\\n// ...\n          PUSH 4\t\t\t/ contract Callee_sub {\\n\\n// ...\n          CALLDATASIZE \t\t\t/ contract Callee_sub {\\n\\n// ...\n          LT \t\t\t/ contract Callee_sub {\\n\\n// ...\n          PUSH [tag] 2\t\t\t/ contract Callee_sub {\\n\\n// ...\n          JUMPI \t\t\t/ contract Callee_sub {\\n\\n// ...\n          PUSH 0\t\t\t/ contract Callee_sub {\\n\\n// ...\n          CALLDATALOAD \t\t\t/ contract Callee_sub {\\n\\n// ...\n          PUSH E0\t\t\t/ contract Callee_sub {\\n\\n// ...\n          SHR \t\t\t/ contract Callee_sub {\\n\\n// ...\n          DUP1 \t\t\t/ contract Callee_sub {\\n\\n// ...\n          PUSH 2E64CEC1\t\t\t/ contract Callee_sub {\\n\\n// ...\n          EQ \t\t\t/ contract Callee_sub {\\n\\n// ...\n          PUSH [tag] 3\t\t\t/ contract Callee_sub {\\n\\n// ...\n          JUMPI \t\t\t/ contract Callee_sub {\\n\\n// ...\n          DUP1 \t\t\t/ contract Callee_sub {\\n\\n// ...\n          PUSH 6057361D\t\t\t/ contract Callee_sub {\\n\\n// ...\n          EQ \t\t\t/ contract Callee_sub {\\n\\n// ...\n          PUSH [tag] 4\t\t\t/ contract Callee_sub {\\n\\n// ...\n          JUMPI \t\t\t/ contract Callee_sub {\\n\\n// ...\n        tag 2\t\t\t/ contract Callee_sub {\\n\\n// ...\n          JUMPDEST \t\t\t/ contract Callee_sub {\\n\\n// ...\n          PUSH 0\t\t\t/ contract Callee_sub {\\n\\n// ...\n          DUP1 \t\t\t/ contract Callee_sub {\\n\\n// ...\n          REVERT \t\t\t/ contract Callee_sub {\\n\\n// ...\n        tag 3\t\t\tntracts/fix_multi_call/Callee_...\n          JUMPDEST \t\t\tntracts/fix_multi_call/Callee_...\n          PUSH [tag] 5\t\t\tntracts/fix_multi_call/Callee_...\n          PUSH [tag] 6\t\t\tntracts/fix_multi_call/Callee_...\n          JUMP [in]\t\t\tntracts/fix_multi_call/Callee_...\n        tag 5\t\t\tntracts/fix_multi_call/Callee_...\n          JUMPDEST \t\t\tntracts/fix_multi_call/Callee_...\n          PUSH 40\t\t\tntracts/fix_multi_call/Callee_...\n          MLOAD \t\t\tntracts/fix_multi_call/Callee_...\n          PUSH [tag] 7\t\t\tntracts/fix_multi_call/Callee_...\n          SWAP2 \t\t\tntracts/fix_multi_call/Callee_...\n          SWAP1 \t\t\tntracts/fix_multi_call/Callee_...\n          PUSH [tag] 8\t\t\tntracts/fix_multi_call/Callee_...\n          JUMP [in]\t\t\tntracts/fix_multi_call/Callee_...\n        tag 7\t\t\tntracts/fix_multi_call/Callee_...\n          JUMPDEST \t\t\tntracts/fix_multi_call/Callee_...\n          PUSH 40\t\t\tntracts/fix_multi_call/Callee_...\n          MLOAD \t\t\tntracts/fix_multi_call/Callee_...\n          DUP1 \t\t\tntracts/fix_multi_call/Callee_...\n          SWAP2 \t\t\tntracts/fix_multi_call/Callee_...\n          SUB \t\t\tntracts/fix_multi_call/Callee_...\n          SWAP1 \t\t\tntracts/fix_multi_call/Callee_...\n          RETURN \t\t\tntracts/fix_multi_call/Callee_...\n        tag 4\t\t\t    function store(uint256 num...\n          JUMPDEST \t\t\t    function store(uint256 num...\n          PUSH [tag] 9\t\t\t    function store(uint256 num...\n          PUSH 4\t\t\t    function store(uint256 num...\n          DUP1 \t\t\t    function store(uint256 num...\n          CALLDATASIZE \t\t\t    function store(uint256 num...\n          SUB \t\t\t    function store(uint256 num...\n          DUP2 \t\t\t    function store(uint256 num...\n          ADD \t\t\t    function store(uint256 num...\n          SWAP1 \t\t\t    function store(uint256 num...\n          PUSH [tag] 10\t\t\t    function store(uint256 num...\n          SWAP2 \t\t\t    function store(uint256 num...\n          SWAP1 \t\t\t    function store(uint256 num...\n          PUSH [tag] 11\t\t\t    function store(uint256 num...\n          JUMP [in]\t\t\t    function store(uint256 num...\n        tag 10\t\t\t    function store(uint256 num...\n          JUMPDEST \t\t\t    function store(uint256 num...\n          PUSH [tag] 12\t\t\t    function store(uint256 num...\n          JUMP [in]\t\t\t    function store(uint256 num...\n        tag 9\t\t\t    function store(uint256 num...\n          JUMPDEST \t\t\t    function store(uint256 num...\n          PUSH 40\t\t\t    function store(uint256 num...\n          MLOAD \t\t\t    function store(uint256 num...\n          PUSH [tag] 13\t\t\t    function store(uint256 num...\n          SWAP2 \t\t\t    function store(uint256 num...\n          SWAP1 \t\t\t    function store(uint256 num...\n          PUSH [tag] 8\t\t\t    function store(uint256 num...\n          JUMP [in]\t\t\t    function store(uint256 num...\n        tag 13\t\t\t    function store(uint256 num...\n          JUMPDEST \t\t\t    function store(uint256 num...\n          PUSH 40\t\t\t    function store(uint256 num...\n          MLOAD \t\t\t    function store(uint256 num...\n          DUP1 \t\t\t    function store(uint256 num...\n          SWAP2 \t\t\t    function store(uint256 num...\n          SUB \t\t\t    function store(uint256 num...\n          SWAP1 \t\t\t    function store(uint256 num...\n          RETURN \t\t\t    function store(uint256 num...\n        tag 6\t\t\tntracts/fix_multi_call/Callee_...\n          JUMPDEST \t\t\tntracts/fix_multi_call/Callee_...\n          PUSH 0\t\t\tl\";\\n\\nco\n          DUP1 \t\t\t {\\n\\n  \n          SLOAD \t\t\t {\\n\\n  \n          SWAP1 \t\t\ter_main {\\n\\n  \n          POP \t\t\ter_main {\\n\\n  \n          SWAP1 \t\t\tntracts/fix_multi_call/Callee_...\n          JUMP [out]\t\t\tntracts/fix_multi_call/Callee_...\n        tag 12\t\t\t    function store(uint256 num...\n          JUMPDEST \t\t\t    function store(uint256 num...\n          PUSH 0\t\t\t     fu\n          PUSH 1\t\t\t \n          DUP3 \t\t\tbli\n          PUSH [tag] 16\t\t\tblic \n          SWAP2 \t\t\tblic \n          SWAP1 \t\t\tblic \n          PUSH [tag] 17\t\t\tblic \n          JUMP [in]\t\t\tblic \n        tag 16\t\t\tblic \n          JUMPDEST \t\t\tblic \n          PUSH 0\t\t\tieve()\n          DUP2 \t\t\tieve() public \n          SWAP1 \t\t\tieve() public \n          SSTORE \t\t\tieve() public \n          POP \t\t\tieve() public \n          PUSH 0\t\t\t{}\\n// \n          SLOAD \t\t\t{}\\n// \n          SWAP1 \t\t\tint256){}\\n// \n          POP \t\t\tint256){}\\n// \n          SWAP2 \t\t\t    function store(uint256 num...\n          SWAP1 \t\t\t    function store(uint256 num...\n          POP \t\t\t    function store(uint256 num...\n          JUMP [out]\t\t\t    function store(uint256 num...\n        tag 19\t\t\t-License-Identifier: GPL-3.0\\n...\n          JUMPDEST \t\t\t-License-Identifier: GPL-3.0\\n...\n          PUSH 0\t\t\t>=0.8\n          DUP2 \t\t\tb {\\n\\n/\n          CALLDATALOAD \t\t\tact Callee_sub {\\n\\n//\n          SWAP1 \t\t\t\\n// contract Callee_sub {\\n\\n...\n          POP \t\t\t\\n// contract Callee_sub {\\n\\n...\n          PUSH [tag] 21\t\t\t256 number;\\n//     function s...\n          DUP2 \t\t\t stor\n          PUSH [tag] 22\t\t\t256 number;\\n//     function s...\n          JUMP [in]\t\t\t256 number;\\n//     function s...\n        tag 21\t\t\t256 number;\\n//     function s...\n          JUMPDEST \t\t\t256 number;\\n//     function s...\n          SWAP3 \t\t\t-License-Identifier: GPL-3.0\\n...\n          SWAP2 \t\t\t-License-Identifier: GPL-3.0\\n...\n          POP \t\t\t-License-Identifier: GPL-3.0\\n...\n          POP \t\t\t-License-Identifier: GPL-3.0\\n...\n          JUMP [out]\t\t\t-License-Identifier: GPL-3.0\\n...\n        tag 11\t\t\t) public {}\\n//     function r...\n          JUMPDEST \t\t\t) public {}\\n//     function r...\n          PUSH 0\t\t\t256){}\n          PUSH 20\t\t\tle\n          DUP3 \t\t\tlti_call/\n          DUP5 \t\t\tts/fix_\n          SUB \t\t\ttracts/fix_multi_call/C\n          SLT \t\t\t\"contracts/fix_multi_call/Call...\n          ISZERO \t\t\trt \"contracts/fix_multi_call/C...\n          PUSH [tag] 24\t\t\trt \"contracts/fix_multi_call/C...\n          JUMPI \t\t\trt \"contracts/fix_multi_call/C...\n          PUSH [tag] 25\t\t\tb.sol\";\\n\\ncontract Caller_mai...\n          PUSH [tag] 26\t\t\tb.sol\";\\n\\ncontract Caller_mai...\n          JUMP [in]\t\t\tb.sol\";\\n\\ncontract Caller_mai...\n        tag 25\t\t\tb.sol\";\\n\\ncontract Caller_mai...\n          JUMPDEST \t\t\tb.sol\";\\n\\ncontract Caller_mai...\n        tag 24\t\t\trt \"contracts/fix_multi_call/C...\n          JUMPDEST \t\t\trt \"contracts/fix_multi_call/C...\n          PUSH 0\t\t\ts\n          PUSH [tag] 27\t\t\t   }\\n    \\n    function fix_c...\n          DUP5 \t\t\t num) p\n          DUP3 \t\t\te(uint\n          DUP6 \t\t\tx_call_st\n          ADD \t\t\tn fix_call_store(uint2\n          PUSH [tag] 19\t\t\t   }\\n    \\n    function fix_c...\n          JUMP [in]\t\t\t   }\\n    \\n    function fix_c...\n        tag 27\t\t\t   }\\n    \\n    function fix_c...\n          JUMPDEST \t\t\t   }\\n    \\n    function fix_c...\n          SWAP2 \t\t\te_sub();\\n    }\\n    \\n    fun...\n          POP \t\t\te_sub();\\n    }\\n    \\n    fun...\n          POP \t\t\t\\n    constructor (){\\n       ...\n          SWAP3 \t\t\t) public {}\\n//     function r...\n          SWAP2 \t\t\t) public {}\\n//     function r...\n          POP \t\t\t) public {}\\n//     function r...\n          POP \t\t\t) public {}\\n//     function r...\n          JUMP [out]\t\t\t) public {}\\n//     function r...\n        tag 28\t\t\t\\n        return sub.store(num...\n          JUMPDEST \t\t\t\\n        return sub.store(num...\n          PUSH [tag] 30\t\t\t     number = num;\\n    }\n          DUP2 \t\t\t\\n    \n          PUSH [tag] 31\t\t\t     number = num;\\n    }\n          JUMP [in]\t\t\t     number = num;\\n    }\n        tag 30\t\t\t     number = num;\\n    }\n          JUMPDEST \t\t\t     number = num;\\n    }\n          DUP3 \t\t\t{\\n \n          MSTORE \t\t\tpublic {\\n        number = num...\n          POP \t\t\t\\n        return sub.store(num...\n          POP \t\t\t\\n        return sub.store(num...\n          JUMP [out]\t\t\t\\n        return sub.store(num...\n        tag 8\t\t\tn retrieve() public returns (u...\n          JUMPDEST \t\t\tn retrieve() public returns (u...\n          PUSH 0\t\t\ttion\n          PUSH 20\t\t\tri\n          DUP3 \t\t\tss _sub, \n          ADD \t\t\tddress _sub, strin\n          SWAP1 \t\t\tut_ABI(address _sub, strin\n          POP \t\t\tut_ABI(address _sub, strin\n          PUSH [tag] 33\t\t\tunc_name, uint func_para) publ...\n          PUSH 0\t\t\tb\n          DUP4 \t\t\t    //   \n          ADD \t\t\ty){\\n    //     by\n          DUP5 \t\t\ttes me\n          PUSH [tag] 28\t\t\tunc_name, uint func_para) publ...\n          JUMP [in]\t\t\tunc_name, uint func_para) publ...\n        tag 33\t\t\tunc_name, uint func_para) publ...\n          JUMPDEST \t\t\tunc_name, uint func_para) publ...\n          SWAP3 \t\t\tn retrieve() public returns (u...\n          SWAP2 \t\t\tn retrieve() public returns (u...\n          POP \t\t\tn retrieve() public returns (u...\n          POP \t\t\tn retrieve() public returns (u...\n          JUMP [out]\t\t\tn retrieve() public returns (u...\n        tag 17\t\t\tnc_name, func_para);\\n    //  ...\n          JUMPDEST \t\t\tnc_name, func_para);\\n    //  ...\n          PUSH 0\t\t\tl(_\n          PUSH [tag] 37\t\t\t/     return _callda\n          DUP3 \t\t\td\n          PUSH [tag] 31\t\t\t/     return _callda\n          JUMP [in]\t\t\t/     return _callda\n        tag 37\t\t\t/     return _callda\n          JUMPDEST \t\t\t/     return _callda\n          SWAP2 \t\t\t    //     return _callda\n          POP \t\t\t    //     return _callda\n          PUSH [tag] 38\t\t\t    function call_wi\n          DUP4 \t\t\tw\n          PUSH [tag] 31\t\t\t    function call_wi\n          JUMP [in]\t\t\t    function call_wi\n        tag 38\t\t\t    function call_wi\n          JUMPDEST \t\t\t    function call_wi\n          SWAP3 \t\t\t/ }\\n\\n    function call_wi\n          POP \t\t\t/ }\\n\\n    function call_wi\n          DUP3 \t\t\tl\n          PUSH FFFFFFFFFFFFFFFFFFFFFFFFFFFFFFFFFFFFFFFFFFFFFFFFFFFFFFFFFFFFFFFF\t\t\tic returns (bool success){\\n  ...\n          SUB \t\t\tpublic returns (bool success){...\n          DUP3 \t\t\ta\n          GT \t\t\tpara) public returns (bool suc...\n          ISZERO \t\t\tnc_para) public returns (bool ...\n          PUSH [tag] 39\t\t\tnc_para) public returns (bool ...\n          JUMPI \t\t\tnc_para) public returns (bool ...\n          PUSH [tag] 40\t\t\tb(_sub);\\n        i\n          PUSH [tag] 41\t\t\tb(_sub);\\n        i\n          JUMP [in]\t\t\tb(_sub);\\n        i\n        tag 40\t\t\tb(_sub);\\n        i\n          JUMPDEST \t\t\tb(_sub);\\n        i\n        tag 39\t\t\tnc_para) public returns (bool ...\n          JUMPDEST \t\t\tnc_para) public returns (bool ...\n          DUP3 \t\t\t \n          DUP3 \t\t\t{\n          ADD \t\t\t= 3){\\n   \n          SWAP1 \t\t\teve() == 3){\\n   \n          POP \t\t\teve() == 3){\\n   \n          SWAP3 \t\t\tnc_name, func_para);\\n    //  ...\n          SWAP2 \t\t\tnc_name, func_para);\\n    //  ...\n          POP \t\t\tnc_name, func_para);\\n    //  ...\n          POP \t\t\tnc_name, func_para);\\n    //  ...\n          JUMP [out]\t\t\tnc_name, func_para);\\n    //  ...\n        tag 31\t\t\turn false;\\n        }\\n       ...\n          JUMPDEST \t\t\turn false;\\n        }\\n       ...\n          PUSH 0\t\t\true;\\n  \n          DUP2 \t\t\t\n          SWAP1 \t\t\t\n          POP \t\t\t\n          SWAP2 \t\t\turn false;\\n        }\\n       ...\n          SWAP1 \t\t\turn false;\\n        }\\n       ...\n          POP \t\t\turn false;\\n        }\\n       ...\n          JUMP [out]\t\t\turn false;\\n        }\\n       ...\n        tag 41\t\t\t\n          JUMPDEST \t\t\t\n          PUSH 4E487B7100000000000000000000000000000000000000000000000000000000\t\t\t\n          PUSH 0\t\t\t\n          MSTORE \t\t\t\n          PUSH 11\t\t\t\n          PUSH 4\t\t\t\n          MSTORE \t\t\t\n          PUSH 24\t\t\t\n          PUSH 0\t\t\t\n          REVERT \t\t\t\n        tag 26\t\t\t\n          JUMPDEST \t\t\t\n          PUSH 0\t\t\t\n          DUP1 \t\t\t\n          REVERT \t\t\t\n        tag 22\t\t\t\n          JUMPDEST \t\t\t\n          PUSH [tag] 48\t\t\t\n          DUP2 \t\t\t\n          PUSH [tag] 31\t\t\t\n          JUMP [in]\t\t\t\n        tag 48\t\t\t\n          JUMPDEST \t\t\t\n          DUP2 \t\t\t\n          EQ \t\t\t\n          PUSH [tag] 49\t\t\t\n          JUMPI \t\t\t\n          PUSH 0\t\t\t\n          DUP1 \t\t\t\n          REVERT \t\t\t\n        tag 49\t\t\t\n          JUMPDEST \t\t\t\n          POP \t\t\t\n          JUMP [out]\t\t\t\n        .data\n"
}