{
	"compilerInput": "{\"language\":\"Solidity\",\"sources\":{\"contracts/fix_multi_call/Caller_main.sol\":{\"content\":\"// SPDX-License-Identifier: GPL-3.0\\n\\npragma solidity >=0.8.2 <0.9.0;\\n\\n// contract Callee_sub {\\n\\n//     uint256 number;\\n//     function store(uint256 num) public {}\\n//     function retrieve() public returns (uint256){}\\n// }\\n\\nimport \\\"contracts/fix_multi_call/Callee_sub.sol\\\";\\n\\ncontract Caller_main {\\n\\n    uint256 number;\\n    address addr;\\n    Callee_sub sub;\\n\\n    constructor (){\\n        sub = new Callee_sub();\\n    }\\n    \\n    function fix_call_store(uint256 num) public returns (uint256){\\n        return sub.store(num);\\n    }\\n\\n    // function store(uint256 num) public {\\n    //     number = num;\\n    // }\\n\\n    // function retrieve() public returns (uint256){\\n    //     return number;\\n    // }\\n    // // 这个要留着的\\n    // // function call_without_ABI(address _sub, string memory func_name, uint func_para) public returns (bytes memory){\\n    // //     bytes memory _calldata;\\n    // //     addr = _sub;\\n    // //     _calldata = abi.encodeWithSignature(func_name, func_para);\\n    // //     addr.call(_calldata);\\n    // //     return _calldata;\\n    // // }\\n\\n    // function call_with_ABI(address _sub, string memory func_name, uint func_para) public returns (bool success){\\n                       \\n    //     sub = Callee_sub(_sub);\\n    //     if (sub.retrieve() == 3){\\n    //         return false;\\n    //     }\\n    //     return true;\\n    // }\\n    \\n\\n}\"},\"contracts/fix_multi_call/Callee_sub.sol\":{\"content\":\"// SPDX-License-Identifier: GPL-3.0\\n\\npragma solidity >=0.8.2 <0.9.0;\\n\\n\\ncontract Callee_sub {\\n\\n    uint256 number;\\n\\n  \\n    function store(uint256 num) public returns (uint256){\\n        number = num+1;\\n        return number;\\n    }\\n\\n    function retrieve() public returns (uint256){\\n        return number;\\n    }\\n}\"}},\"settings\":{\"optimizer\":{\"enabled\":false,\"runs\":200},\"outputSelection\":{\"*\":{\"\":[\"ast\"],\"*\":[\"abi\",\"metadata\",\"devdoc\",\"userdoc\",\"storageLayout\",\"evm.legacyAssembly\",\"evm.bytecode\",\"evm.deployedBytecode\",\"evm.methodIdentifiers\",\"evm.gasEstimates\",\"evm.assembly\"]}}}}",
	"name": "Caller_main",
	"bytecode": {
		"linkReferences": {},
		"object": "608060405234801561001057600080fd5b5060405161001d9061007f565b604051809103906000f080158015610039573d6000803e3d6000fd5b50600260006101000a81548173ffffffffffffffffffffffffffffffffffffffff021916908373ffffffffffffffffffffffffffffffffffffffff16021790555061008c565b61021e806102bb83390190565b6102208061009b6000396000f3fe608060405234801561001057600080fd5b506004361061002b5760003560e01c8063d324082e14610030575b600080fd5b61004a60048036038101906100459190610140565b610060565b60405161005791906101a9565b60405180910390f35b6000600260009054906101000a900473ffffffffffffffffffffffffffffffffffffffff1673ffffffffffffffffffffffffffffffffffffffff16636057361d836040518263ffffffff1660e01b81526004016100bd91906101a9565b602060405180830381600087803b1580156100d757600080fd5b505af11580156100eb573d6000803e3d6000fd5b505050506040513d601f19601f8201168201806040525081019061010f919061016d565b9050919050565b600081359050610125816101d3565b92915050565b60008151905061013a816101d3565b92915050565b600060208284031215610156576101556101ce565b5b600061016484828501610116565b91505092915050565b600060208284031215610183576101826101ce565b5b60006101918482850161012b565b91505092915050565b6101a3816101c4565b82525050565b60006020820190506101be600083018461019a565b92915050565b6000819050919050565b600080fd5b6101dc816101c4565b81146101e757600080fd5b5056fea2646970667358221220732d1dd87f112fde4b433fe8799e2189220afba08297a9c570cd51d0abcb38f264736f6c63430008070033608060405234801561001057600080fd5b506101fe806100206000396000f3fe608060405234801561001057600080fd5b50600436106100365760003560e01c80632e64cec11461003b5780636057361d14610059575b600080fd5b610043610089565b6040516100509190610102565b60405180910390f35b610073600480360381019061006e91906100c6565b610092565b6040516100809190610102565b60405180910390f35b60008054905090565b60006001826100a1919061011d565b6000819055506000549050919050565b6000813590506100c0816101b1565b92915050565b6000602082840312156100dc576100db6101ac565b5b60006100ea848285016100b1565b91505092915050565b6100fc81610173565b82525050565b600060208201905061011760008301846100f3565b92915050565b600061012882610173565b915061013383610173565b9250827fffffffffffffffffffffffffffffffffffffffffffffffffffffffffffffffff038211156101685761016761017d565b5b828201905092915050565b6000819050919050565b7f4e487b7100000000000000000000000000000000000000000000000000000000600052601160045260246000fd5b600080fd5b6101ba81610173565b81146101c557600080fd5b5056fea26469706673582212208ac8aa5c0d358e56eaeac20681fa1a209d5f6a767568285fcbd589676711ea9664736f6c63430008070033",
		"opcodes": "PUSH1 0x80 PUSH1 0x40 MSTORE CALLVALUE DUP1 ISZERO PUSH2 0x10 JUMPI PUSH1 0x0 DUP1 REVERT JUMPDEST POP PUSH1 0x40 MLOAD PUSH2 0x1D SWAP1 PUSH2 0x7F JUMP JUMPDEST PUSH1 0x40 MLOAD DUP1 SWAP2 SUB SWAP1 PUSH1 0x0 CREATE DUP1 ISZERO DUP1 ISZERO PUSH2 0x39 JUMPI RETURNDATASIZE PUSH1 0x0 DUP1 RETURNDATACOPY RETURNDATASIZE PUSH1 0x0 REVERT JUMPDEST POP PUSH1 0x2 PUSH1 0x0 PUSH2 0x100 EXP DUP2 SLOAD DUP2 PUSH20 0xFFFFFFFFFFFFFFFFFFFFFFFFFFFFFFFFFFFFFFFF MUL NOT AND SWAP1 DUP4 PUSH20 0xFFFFFFFFFFFFFFFFFFFFFFFFFFFFFFFFFFFFFFFF AND MUL OR SWAP1 SSTORE POP PUSH2 0x8C JUMP JUMPDEST PUSH2 0x21E DUP1 PUSH2 0x2BB DUP4 CODECOPY ADD SWAP1 JUMP JUMPDEST PUSH2 0x220 DUP1 PUSH2 0x9B PUSH1 0x0 CODECOPY PUSH1 0x0 RETURN INVALID PUSH1 0x80 PUSH1 0x40 MSTORE CALLVALUE DUP1 ISZERO PUSH2 0x10 JUMPI PUSH1 0x0 DUP1 REVERT JUMPDEST POP PUSH1 0x4 CALLDATASIZE LT PUSH2 0x2B JUMPI PUSH1 0x0 CALLDATALOAD PUSH1 0xE0 SHR DUP1 PUSH4 0xD324082E EQ PUSH2 0x30 JUMPI JUMPDEST PUSH1 0x0 DUP1 REVERT JUMPDEST PUSH2 0x4A PUSH1 0x4 DUP1 CALLDATASIZE SUB DUP2 ADD SWAP1 PUSH2 0x45 SWAP2 SWAP1 PUSH2 0x140 JUMP JUMPDEST PUSH2 0x60 JUMP JUMPDEST PUSH1 0x40 MLOAD PUSH2 0x57 SWAP2 SWAP1 PUSH2 0x1A9 JUMP JUMPDEST PUSH1 0x40 MLOAD DUP1 SWAP2 SUB SWAP1 RETURN JUMPDEST PUSH1 0x0 PUSH1 0x2 PUSH1 0x0 SWAP1 SLOAD SWAP1 PUSH2 0x100 EXP SWAP1 DIV PUSH20 0xFFFFFFFFFFFFFFFFFFFFFFFFFFFFFFFFFFFFFFFF AND PUSH20 0xFFFFFFFFFFFFFFFFFFFFFFFFFFFFFFFFFFFFFFFF AND PUSH4 0x6057361D DUP4 PUSH1 0x40 MLOAD DUP3 PUSH4 0xFFFFFFFF AND PUSH1 0xE0 SHL DUP2 MSTORE PUSH1 0x4 ADD PUSH2 0xBD SWAP2 SWAP1 PUSH2 0x1A9 JUMP JUMPDEST PUSH1 0x20 PUSH1 0x40 MLOAD DUP1 DUP4 SUB DUP2 PUSH1 0x0 DUP8 DUP1 EXTCODESIZE ISZERO DUP1 ISZERO PUSH2 0xD7 JUMPI PUSH1 0x0 DUP1 REVERT JUMPDEST POP GAS CALL ISZERO DUP1 ISZERO PUSH2 0xEB JUMPI RETURNDATASIZE PUSH1 0x0 DUP1 RETURNDATACOPY RETURNDATASIZE PUSH1 0x0 REVERT JUMPDEST POP POP POP POP PUSH1 0x40 MLOAD RETURNDATASIZE PUSH1 0x1F NOT PUSH1 0x1F DUP3 ADD AND DUP3 ADD DUP1 PUSH1 0x40 MSTORE POP DUP2 ADD SWAP1 PUSH2 0x10F SWAP2 SWAP1 PUSH2 0x16D JUMP JUMPDEST SWAP1 POP SWAP2 SWAP1 POP JUMP JUMPDEST PUSH1 0x0 DUP2 CALLDATALOAD SWAP1 POP PUSH2 0x125 DUP2 PUSH2 0x1D3 JUMP JUMPDEST SWAP3 SWAP2 POP POP JUMP JUMPDEST PUSH1 0x0 DUP2 MLOAD SWAP1 POP PUSH2 0x13A DUP2 PUSH2 0x1D3 JUMP JUMPDEST SWAP3 SWAP2 POP POP JUMP JUMPDEST PUSH1 0x0 PUSH1 0x20 DUP3 DUP5 SUB SLT ISZERO PUSH2 0x156 JUMPI PUSH2 0x155 PUSH2 0x1CE JUMP JUMPDEST JUMPDEST PUSH1 0x0 PUSH2 0x164 DUP5 DUP3 DUP6 ADD PUSH2 0x116 JUMP JUMPDEST SWAP2 POP POP SWAP3 SWAP2 POP POP JUMP JUMPDEST PUSH1 0x0 PUSH1 0x20 DUP3 DUP5 SUB SLT ISZERO PUSH2 0x183 JUMPI PUSH2 0x182 PUSH2 0x1CE JUMP JUMPDEST JUMPDEST PUSH1 0x0 PUSH2 0x191 DUP5 DUP3 DUP6 ADD PUSH2 0x12B JUMP JUMPDEST SWAP2 POP POP SWAP3 SWAP2 POP POP JUMP JUMPDEST PUSH2 0x1A3 DUP2 PUSH2 0x1C4 JUMP JUMPDEST DUP3 MSTORE POP POP JUMP JUMPDEST PUSH1 0x0 PUSH1 0x20 DUP3 ADD SWAP1 POP PUSH2 0x1BE PUSH1 0x0 DUP4 ADD DUP5 PUSH2 0x19A JUMP JUMPDEST SWAP3 SWAP2 POP POP JUMP JUMPDEST PUSH1 0x0 DUP2 SWAP1 POP SWAP2 SWAP1 POP JUMP JUMPDEST PUSH1 0x0 DUP1 REVERT JUMPDEST PUSH2 0x1DC DUP2 PUSH2 0x1C4 JUMP JUMPDEST DUP2 EQ PUSH2 0x1E7 JUMPI PUSH1 0x0 DUP1 REVERT JUMPDEST POP JUMP INVALID LOG2 PUSH5 0x6970667358 0x22 SLT KECCAK256 PUSH20 0x2D1DD87F112FDE4B433FE8799E2189220AFBA082 SWAP8 0xA9 0xC5 PUSH17 0xCD51D0ABCB38F264736F6C634300080700 CALLER PUSH1 0x80 PUSH1 0x40 MSTORE CALLVALUE DUP1 ISZERO PUSH2 0x10 JUMPI PUSH1 0x0 DUP1 REVERT JUMPDEST POP PUSH2 0x1FE DUP1 PUSH2 0x20 PUSH1 0x0 CODECOPY PUSH1 0x0 RETURN INVALID PUSH1 0x80 PUSH1 0x40 MSTORE CALLVALUE DUP1 ISZERO PUSH2 0x10 JUMPI PUSH1 0x0 DUP1 REVERT JUMPDEST POP PUSH1 0x4 CALLDATASIZE LT PUSH2 0x36 JUMPI PUSH1 0x0 CALLDATALOAD PUSH1 0xE0 SHR DUP1 PUSH4 0x2E64CEC1 EQ PUSH2 0x3B JUMPI DUP1 PUSH4 0x6057361D EQ PUSH2 0x59 JUMPI JUMPDEST PUSH1 0x0 DUP1 REVERT JUMPDEST PUSH2 0x43 PUSH2 0x89 JUMP JUMPDEST PUSH1 0x40 MLOAD PUSH2 0x50 SWAP2 SWAP1 PUSH2 0x102 JUMP JUMPDEST PUSH1 0x40 MLOAD DUP1 SWAP2 SUB SWAP1 RETURN JUMPDEST PUSH2 0x73 PUSH1 0x4 DUP1 CALLDATASIZE SUB DUP2 ADD SWAP1 PUSH2 0x6E SWAP2 SWAP1 PUSH2 0xC6 JUMP JUMPDEST PUSH2 0x92 JUMP JUMPDEST PUSH1 0x40 MLOAD PUSH2 0x80 SWAP2 SWAP1 PUSH2 0x102 JUMP JUMPDEST PUSH1 0x40 MLOAD DUP1 SWAP2 SUB SWAP1 RETURN JUMPDEST PUSH1 0x0 DUP1 SLOAD SWAP1 POP SWAP1 JUMP JUMPDEST PUSH1 0x0 PUSH1 0x1 DUP3 PUSH2 0xA1 SWAP2 SWAP1 PUSH2 0x11D JUMP JUMPDEST PUSH1 0x0 DUP2 SWAP1 SSTORE POP PUSH1 0x0 SLOAD SWAP1 POP SWAP2 SWAP1 POP JUMP JUMPDEST PUSH1 0x0 DUP2 CALLDATALOAD SWAP1 POP PUSH2 0xC0 DUP2 PUSH2 0x1B1 JUMP JUMPDEST SWAP3 SWAP2 POP POP JUMP JUMPDEST PUSH1 0x0 PUSH1 0x20 DUP3 DUP5 SUB SLT ISZERO PUSH2 0xDC JUMPI PUSH2 0xDB PUSH2 0x1AC JUMP JUMPDEST JUMPDEST PUSH1 0x0 PUSH2 0xEA DUP5 DUP3 DUP6 ADD PUSH2 0xB1 JUMP JUMPDEST SWAP2 POP POP SWAP3 SWAP2 POP POP JUMP JUMPDEST PUSH2 0xFC DUP2 PUSH2 0x173 JUMP JUMPDEST DUP3 MSTORE POP POP JUMP JUMPDEST PUSH1 0x0 PUSH1 0x20 DUP3 ADD SWAP1 POP PUSH2 0x117 PUSH1 0x0 DUP4 ADD DUP5 PUSH2 0xF3 JUMP JUMPDEST SWAP3 SWAP2 POP POP JUMP JUMPDEST PUSH1 0x0 PUSH2 0x128 DUP3 PUSH2 0x173 JUMP JUMPDEST SWAP2 POP PUSH2 0x133 DUP4 PUSH2 0x173 JUMP JUMPDEST SWAP3 POP DUP3 PUSH32 0xFFFFFFFFFFFFFFFFFFFFFFFFFFFFFFFFFFFFFFFFFFFFFFFFFFFFFFFFFFFFFFFF SUB DUP3 GT ISZERO PUSH2 0x168 JUMPI PUSH2 0x167 PUSH2 0x17D JUMP JUMPDEST JUMPDEST DUP3 DUP3 ADD SWAP1 POP SWAP3 SWAP2 POP POP JUMP JUMPDEST PUSH1 0x0 DUP2 SWAP1 POP SWAP2 SWAP1 POP JUMP JUMPDEST PUSH32 0x4E487B7100000000000000000000000000000000000000000000000000000000 PUSH1 0x0 MSTORE PUSH1 0x11 PUSH1 0x4 MSTORE PUSH1 0x24 PUSH1 0x0 REVERT JUMPDEST PUSH1 0x0 DUP1 REVERT JUMPDEST PUSH2 0x1BA DUP2 PUSH2 0x173 JUMP JUMPDEST DUP2 EQ PUSH2 0x1C5 JUMPI PUSH1 0x0 DUP1 REVERT JUMPDEST POP JUMP INVALID LOG2 PUSH5 0x6970667358 0x22 SLT KECCAK256 DUP11 0xC8 0xAA 0x5C 0xD CALLDATALOAD DUP15 JUMP 0xEA 0xEA 0xC2 MOD DUP2 STATICCALL BYTE KECCAK256 SWAP14 0x5F PUSH11 0x767568285FCBD589676711 0xEA SWAP7 PUSH5 0x736F6C6343 STOP ADDMOD SMOD STOP CALLER "
	},
	"abi": [
		{
			"inputs": [],
			"stateMutability": "nonpayable",
			"type": "constructor"
		},
		{
			"inputs": [
				{
					"internalType": "uint256",
					"name": "num",
					"type": "uint256"
				}
			],
			"name": "fix_call_store",
			"outputs": [
				{
					"internalType": "uint256",
					"name": "",
					"type": "uint256"
				}
			],
			"stateMutability": "nonpayable",
			"type": "function"
		}
	],
	"storageLayout": {
		"storage": [
			{
				"astId": 33,
				"contract": "contracts/fix_multi_call/Caller_main.sol:Caller_main",
				"label": "number",
				"offset": 0,
				"slot": "0",
				"type": "t_uint256"
			},
			{
				"astId": 35,
				"contract": "contracts/fix_multi_call/Caller_main.sol:Caller_main",
				"label": "addr",
				"offset": 0,
				"slot": "1",
				"type": "t_address"
			},
			{
				"astId": 38,
				"contract": "contracts/fix_multi_call/Caller_main.sol:Caller_main",
				"label": "sub",
				"offset": 0,
				"slot": "2",
				"type": "t_contract(Callee_sub)28"
			}
		],
		"types": {
			"t_address": {
				"encoding": "inplace",
				"label": "address",
				"numberOfBytes": "20"
			},
			"t_contract(Callee_sub)28": {
				"encoding": "inplace",
				"label": "contract Callee_sub",
				"numberOfBytes": "20"
			},
			"t_uint256": {
				"encoding": "inplace",
				"label": "uint256",
				"numberOfBytes": "32"
			}
		}
	},
	"web3Deploy": "var caller_mainContract = new web3.eth.Contract([{\"inputs\":[],\"stateMutability\":\"nonpayable\",\"type\":\"constructor\"},{\"inputs\":[{\"internalType\":\"uint256\",\"name\":\"num\",\"type\":\"uint256\"}],\"name\":\"fix_call_store\",\"outputs\":[{\"internalType\":\"uint256\",\"name\":\"\",\"type\":\"uint256\"}],\"stateMutability\":\"nonpayable\",\"type\":\"function\"}]);\nvar caller_main = caller_mainContract.deploy({\n     data: '0x608060405234801561001057600080fd5b5060405161001d9061007f565b604051809103906000f080158015610039573d6000803e3d6000fd5b50600260006101000a81548173ffffffffffffffffffffffffffffffffffffffff021916908373ffffffffffffffffffffffffffffffffffffffff16021790555061008c565b61021e806102bb83390190565b6102208061009b6000396000f3fe608060405234801561001057600080fd5b506004361061002b5760003560e01c8063d324082e14610030575b600080fd5b61004a60048036038101906100459190610140565b610060565b60405161005791906101a9565b60405180910390f35b6000600260009054906101000a900473ffffffffffffffffffffffffffffffffffffffff1673ffffffffffffffffffffffffffffffffffffffff16636057361d836040518263ffffffff1660e01b81526004016100bd91906101a9565b602060405180830381600087803b1580156100d757600080fd5b505af11580156100eb573d6000803e3d6000fd5b505050506040513d601f19601f8201168201806040525081019061010f919061016d565b9050919050565b600081359050610125816101d3565b92915050565b60008151905061013a816101d3565b92915050565b600060208284031215610156576101556101ce565b5b600061016484828501610116565b91505092915050565b600060208284031215610183576101826101ce565b5b60006101918482850161012b565b91505092915050565b6101a3816101c4565b82525050565b60006020820190506101be600083018461019a565b92915050565b6000819050919050565b600080fd5b6101dc816101c4565b81146101e757600080fd5b5056fea2646970667358221220732d1dd87f112fde4b433fe8799e2189220afba08297a9c570cd51d0abcb38f264736f6c63430008070033608060405234801561001057600080fd5b506101fe806100206000396000f3fe608060405234801561001057600080fd5b50600436106100365760003560e01c80632e64cec11461003b5780636057361d14610059575b600080fd5b610043610089565b6040516100509190610102565b60405180910390f35b610073600480360381019061006e91906100c6565b610092565b6040516100809190610102565b60405180910390f35b60008054905090565b60006001826100a1919061011d565b6000819055506000549050919050565b6000813590506100c0816101b1565b92915050565b6000602082840312156100dc576100db6101ac565b5b60006100ea848285016100b1565b91505092915050565b6100fc81610173565b82525050565b600060208201905061011760008301846100f3565b92915050565b600061012882610173565b915061013383610173565b9250827fffffffffffffffffffffffffffffffffffffffffffffffffffffffffffffffff038211156101685761016761017d565b5b828201905092915050565b6000819050919050565b7f4e487b7100000000000000000000000000000000000000000000000000000000600052601160045260246000fd5b600080fd5b6101ba81610173565b81146101c557600080fd5b5056fea26469706673582212208ac8aa5c0d358e56eaeac20681fa1a209d5f6a767568285fcbd589676711ea9664736f6c63430008070033', \n     arguments: [\n     ]\n}).send({\n     from: web3.eth.accounts[0], \n     gas: '4700000'\n   }, function (e, contract){\n    console.log(e, contract);\n    if (typeof contract.address !== 'undefined') {\n         console.log('Contract mined! address: ' + contract.address + ' transactionHash: ' + contract.transactionHash);\n    }\n })",
	"functionHashes": {
		"d324082e": "fix_call_store(uint256)"
	},
	"gasEstimates": {
		"Creation": {
			"codeDepositCost": "108800",
			"executionCost": "infinite",
			"totalCost": "infinite"
		},
		"External": {
			"fix_call_store(uint256)": "infinite"
		}
	},
	"devdoc": {
		"kind": "dev",
		"methods": {},
		"version": 1
	},
	"userdoc": {
		"kind": "user",
		"methods": {},
		"version": 1
	},
	"Runtime Bytecode": {
		"immutableReferences": {},
		"linkReferences": {},
		"object": "608060405234801561001057600080fd5b506004361061002b5760003560e01c8063d324082e14610030575b600080fd5b61004a60048036038101906100459190610140565b610060565b60405161005791906101a9565b60405180910390f35b6000600260009054906101000a900473ffffffffffffffffffffffffffffffffffffffff1673ffffffffffffffffffffffffffffffffffffffff16636057361d836040518263ffffffff1660e01b81526004016100bd91906101a9565b602060405180830381600087803b1580156100d757600080fd5b505af11580156100eb573d6000803e3d6000fd5b505050506040513d601f19601f8201168201806040525081019061010f919061016d565b9050919050565b600081359050610125816101d3565b92915050565b60008151905061013a816101d3565b92915050565b600060208284031215610156576101556101ce565b5b600061016484828501610116565b91505092915050565b600060208284031215610183576101826101ce565b5b60006101918482850161012b565b91505092915050565b6101a3816101c4565b82525050565b60006020820190506101be600083018461019a565b92915050565b6000819050919050565b600080fd5b6101dc816101c4565b81146101e757600080fd5b5056fea2646970667358221220732d1dd87f112fde4b433fe8799e2189220afba08297a9c570cd51d0abcb38f264736f6c63430008070033",
		"opcodes": "PUSH1 0x80 PUSH1 0x40 MSTORE CALLVALUE DUP1 ISZERO PUSH2 0x10 JUMPI PUSH1 0x0 DUP1 REVERT JUMPDEST POP PUSH1 0x4 CALLDATASIZE LT PUSH2 0x2B JUMPI PUSH1 0x0 CALLDATALOAD PUSH1 0xE0 SHR DUP1 PUSH4 0xD324082E EQ PUSH2 0x30 JUMPI JUMPDEST PUSH1 0x0 DUP1 REVERT JUMPDEST PUSH2 0x4A PUSH1 0x4 DUP1 CALLDATASIZE SUB DUP2 ADD SWAP1 PUSH2 0x45 SWAP2 SWAP1 PUSH2 0x140 JUMP JUMPDEST PUSH2 0x60 JUMP JUMPDEST PUSH1 0x40 MLOAD PUSH2 0x57 SWAP2 SWAP1 PUSH2 0x1A9 JUMP JUMPDEST PUSH1 0x40 MLOAD DUP1 SWAP2 SUB SWAP1 RETURN JUMPDEST PUSH1 0x0 PUSH1 0x2 PUSH1 0x0 SWAP1 SLOAD SWAP1 PUSH2 0x100 EXP SWAP1 DIV PUSH20 0xFFFFFFFFFFFFFFFFFFFFFFFFFFFFFFFFFFFFFFFF AND PUSH20 0xFFFFFFFFFFFFFFFFFFFFFFFFFFFFFFFFFFFFFFFF AND PUSH4 0x6057361D DUP4 PUSH1 0x40 MLOAD DUP3 PUSH4 0xFFFFFFFF AND PUSH1 0xE0 SHL DUP2 MSTORE PUSH1 0x4 ADD PUSH2 0xBD SWAP2 SWAP1 PUSH2 0x1A9 JUMP JUMPDEST PUSH1 0x20 PUSH1 0x40 MLOAD DUP1 DUP4 SUB DUP2 PUSH1 0x0 DUP8 DUP1 EXTCODESIZE ISZERO DUP1 ISZERO PUSH2 0xD7 JUMPI PUSH1 0x0 DUP1 REVERT JUMPDEST POP GAS CALL ISZERO DUP1 ISZERO PUSH2 0xEB JUMPI RETURNDATASIZE PUSH1 0x0 DUP1 RETURNDATACOPY RETURNDATASIZE PUSH1 0x0 REVERT JUMPDEST POP POP POP POP PUSH1 0x40 MLOAD RETURNDATASIZE PUSH1 0x1F NOT PUSH1 0x1F DUP3 ADD AND DUP3 ADD DUP1 PUSH1 0x40 MSTORE POP DUP2 ADD SWAP1 PUSH2 0x10F SWAP2 SWAP1 PUSH2 0x16D JUMP JUMPDEST SWAP1 POP SWAP2 SWAP1 POP JUMP JUMPDEST PUSH1 0x0 DUP2 CALLDATALOAD SWAP1 POP PUSH2 0x125 DUP2 PUSH2 0x1D3 JUMP JUMPDEST SWAP3 SWAP2 POP POP JUMP JUMPDEST PUSH1 0x0 DUP2 MLOAD SWAP1 POP PUSH2 0x13A DUP2 PUSH2 0x1D3 JUMP JUMPDEST SWAP3 SWAP2 POP POP JUMP JUMPDEST PUSH1 0x0 PUSH1 0x20 DUP3 DUP5 SUB SLT ISZERO PUSH2 0x156 JUMPI PUSH2 0x155 PUSH2 0x1CE JUMP JUMPDEST JUMPDEST PUSH1 0x0 PUSH2 0x164 DUP5 DUP3 DUP6 ADD PUSH2 0x116 JUMP JUMPDEST SWAP2 POP POP SWAP3 SWAP2 POP POP JUMP JUMPDEST PUSH1 0x0 PUSH1 0x20 DUP3 DUP5 SUB SLT ISZERO PUSH2 0x183 JUMPI PUSH2 0x182 PUSH2 0x1CE JUMP JUMPDEST JUMPDEST PUSH1 0x0 PUSH2 0x191 DUP5 DUP3 DUP6 ADD PUSH2 0x12B JUMP JUMPDEST SWAP2 POP POP SWAP3 SWAP2 POP POP JUMP JUMPDEST PUSH2 0x1A3 DUP2 PUSH2 0x1C4 JUMP JUMPDEST DUP3 MSTORE POP POP JUMP JUMPDEST PUSH1 0x0 PUSH1 0x20 DUP3 ADD SWAP1 POP PUSH2 0x1BE PUSH1 0x0 DUP4 ADD DUP5 PUSH2 0x19A JUMP JUMPDEST SWAP3 SWAP2 POP POP JUMP JUMPDEST PUSH1 0x0 DUP2 SWAP1 POP SWAP2 SWAP1 POP JUMP JUMPDEST PUSH1 0x0 DUP1 REVERT JUMPDEST PUSH2 0x1DC DUP2 PUSH2 0x1C4 JUMP JUMPDEST DUP2 EQ PUSH2 0x1E7 JUMPI PUSH1 0x0 DUP1 REVERT JUMPDEST POP JUMP INVALID LOG2 PUSH5 0x6970667358 0x22 SLT KECCAK256 PUSH20 0x2D1DD87F112FDE4B433FE8799E2189220AFBA082 SWAP8 0xA9 0xC5 PUSH17 0xCD51D0ABCB38F264736F6C634300080700 CALLER "
	},
	"Assembly": ".code\n  PUSH 80\t\t\tcontract Caller_main {\\n\\n    ...\n  PUSH 40\t\t\tcontract Caller_main {\\n\\n    ...\n  MSTORE \t\t\tcontract Caller_main {\\n\\n    ...\n  CALLVALUE \t\t\tconstructor (){\\n        sub =...\n  DUP1 \t\t\tconstructor (){\\n        sub =...\n  ISZERO \t\t\tconstructor (){\\n        sub =...\n  PUSH [tag] 1\t\t\tconstructor (){\\n        sub =...\n  JUMPI \t\t\tconstructor (){\\n        sub =...\n  PUSH 0\t\t\tconstructor (){\\n        sub =...\n  DUP1 \t\t\tconstructor (){\\n        sub =...\n  REVERT \t\t\tconstructor (){\\n        sub =...\ntag 1\t\t\tconstructor (){\\n        sub =...\n  JUMPDEST \t\t\tconstructor (){\\n        sub =...\n  POP \t\t\tconstructor (){\\n        sub =...\n  PUSH 40\t\t\tnew Callee_sub()\n  MLOAD \t\t\tnew Callee_sub()\n  PUSH [tag] 4\t\t\tnew Callee_sub()\n  SWAP1 \t\t\tnew Callee_sub()\n  PUSH [tag] 5\t\t\tnew Callee_sub()\n  JUMP [in]\t\t\tnew Callee_sub()\ntag 4\t\t\tnew Callee_sub()\n  JUMPDEST \t\t\tnew Callee_sub()\n  PUSH 40\t\t\tnew Callee_sub()\n  MLOAD \t\t\tnew Callee_sub()\n  DUP1 \t\t\tnew Callee_sub()\n  SWAP2 \t\t\tnew Callee_sub()\n  SUB \t\t\tnew Callee_sub()\n  SWAP1 \t\t\tnew Callee_sub()\n  PUSH 0\t\t\tnew Callee_sub()\n  CREATE \t\t\tnew Callee_sub()\n  DUP1 \t\t\tnew Callee_sub()\n  ISZERO \t\t\tnew Callee_sub()\n  DUP1 \t\t\tnew Callee_sub()\n  ISZERO \t\t\tnew Callee_sub()\n  PUSH [tag] 6\t\t\tnew Callee_sub()\n  JUMPI \t\t\tnew Callee_sub()\n  RETURNDATASIZE \t\t\tnew Callee_sub()\n  PUSH 0\t\t\tnew Callee_sub()\n  DUP1 \t\t\tnew Callee_sub()\n  RETURNDATACOPY \t\t\tnew Callee_sub()\n  RETURNDATASIZE \t\t\tnew Callee_sub()\n  PUSH 0\t\t\tnew Callee_sub()\n  REVERT \t\t\tnew Callee_sub()\ntag 6\t\t\tnew Callee_sub()\n  JUMPDEST \t\t\tnew Callee_sub()\n  POP \t\t\tnew Callee_sub()\n  PUSH 2\t\t\tsub\n  PUSH 0\t\t\tsub\n  PUSH 100\t\t\tsub = new Callee_sub()\n  EXP \t\t\tsub = new Callee_sub()\n  DUP2 \t\t\tsub = new Callee_sub()\n  SLOAD \t\t\tsub = new Callee_sub()\n  DUP2 \t\t\tsub = new Callee_sub()\n  PUSH FFFFFFFFFFFFFFFFFFFFFFFFFFFFFFFFFFFFFFFF\t\t\tsub = new Callee_sub()\n  MUL \t\t\tsub = new Callee_sub()\n  NOT \t\t\tsub = new Callee_sub()\n  AND \t\t\tsub = new Callee_sub()\n  SWAP1 \t\t\tsub = new Callee_sub()\n  DUP4 \t\t\tsub = new Callee_sub()\n  PUSH FFFFFFFFFFFFFFFFFFFFFFFFFFFFFFFFFFFFFFFF\t\t\tsub = new Callee_sub()\n  AND \t\t\tsub = new Callee_sub()\n  MUL \t\t\tsub = new Callee_sub()\n  OR \t\t\tsub = new Callee_sub()\n  SWAP1 \t\t\tsub = new Callee_sub()\n  SSTORE \t\t\tsub = new Callee_sub()\n  POP \t\t\tsub = new Callee_sub()\n  PUSH [tag] 7\t\t\tcontract Caller_main {\\n\\n    ...\n  JUMP \t\t\tcontract Caller_main {\\n\\n    ...\ntag 5\t\t\tcontract Caller_main {\\n\\n    ...\n  JUMPDEST \t\t\tcontract Caller_main {\\n\\n    ...\n  PUSH #[$] 0000000000000000000000000000000000000000000000000000000000000001\t\t\tcontract Caller_main {\\n\\n    ...\n  DUP1 \t\t\tcontract Caller_main {\\n\\n    ...\n  PUSH [$] 0000000000000000000000000000000000000000000000000000000000000001\t\t\tcontract Caller_main {\\n\\n    ...\n  DUP4 \t\t\tcontract Caller_main {\\n\\n    ...\n  CODECOPY \t\t\tcontract Caller_main {\\n\\n    ...\n  ADD \t\t\tcontract Caller_main {\\n\\n    ...\n  SWAP1 \t\t\tcontract Caller_main {\\n\\n    ...\n  JUMP [out]\t\t\tcontract Caller_main {\\n\\n    ...\ntag 7\t\t\tcontract Caller_main {\\n\\n    ...\n  JUMPDEST \t\t\tcontract Caller_main {\\n\\n    ...\n  PUSH #[$] 0000000000000000000000000000000000000000000000000000000000000000\t\t\tcontract Caller_main {\\n\\n    ...\n  DUP1 \t\t\tcontract Caller_main {\\n\\n    ...\n  PUSH [$] 0000000000000000000000000000000000000000000000000000000000000000\t\t\tcontract Caller_main {\\n\\n    ...\n  PUSH 0\t\t\tcontract Caller_main {\\n\\n    ...\n  CODECOPY \t\t\tcontract Caller_main {\\n\\n    ...\n  PUSH 0\t\t\tcontract Caller_main {\\n\\n    ...\n  RETURN \t\t\tcontract Caller_main {\\n\\n    ...\n.data\n  0:\n    .code\n      PUSH 80\t\t\tcontract Caller_main {\\n\\n    ...\n      PUSH 40\t\t\tcontract Caller_main {\\n\\n    ...\n      MSTORE \t\t\tcontract Caller_main {\\n\\n    ...\n      CALLVALUE \t\t\tcontract Caller_main {\\n\\n    ...\n      DUP1 \t\t\tcontract Caller_main {\\n\\n    ...\n      ISZERO \t\t\tcontract Caller_main {\\n\\n    ...\n      PUSH [tag] 1\t\t\tcontract Caller_main {\\n\\n    ...\n      JUMPI \t\t\tcontract Caller_main {\\n\\n    ...\n      PUSH 0\t\t\tcontract Caller_main {\\n\\n    ...\n      DUP1 \t\t\tcontract Caller_main {\\n\\n    ...\n      REVERT \t\t\tcontract Caller_main {\\n\\n    ...\n    tag 1\t\t\tcontract Caller_main {\\n\\n    ...\n      JUMPDEST \t\t\tcontract Caller_main {\\n\\n    ...\n      POP \t\t\tcontract Caller_main {\\n\\n    ...\n      PUSH 4\t\t\tcontract Caller_main {\\n\\n    ...\n      CALLDATASIZE \t\t\tcontract Caller_main {\\n\\n    ...\n      LT \t\t\tcontract Caller_main {\\n\\n    ...\n      PUSH [tag] 2\t\t\tcontract Caller_main {\\n\\n    ...\n      JUMPI \t\t\tcontract Caller_main {\\n\\n    ...\n      PUSH 0\t\t\tcontract Caller_main {\\n\\n    ...\n      CALLDATALOAD \t\t\tcontract Caller_main {\\n\\n    ...\n      PUSH E0\t\t\tcontract Caller_main {\\n\\n    ...\n      SHR \t\t\tcontract Caller_main {\\n\\n    ...\n      DUP1 \t\t\tcontract Caller_main {\\n\\n    ...\n      PUSH D324082E\t\t\tcontract Caller_main {\\n\\n    ...\n      EQ \t\t\tcontract Caller_main {\\n\\n    ...\n      PUSH [tag] 3\t\t\tcontract Caller_main {\\n\\n    ...\n      JUMPI \t\t\tcontract Caller_main {\\n\\n    ...\n    tag 2\t\t\tcontract Caller_main {\\n\\n    ...\n      JUMPDEST \t\t\tcontract Caller_main {\\n\\n    ...\n      PUSH 0\t\t\tcontract Caller_main {\\n\\n    ...\n      DUP1 \t\t\tcontract Caller_main {\\n\\n    ...\n      REVERT \t\t\tcontract Caller_main {\\n\\n    ...\n    tag 3\t\t\tfunction fix_call_store(uint25...\n      JUMPDEST \t\t\tfunction fix_call_store(uint25...\n      PUSH [tag] 4\t\t\tfunction fix_call_store(uint25...\n      PUSH 4\t\t\tfunction fix_call_store(uint25...\n      DUP1 \t\t\tfunction fix_call_store(uint25...\n      CALLDATASIZE \t\t\tfunction fix_call_store(uint25...\n      SUB \t\t\tfunction fix_call_store(uint25...\n      DUP2 \t\t\tfunction fix_call_store(uint25...\n      ADD \t\t\tfunction fix_call_store(uint25...\n      SWAP1 \t\t\tfunction fix_call_store(uint25...\n      PUSH [tag] 5\t\t\tfunction fix_call_store(uint25...\n      SWAP2 \t\t\tfunction fix_call_store(uint25...\n      SWAP1 \t\t\tfunction fix_call_store(uint25...\n      PUSH [tag] 6\t\t\tfunction fix_call_store(uint25...\n      JUMP [in]\t\t\tfunction fix_call_store(uint25...\n    tag 5\t\t\tfunction fix_call_store(uint25...\n      JUMPDEST \t\t\tfunction fix_call_store(uint25...\n      PUSH [tag] 7\t\t\tfunction fix_call_store(uint25...\n      JUMP [in]\t\t\tfunction fix_call_store(uint25...\n    tag 4\t\t\tfunction fix_call_store(uint25...\n      JUMPDEST \t\t\tfunction fix_call_store(uint25...\n      PUSH 40\t\t\tfunction fix_call_store(uint25...\n      MLOAD \t\t\tfunction fix_call_store(uint25...\n      PUSH [tag] 8\t\t\tfunction fix_call_store(uint25...\n      SWAP2 \t\t\tfunction fix_call_store(uint25...\n      SWAP1 \t\t\tfunction fix_call_store(uint25...\n      PUSH [tag] 9\t\t\tfunction fix_call_store(uint25...\n      JUMP [in]\t\t\tfunction fix_call_store(uint25...\n    tag 8\t\t\tfunction fix_call_store(uint25...\n      JUMPDEST \t\t\tfunction fix_call_store(uint25...\n      PUSH 40\t\t\tfunction fix_call_store(uint25...\n      MLOAD \t\t\tfunction fix_call_store(uint25...\n      DUP1 \t\t\tfunction fix_call_store(uint25...\n      SWAP2 \t\t\tfunction fix_call_store(uint25...\n      SUB \t\t\tfunction fix_call_store(uint25...\n      SWAP1 \t\t\tfunction fix_call_store(uint25...\n      RETURN \t\t\tfunction fix_call_store(uint25...\n    tag 7\t\t\tfunction fix_call_store(uint25...\n      JUMPDEST \t\t\tfunction fix_call_store(uint25...\n      PUSH 0\t\t\tuint256\n      PUSH 2\t\t\tsub\n      PUSH 0\t\t\tsub\n      SWAP1 \t\t\tsub\n      SLOAD \t\t\tsub\n      SWAP1 \t\t\tsub\n      PUSH 100\t\t\tsub\n      EXP \t\t\tsub\n      SWAP1 \t\t\tsub\n      DIV \t\t\tsub\n      PUSH FFFFFFFFFFFFFFFFFFFFFFFFFFFFFFFFFFFFFFFF\t\t\tsub\n      AND \t\t\tsub\n      PUSH FFFFFFFFFFFFFFFFFFFFFFFFFFFFFFFFFFFFFFFF\t\t\tsub.store\n      AND \t\t\tsub.store\n      PUSH 6057361D\t\t\tsub.store\n      DUP4 \t\t\tnum\n      PUSH 40\t\t\tsub.store(num)\n      MLOAD \t\t\tsub.store(num)\n      DUP3 \t\t\tsub.store(num)\n      PUSH FFFFFFFF\t\t\tsub.store(num)\n      AND \t\t\tsub.store(num)\n      PUSH E0\t\t\tsub.store(num)\n      SHL \t\t\tsub.store(num)\n      DUP2 \t\t\tsub.store(num)\n      MSTORE \t\t\tsub.store(num)\n      PUSH 4\t\t\tsub.store(num)\n      ADD \t\t\tsub.store(num)\n      PUSH [tag] 11\t\t\tsub.store(num)\n      SWAP2 \t\t\tsub.store(num)\n      SWAP1 \t\t\tsub.store(num)\n      PUSH [tag] 9\t\t\tsub.store(num)\n      JUMP [in]\t\t\tsub.store(num)\n    tag 11\t\t\tsub.store(num)\n      JUMPDEST \t\t\tsub.store(num)\n      PUSH 20\t\t\tsub.store(num)\n      PUSH 40\t\t\tsub.store(num)\n      MLOAD \t\t\tsub.store(num)\n      DUP1 \t\t\tsub.store(num)\n      DUP4 \t\t\tsub.store(num)\n      SUB \t\t\tsub.store(num)\n      DUP2 \t\t\tsub.store(num)\n      PUSH 0\t\t\tsub.store(num)\n      DUP8 \t\t\tsub.store(num)\n      DUP1 \t\t\tsub.store(num)\n      EXTCODESIZE \t\t\tsub.store(num)\n      ISZERO \t\t\tsub.store(num)\n      DUP1 \t\t\tsub.store(num)\n      ISZERO \t\t\tsub.store(num)\n      PUSH [tag] 12\t\t\tsub.store(num)\n      JUMPI \t\t\tsub.store(num)\n      PUSH 0\t\t\tsub.store(num)\n      DUP1 \t\t\tsub.store(num)\n      REVERT \t\t\tsub.store(num)\n    tag 12\t\t\tsub.store(num)\n      JUMPDEST \t\t\tsub.store(num)\n      POP \t\t\tsub.store(num)\n      GAS \t\t\tsub.store(num)\n      CALL \t\t\tsub.store(num)\n      ISZERO \t\t\tsub.store(num)\n      DUP1 \t\t\tsub.store(num)\n      ISZERO \t\t\tsub.store(num)\n      PUSH [tag] 14\t\t\tsub.store(num)\n      JUMPI \t\t\tsub.store(num)\n      RETURNDATASIZE \t\t\tsub.store(num)\n      PUSH 0\t\t\tsub.store(num)\n      DUP1 \t\t\tsub.store(num)\n      RETURNDATACOPY \t\t\tsub.store(num)\n      RETURNDATASIZE \t\t\tsub.store(num)\n      PUSH 0\t\t\tsub.store(num)\n      REVERT \t\t\tsub.store(num)\n    tag 14\t\t\tsub.store(num)\n      JUMPDEST \t\t\tsub.store(num)\n      POP \t\t\tsub.store(num)\n      POP \t\t\tsub.store(num)\n      POP \t\t\tsub.store(num)\n      POP \t\t\tsub.store(num)\n      PUSH 40\t\t\tsub.store(num)\n      MLOAD \t\t\tsub.store(num)\n      RETURNDATASIZE \t\t\tsub.store(num)\n      PUSH 1F\t\t\tsub.store(num)\n      NOT \t\t\tsub.store(num)\n      PUSH 1F\t\t\tsub.store(num)\n      DUP3 \t\t\tsub.store(num)\n      ADD \t\t\tsub.store(num)\n      AND \t\t\tsub.store(num)\n      DUP3 \t\t\tsub.store(num)\n      ADD \t\t\tsub.store(num)\n      DUP1 \t\t\tsub.store(num)\n      PUSH 40\t\t\tsub.store(num)\n      MSTORE \t\t\tsub.store(num)\n      POP \t\t\tsub.store(num)\n      DUP2 \t\t\tsub.store(num)\n      ADD \t\t\tsub.store(num)\n      SWAP1 \t\t\tsub.store(num)\n      PUSH [tag] 15\t\t\tsub.store(num)\n      SWAP2 \t\t\tsub.store(num)\n      SWAP1 \t\t\tsub.store(num)\n      PUSH [tag] 16\t\t\tsub.store(num)\n      JUMP [in]\t\t\tsub.store(num)\n    tag 15\t\t\tsub.store(num)\n      JUMPDEST \t\t\tsub.store(num)\n      SWAP1 \t\t\treturn sub.store(num)\n      POP \t\t\treturn sub.store(num)\n      SWAP2 \t\t\tfunction fix_call_store(uint25...\n      SWAP1 \t\t\tfunction fix_call_store(uint25...\n      POP \t\t\tfunction fix_call_store(uint25...\n      JUMP [out]\t\t\tfunction fix_call_store(uint25...\n    tag 18\t\t\t-License-Identifier: GPL-3.0\\n...\n      JUMPDEST \t\t\t-License-Identifier: GPL-3.0\\n...\n      PUSH 0\t\t\t>=0.8\n      DUP2 \t\t\tb {\\n\\n/\n      CALLDATALOAD \t\t\tact Callee_sub {\\n\\n//\n      SWAP1 \t\t\t\\n// contract Callee_sub {\\n\\n...\n      POP \t\t\t\\n// contract Callee_sub {\\n\\n...\n      PUSH [tag] 20\t\t\t256 number;\\n//     function s...\n      DUP2 \t\t\t stor\n      PUSH [tag] 21\t\t\t256 number;\\n//     function s...\n      JUMP [in]\t\t\t256 number;\\n//     function s...\n    tag 20\t\t\t256 number;\\n//     function s...\n      JUMPDEST \t\t\t256 number;\\n//     function s...\n      SWAP3 \t\t\t-License-Identifier: GPL-3.0\\n...\n      SWAP2 \t\t\t-License-Identifier: GPL-3.0\\n...\n      POP \t\t\t-License-Identifier: GPL-3.0\\n...\n      POP \t\t\t-License-Identifier: GPL-3.0\\n...\n      JUMP [out]\t\t\t-License-Identifier: GPL-3.0\\n...\n    tag 22\t\t\t) public {}\\n//     function r...\n      JUMPDEST \t\t\t) public {}\\n//     function r...\n      PUSH 0\t\t\tnt256\n      DUP2 \t\t\ts/fix_\n      MLOAD \t\t\tntracts/fix_m\n      SWAP1 \t\t\tmport \"contracts/fix_m\n      POP \t\t\tmport \"contracts/fix_m\n      PUSH [tag] 24\t\t\t/Callee_sub.sol\";\\n\\ncontract ...\n      DUP2 \t\t\t Call\n      PUSH [tag] 21\t\t\t/Callee_sub.sol\";\\n\\ncontract ...\n      JUMP [in]\t\t\t/Callee_sub.sol\";\\n\\ncontract ...\n    tag 24\t\t\t/Callee_sub.sol\";\\n\\ncontract ...\n      JUMPDEST \t\t\t/Callee_sub.sol\";\\n\\ncontract ...\n      SWAP3 \t\t\t) public {}\\n//     function r...\n      SWAP2 \t\t\t) public {}\\n//     function r...\n      POP \t\t\t) public {}\\n//     function r...\n      POP \t\t\t) public {}\\n//     function r...\n      JUMP [out]\t\t\t) public {}\\n//     function r...\n    tag 6\t\t\t  uint256 number;\\n    address...\n      JUMPDEST \t\t\t  uint256 number;\\n    address...\n      PUSH 0\t\t\t  cons\n      PUSH 20\t\t\t\\n \n      DUP3 \t\t\tallee_sub\n      DUP5 \t\t\tb = new\n      SUB \t\t\t  sub = new Callee_sub(\n      SLT \t\t\t      sub = new Callee_sub();\\...\n      ISZERO \t\t\t\\n        sub = new Callee_sub...\n      PUSH [tag] 26\t\t\t\\n        sub = new Callee_sub...\n      JUMPI \t\t\t\\n        sub = new Callee_sub...\n      PUSH [tag] 27\t\t\t\\n    \\n    function fix_call_...\n      PUSH [tag] 28\t\t\t\\n    \\n    function fix_call_...\n      JUMP [in]\t\t\t\\n    \\n    function fix_call_...\n    tag 27\t\t\t\\n    \\n    function fix_call_...\n      JUMPDEST \t\t\t\\n    \\n    function fix_call_...\n    tag 26\t\t\t\\n        sub = new Callee_sub...\n      JUMPDEST \t\t\t\\n        sub = new Callee_sub...\n      PUSH 0\t\t\tn\n      PUSH [tag] 29\t\t\t public {\\n    //     number =...\n      DUP5 \t\t\t    // \n      DUP3 \t\t\t   // \n      DUP6 \t\t\ter = num;\n      ADD \t\t\tnumber = num;\\n    // }\n      PUSH [tag] 18\t\t\t public {\\n    //     number =...\n      JUMP [in]\t\t\t public {\\n    //     number =...\n    tag 29\t\t\t public {\\n    //     number =...\n      JUMPDEST \t\t\t public {\\n    //     number =...\n      SWAP2 \t\t\tnt256 num) public {\\n    //   ...\n      POP \t\t\tnt256 num) public {\\n    //   ...\n      POP \t\t\t.store(num);\\n    }\\n\\n    // ...\n      SWAP3 \t\t\t  uint256 number;\\n    address...\n      SWAP2 \t\t\t  uint256 number;\\n    address...\n      POP \t\t\t  uint256 number;\\n    address...\n      POP \t\t\t  uint256 number;\\n    address...\n      JUMP [out]\t\t\t  uint256 number;\\n    address...\n    tag 16\t\t\tic returns (uint256){\\n    // ...\n      JUMPDEST \t\t\tic returns (uint256){\\n    // ...\n      PUSH 0\t\t\t留着的\\n  \n      PUSH 20\t\t\tsu\n      DUP3 \t\t\tBI(addres\n      DUP5 \t\t\twithout\n      SUB \t\t\tall_without_ABI(address\n      SLT \t\t\ton call_without_ABI(address _s...\n      ISZERO \t\t\tction call_without_ABI(address...\n      PUSH [tag] 31\t\t\tction call_without_ABI(address...\n      JUMPI \t\t\tction call_without_ABI(address...\n      PUSH [tag] 32\t\t\ttring memory func_name, uint f...\n      PUSH [tag] 28\t\t\ttring memory func_name, uint f...\n      JUMP [in]\t\t\ttring memory func_name, uint f...\n    tag 32\t\t\ttring memory func_name, uint f...\n      JUMPDEST \t\t\ttring memory func_name, uint f...\n    tag 31\t\t\tction call_without_ABI(address...\n      JUMPDEST \t\t\tction call_without_ABI(address...\n      PUSH 0\t\t\t \n      PUSH [tag] 33\t\t\t     _calldata = abi.encodeWit...\n      DUP5 \t\t\t_para);\n      DUP3 \t\t\tame, f\n      DUP6 \t\t\tture(func\n      ADD \t\t\tignature(func_name, fu\n      PUSH [tag] 22\t\t\t     _calldata = abi.encodeWit...\n      JUMP [in]\t\t\t     _calldata = abi.encodeWit...\n    tag 33\t\t\t     _calldata = abi.encodeWit...\n      JUMPDEST \t\t\t     _calldata = abi.encodeWit...\n      SWAP2 \t\t\t\\n    // //     _calldata = ab...\n      POP \t\t\t\\n    // //     _calldata = ab...\n      POP \t\t\tmemory _calldata;\\n    // //  ...\n      SWAP3 \t\t\tic returns (uint256){\\n    // ...\n      SWAP2 \t\t\tic returns (uint256){\\n    // ...\n      POP \t\t\tic returns (uint256){\\n    // ...\n      POP \t\t\tic returns (uint256){\\n    // ...\n      JUMP [out]\t\t\tic returns (uint256){\\n    // ...\n    tag 34\t\t\t(_calldata);\\n    // //     re...\n      JUMPDEST \t\t\t(_calldata);\\n    // //     re...\n      PUSH [tag] 36\t\t\t(address _sub, string me\n      DUP2 \t\t\ting m\n      PUSH [tag] 37\t\t\t(address _sub, string me\n      JUMP [in]\t\t\t(address _sub, string me\n    tag 36\t\t\t(address _sub, string me\n      JUMPDEST \t\t\t(address _sub, string me\n      DUP3 \t\t\th_A\n      MSTORE \t\t\tall_with_ABI(address _sub, str...\n      POP \t\t\t(_calldata);\\n    // //     re...\n      POP \t\t\t(_calldata);\\n    // //     re...\n      JUMP [out]\t\t\t(_calldata);\\n    // //     re...\n    tag 9\t\t\te, uint func_para) public retu...\n      JUMPDEST \t\t\te, uint func_para) public retu...\n      PUSH 0\t\t\tllee\n      PUSH 20\t\t\tri\n      DUP3 \t\t\tif (sub.r\n      ADD \t\t\t    if (sub.retrie\n      SWAP1 \t\t\t\\n    //     if (sub.retrie\n      POP \t\t\t\\n    //     if (sub.retrie\n      PUSH [tag] 39\t\t\t{\\n    //         return false...\n      PUSH 0\t\t\t \n      DUP4 \t\t\tturn true\n      ADD \t\t\t  return true;\\n  \n      DUP5 \t\t\t    //\n      PUSH [tag] 34\t\t\t{\\n    //         return false...\n      JUMP [in]\t\t\t{\\n    //         return false...\n    tag 39\t\t\t{\\n    //         return false...\n      JUMPDEST \t\t\t{\\n    //         return false...\n      SWAP3 \t\t\te, uint func_para) public retu...\n      SWAP2 \t\t\te, uint func_para) public retu...\n      POP \t\t\te, uint func_para) public retu...\n      POP \t\t\te, uint func_para) public retu...\n      JUMP [out]\t\t\te, uint func_para) public retu...\n    tag 37\t\t\t\n      JUMPDEST \t\t\t\n      PUSH 0\t\t\t\n      DUP2 \t\t\t\n      SWAP1 \t\t\t\n      POP \t\t\t\n      SWAP2 \t\t\t\n      SWAP1 \t\t\t\n      POP \t\t\t\n      JUMP [out]\t\t\t\n    tag 28\t\t\t\n      JUMPDEST \t\t\t\n      PUSH 0\t\t\t\n      DUP1 \t\t\t\n      REVERT \t\t\t\n    tag 21\t\t\t\n      JUMPDEST \t\t\t\n      PUSH [tag] 47\t\t\t\n      DUP2 \t\t\t\n      PUSH [tag] 37\t\t\t\n      JUMP [in]\t\t\t\n    tag 47\t\t\t\n      JUMPDEST \t\t\t\n      DUP2 \t\t\t\n      EQ \t\t\t\n      PUSH [tag] 48\t\t\t\n      JUMPI \t\t\t\n      PUSH 0\t\t\t\n      DUP1 \t\t\t\n      REVERT \t\t\t\n    tag 48\t\t\t\n      JUMPDEST \t\t\t\n      POP \t\t\t\n      JUMP [out]\t\t\t\n    .data\n  1:\n    .code\n      PUSH 80\t\t\t/ contract Callee_sub {\\n\\n// ...\n      PUSH 40\t\t\t/ contract Callee_sub {\\n\\n// ...\n      MSTORE \t\t\t/ contract Callee_sub {\\n\\n// ...\n      CALLVALUE \t\t\t/ contract Callee_sub {\\n\\n// ...\n      DUP1 \t\t\t/ contract Callee_sub {\\n\\n// ...\n      ISZERO \t\t\t/ contract Callee_sub {\\n\\n// ...\n      PUSH [tag] 1\t\t\t/ contract Callee_sub {\\n\\n// ...\n      JUMPI \t\t\t/ contract Callee_sub {\\n\\n// ...\n      PUSH 0\t\t\t/ contract Callee_sub {\\n\\n// ...\n      DUP1 \t\t\t/ contract Callee_sub {\\n\\n// ...\n      REVERT \t\t\t/ contract Callee_sub {\\n\\n// ...\n    tag 1\t\t\t/ contract Callee_sub {\\n\\n// ...\n      JUMPDEST \t\t\t/ contract Callee_sub {\\n\\n// ...\n      POP \t\t\t/ contract Callee_sub {\\n\\n// ...\n      PUSH #[$] 0000000000000000000000000000000000000000000000000000000000000000\t\t\t/ contract Callee_sub {\\n\\n// ...\n      DUP1 \t\t\t/ contract Callee_sub {\\n\\n// ...\n      PUSH [$] 0000000000000000000000000000000000000000000000000000000000000000\t\t\t/ contract Callee_sub {\\n\\n// ...\n      PUSH 0\t\t\t/ contract Callee_sub {\\n\\n// ...\n      CODECOPY \t\t\t/ contract Callee_sub {\\n\\n// ...\n      PUSH 0\t\t\t/ contract Callee_sub {\\n\\n// ...\n      RETURN \t\t\t/ contract Callee_sub {\\n\\n// ...\n    .data\n      0:\n        .code\n          PUSH 80\t\t\t/ contract Callee_sub {\\n\\n// ...\n          PUSH 40\t\t\t/ contract Callee_sub {\\n\\n// ...\n          MSTORE \t\t\t/ contract Callee_sub {\\n\\n// ...\n          CALLVALUE \t\t\t/ contract Callee_sub {\\n\\n// ...\n          DUP1 \t\t\t/ contract Callee_sub {\\n\\n// ...\n          ISZERO \t\t\t/ contract Callee_sub {\\n\\n// ...\n          PUSH [tag] 1\t\t\t/ contract Callee_sub {\\n\\n// ...\n          JUMPI \t\t\t/ contract Callee_sub {\\n\\n// ...\n          PUSH 0\t\t\t/ contract Callee_sub {\\n\\n// ...\n          DUP1 \t\t\t/ contract Callee_sub {\\n\\n// ...\n          REVERT \t\t\t/ contract Callee_sub {\\n\\n// ...\n        tag 1\t\t\t/ contract Callee_sub {\\n\\n// ...\n          JUMPDEST \t\t\t/ contract Callee_sub {\\n\\n// ...\n          POP \t\t\t/ contract Callee_sub {\\n\\n// ...\n          PUSH 4\t\t\t/ contract Callee_sub {\\n\\n// ...\n          CALLDATASIZE \t\t\t/ contract Callee_sub {\\n\\n// ...\n          LT \t\t\t/ contract Callee_sub {\\n\\n// ...\n          PUSH [tag] 2\t\t\t/ contract Callee_sub {\\n\\n// ...\n          JUMPI \t\t\t/ contract Callee_sub {\\n\\n// ...\n          PUSH 0\t\t\t/ contract Callee_sub {\\n\\n// ...\n          CALLDATALOAD \t\t\t/ contract Callee_sub {\\n\\n// ...\n          PUSH E0\t\t\t/ contract Callee_sub {\\n\\n// ...\n          SHR \t\t\t/ contract Callee_sub {\\n\\n// ...\n          DUP1 \t\t\t/ contract Callee_sub {\\n\\n// ...\n          PUSH 2E64CEC1\t\t\t/ contract Callee_sub {\\n\\n// ...\n          EQ \t\t\t/ contract Callee_sub {\\n\\n// ...\n          PUSH [tag] 3\t\t\t/ contract Callee_sub {\\n\\n// ...\n          JUMPI \t\t\t/ contract Callee_sub {\\n\\n// ...\n          DUP1 \t\t\t/ contract Callee_sub {\\n\\n// ...\n          PUSH 6057361D\t\t\t/ contract Callee_sub {\\n\\n// ...\n          EQ \t\t\t/ contract Callee_sub {\\n\\n// ...\n          PUSH [tag] 4\t\t\t/ contract Callee_sub {\\n\\n// ...\n          JUMPI \t\t\t/ contract Callee_sub {\\n\\n// ...\n        tag 2\t\t\t/ contract Callee_sub {\\n\\n// ...\n          JUMPDEST \t\t\t/ contract Callee_sub {\\n\\n// ...\n          PUSH 0\t\t\t/ contract Callee_sub {\\n\\n// ...\n          DUP1 \t\t\t/ contract Callee_sub {\\n\\n// ...\n          REVERT \t\t\t/ contract Callee_sub {\\n\\n// ...\n        tag 3\t\t\tntracts/fix_multi_call/Callee_...\n          JUMPDEST \t\t\tntracts/fix_multi_call/Callee_...\n          PUSH [tag] 5\t\t\tntracts/fix_multi_call/Callee_...\n          PUSH [tag] 6\t\t\tntracts/fix_multi_call/Callee_...\n          JUMP [in]\t\t\tntracts/fix_multi_call/Callee_...\n        tag 5\t\t\tntracts/fix_multi_call/Callee_...\n          JUMPDEST \t\t\tntracts/fix_multi_call/Callee_...\n          PUSH 40\t\t\tntracts/fix_multi_call/Callee_...\n          MLOAD \t\t\tntracts/fix_multi_call/Callee_...\n          PUSH [tag] 7\t\t\tntracts/fix_multi_call/Callee_...\n          SWAP2 \t\t\tntracts/fix_multi_call/Callee_...\n          SWAP1 \t\t\tntracts/fix_multi_call/Callee_...\n          PUSH [tag] 8\t\t\tntracts/fix_multi_call/Callee_...\n          JUMP [in]\t\t\tntracts/fix_multi_call/Callee_...\n        tag 7\t\t\tntracts/fix_multi_call/Callee_...\n          JUMPDEST \t\t\tntracts/fix_multi_call/Callee_...\n          PUSH 40\t\t\tntracts/fix_multi_call/Callee_...\n          MLOAD \t\t\tntracts/fix_multi_call/Callee_...\n          DUP1 \t\t\tntracts/fix_multi_call/Callee_...\n          SWAP2 \t\t\tntracts/fix_multi_call/Callee_...\n          SUB \t\t\tntracts/fix_multi_call/Callee_...\n          SWAP1 \t\t\tntracts/fix_multi_call/Callee_...\n          RETURN \t\t\tntracts/fix_multi_call/Callee_...\n        tag 4\t\t\t    function store(uint256 num...\n          JUMPDEST \t\t\t    function store(uint256 num...\n          PUSH [tag] 9\t\t\t    function store(uint256 num...\n          PUSH 4\t\t\t    function store(uint256 num...\n          DUP1 \t\t\t    function store(uint256 num...\n          CALLDATASIZE \t\t\t    function store(uint256 num...\n          SUB \t\t\t    function store(uint256 num...\n          DUP2 \t\t\t    function store(uint256 num...\n          ADD \t\t\t    function store(uint256 num...\n          SWAP1 \t\t\t    function store(uint256 num...\n          PUSH [tag] 10\t\t\t    function store(uint256 num...\n          SWAP2 \t\t\t    function store(uint256 num...\n          SWAP1 \t\t\t    function store(uint256 num...\n          PUSH [tag] 11\t\t\t    function store(uint256 num...\n          JUMP [in]\t\t\t    function store(uint256 num...\n        tag 10\t\t\t    function store(uint256 num...\n          JUMPDEST \t\t\t    function store(uint256 num...\n          PUSH [tag] 12\t\t\t    function store(uint256 num...\n          JUMP [in]\t\t\t    function store(uint256 num...\n        tag 9\t\t\t    function store(uint256 num...\n          JUMPDEST \t\t\t    function store(uint256 num...\n          PUSH 40\t\t\t    function store(uint256 num...\n          MLOAD \t\t\t    function store(uint256 num...\n          PUSH [tag] 13\t\t\t    function store(uint256 num...\n          SWAP2 \t\t\t    function store(uint256 num...\n          SWAP1 \t\t\t    function store(uint256 num...\n          PUSH [tag] 8\t\t\t    function store(uint256 num...\n          JUMP [in]\t\t\t    function store(uint256 num...\n        tag 13\t\t\t    function store(uint256 num...\n          JUMPDEST \t\t\t    function store(uint256 num...\n          PUSH 40\t\t\t    function store(uint256 num...\n          MLOAD \t\t\t    function store(uint256 num...\n          DUP1 \t\t\t    function store(uint256 num...\n          SWAP2 \t\t\t    function store(uint256 num...\n          SUB \t\t\t    function store(uint256 num...\n          SWAP1 \t\t\t    function store(uint256 num...\n          RETURN \t\t\t    function store(uint256 num...\n        tag 6\t\t\tntracts/fix_multi_call/Callee_...\n          JUMPDEST \t\t\tntracts/fix_multi_call/Callee_...\n          PUSH 0\t\t\tl\";\\n\\nco\n          DUP1 \t\t\t {\\n\\n  \n          SLOAD \t\t\t {\\n\\n  \n          SWAP1 \t\t\ter_main {\\n\\n  \n          POP \t\t\ter_main {\\n\\n  \n          SWAP1 \t\t\tntracts/fix_multi_call/Callee_...\n          JUMP [out]\t\t\tntracts/fix_multi_call/Callee_...\n        tag 12\t\t\t    function store(uint256 num...\n          JUMPDEST \t\t\t    function store(uint256 num...\n          PUSH 0\t\t\t     fu\n          PUSH 1\t\t\t \n          DUP3 \t\t\tbli\n          PUSH [tag] 16\t\t\tblic \n          SWAP2 \t\t\tblic \n          SWAP1 \t\t\tblic \n          PUSH [tag] 17\t\t\tblic \n          JUMP [in]\t\t\tblic \n        tag 16\t\t\tblic \n          JUMPDEST \t\t\tblic \n          PUSH 0\t\t\tieve()\n          DUP2 \t\t\tieve() public \n          SWAP1 \t\t\tieve() public \n          SSTORE \t\t\tieve() public \n          POP \t\t\tieve() public \n          PUSH 0\t\t\t{}\\n// \n          SLOAD \t\t\t{}\\n// \n          SWAP1 \t\t\tint256){}\\n// \n          POP \t\t\tint256){}\\n// \n          SWAP2 \t\t\t    function store(uint256 num...\n          SWAP1 \t\t\t    function store(uint256 num...\n          POP \t\t\t    function store(uint256 num...\n          JUMP [out]\t\t\t    function store(uint256 num...\n        tag 19\t\t\t-License-Identifier: GPL-3.0\\n...\n          JUMPDEST \t\t\t-License-Identifier: GPL-3.0\\n...\n          PUSH 0\t\t\t>=0.8\n          DUP2 \t\t\tb {\\n\\n/\n          CALLDATALOAD \t\t\tact Callee_sub {\\n\\n//\n          SWAP1 \t\t\t\\n// contract Callee_sub {\\n\\n...\n          POP \t\t\t\\n// contract Callee_sub {\\n\\n...\n          PUSH [tag] 21\t\t\t256 number;\\n//     function s...\n          DUP2 \t\t\t stor\n          PUSH [tag] 22\t\t\t256 number;\\n//     function s...\n          JUMP [in]\t\t\t256 number;\\n//     function s...\n        tag 21\t\t\t256 number;\\n//     function s...\n          JUMPDEST \t\t\t256 number;\\n//     function s...\n          SWAP3 \t\t\t-License-Identifier: GPL-3.0\\n...\n          SWAP2 \t\t\t-License-Identifier: GPL-3.0\\n...\n          POP \t\t\t-License-Identifier: GPL-3.0\\n...\n          POP \t\t\t-License-Identifier: GPL-3.0\\n...\n          JUMP [out]\t\t\t-License-Identifier: GPL-3.0\\n...\n        tag 11\t\t\t) public {}\\n//     function r...\n          JUMPDEST \t\t\t) public {}\\n//     function r...\n          PUSH 0\t\t\t256){}\n          PUSH 20\t\t\tle\n          DUP3 \t\t\tlti_call/\n          DUP5 \t\t\tts/fix_\n          SUB \t\t\ttracts/fix_multi_call/C\n          SLT \t\t\t\"contracts/fix_multi_call/Call...\n          ISZERO \t\t\trt \"contracts/fix_multi_call/C...\n          PUSH [tag] 24\t\t\trt \"contracts/fix_multi_call/C...\n          JUMPI \t\t\trt \"contracts/fix_multi_call/C...\n          PUSH [tag] 25\t\t\tb.sol\";\\n\\ncontract Caller_mai...\n          PUSH [tag] 26\t\t\tb.sol\";\\n\\ncontract Caller_mai...\n          JUMP [in]\t\t\tb.sol\";\\n\\ncontract Caller_mai...\n        tag 25\t\t\tb.sol\";\\n\\ncontract Caller_mai...\n          JUMPDEST \t\t\tb.sol\";\\n\\ncontract Caller_mai...\n        tag 24\t\t\trt \"contracts/fix_multi_call/C...\n          JUMPDEST \t\t\trt \"contracts/fix_multi_call/C...\n          PUSH 0\t\t\ts\n          PUSH [tag] 27\t\t\t   }\\n    \\n    function fix_c...\n          DUP5 \t\t\t num) p\n          DUP3 \t\t\te(uint\n          DUP6 \t\t\tx_call_st\n          ADD \t\t\tn fix_call_store(uint2\n          PUSH [tag] 19\t\t\t   }\\n    \\n    function fix_c...\n          JUMP [in]\t\t\t   }\\n    \\n    function fix_c...\n        tag 27\t\t\t   }\\n    \\n    function fix_c...\n          JUMPDEST \t\t\t   }\\n    \\n    function fix_c...\n          SWAP2 \t\t\te_sub();\\n    }\\n    \\n    fun...\n          POP \t\t\te_sub();\\n    }\\n    \\n    fun...\n          POP \t\t\t\\n    constructor (){\\n       ...\n          SWAP3 \t\t\t) public {}\\n//     function r...\n          SWAP2 \t\t\t) public {}\\n//     function r...\n          POP \t\t\t) public {}\\n//     function r...\n          POP \t\t\t) public {}\\n//     function r...\n          JUMP [out]\t\t\t) public {}\\n//     function r...\n        tag 28\t\t\t\\n        return sub.store(num...\n          JUMPDEST \t\t\t\\n        return sub.store(num...\n          PUSH [tag] 30\t\t\t//     number = num;\\n   \n          DUP2 \t\t\tm;\\n  \n          PUSH [tag] 31\t\t\t//     number = num;\\n   \n          JUMP [in]\t\t\t//     number = num;\\n   \n        tag 30\t\t\t//     number = num;\\n   \n          JUMPDEST \t\t\t//     number = num;\\n   \n          DUP3 \t\t\t\\n  \n          MSTORE \t\t\tublic {\\n    //     number = n...\n          POP \t\t\t\\n        return sub.store(num...\n          POP \t\t\t\\n        return sub.store(num...\n          JUMP [out]\t\t\t\\n        return sub.store(num...\n        tag 8\t\t\t function retrieve() public re...\n          JUMPDEST \t\t\t function retrieve() public re...\n          PUSH 0\t\t\t个要留着\n          PUSH 20\t\t\tAB\n          DUP3 \t\t\tll_withou\n          ADD \t\t\tn call_without_ABI\n          SWAP1 \t\t\t function call_without_ABI\n          POP \t\t\t function call_without_ABI\n          PUSH [tag] 33\t\t\tsub, string memory func_name, ...\n          PUSH 0\t\t\tm\n          DUP4 \t\t\trns (byte\n          ADD \t\t\treturns (bytes me\n          DUP5 \t\t\t) publ\n          PUSH [tag] 28\t\t\tsub, string memory func_name, ...\n          JUMP [in]\t\t\tsub, string memory func_name, ...\n        tag 33\t\t\tsub, string memory func_name, ...\n          JUMPDEST \t\t\tsub, string memory func_name, ...\n          SWAP3 \t\t\t function retrieve() public re...\n          SWAP2 \t\t\t function retrieve() public re...\n          POP \t\t\t function retrieve() public re...\n          POP \t\t\t function retrieve() public re...\n          JUMP [out]\t\t\t function retrieve() public re...\n        tag 17\t\t\t = abi.encodeWithSignature(fun...\n          JUMPDEST \t\t\t = abi.encodeWithSignature(fun...\n          PUSH 0\t\t\tnc_\n          PUSH [tag] 37\t\t\t     addr.call(_call\n          DUP3 \t\t\tl\n          PUSH [tag] 31\t\t\t     addr.call(_call\n          JUMP [in]\t\t\t     addr.call(_call\n        tag 37\t\t\t     addr.call(_call\n          JUMPDEST \t\t\t     addr.call(_call\n          SWAP2 \t\t\t// //     addr.call(_call\n          POP \t\t\t// //     addr.call(_call\n          PUSH [tag] 38\t\t\t//     return _calld\n          DUP4 \t\t\tl\n          PUSH [tag] 31\t\t\t//     return _calld\n          JUMP [in]\t\t\t//     return _calld\n        tag 38\t\t\t//     return _calld\n          JUMPDEST \t\t\t//     return _calld\n          SWAP3 \t\t\t  // //     return _calld\n          POP \t\t\t  // //     return _calld\n          DUP3 \t\t\t \n          PUSH FFFFFFFFFFFFFFFFFFFFFFFFFFFFFFFFFFFFFFFFFFFFFFFFFFFFFFFFFFFFFFFF\t\t\tng memory func_name, uint func...\n          SUB \t\t\tstring memory func_name, uint ...\n          DUP3 \t\t\tb\n          GT \t\t\t_sub, string memory func_name,...\n          ISZERO \t\t\tss _sub, string memory func_na...\n          PUSH [tag] 39\t\t\tss _sub, string memory func_na...\n          JUMPI \t\t\tss _sub, string memory func_na...\n          PUSH [tag] 40\t\t\t                 \\n\n          PUSH [tag] 41\t\t\t                 \\n\n          JUMP [in]\t\t\t                 \\n\n        tag 40\t\t\t                 \\n\n          JUMPDEST \t\t\t                 \\n\n        tag 39\t\t\tss _sub, string memory func_na...\n          JUMPDEST \t\t\tss _sub, string memory func_na...\n          DUP3 \t\t\tb\n          DUP3 \t\t\t_\n          ADD \t\t\tllee_sub(\n          SWAP1 \t\t\tub = Callee_sub(\n          POP \t\t\tub = Callee_sub(\n          SWAP3 \t\t\t = abi.encodeWithSignature(fun...\n          SWAP2 \t\t\t = abi.encodeWithSignature(fun...\n          POP \t\t\t = abi.encodeWithSignature(fun...\n          POP \t\t\t = abi.encodeWithSignature(fun...\n          JUMP [out]\t\t\t = abi.encodeWithSignature(fun...\n        tag 31\t\t\t/     if (sub.retrieve() == 3)...\n          JUMPDEST \t\t\t/     if (sub.retrieve() == 3)...\n          PUSH 0\t\t\t/      \n          DUP2 \t\t\t/    \n          SWAP1 \t\t\talse;\\n    //    \n          POP \t\t\talse;\\n    //    \n          SWAP2 \t\t\t/     if (sub.retrieve() == 3)...\n          SWAP1 \t\t\t/     if (sub.retrieve() == 3)...\n          POP \t\t\t/     if (sub.retrieve() == 3)...\n          JUMP [out]\t\t\t/     if (sub.retrieve() == 3)...\n        tag 41\t\t\t  return true;\\n    // }\\n    ...\n          JUMPDEST \t\t\t  return true;\\n    // }\\n    ...\n          PUSH 4E487B7100000000000000000000000000000000000000000000000000000000\t\t\t\n          PUSH 0\t\t\t\n          MSTORE \t\t\t\n          PUSH 11\t\t\t\n          PUSH 4\t\t\t\n          MSTORE \t\t\t\n          PUSH 24\t\t\t\n          PUSH 0\t\t\t\n          REVERT \t\t\t\n        tag 26\t\t\t\n          JUMPDEST \t\t\t\n          PUSH 0\t\t\t\n          DUP1 \t\t\t\n          REVERT \t\t\t\n        tag 22\t\t\t\n          JUMPDEST \t\t\t\n          PUSH [tag] 48\t\t\t\n          DUP2 \t\t\t\n          PUSH [tag] 31\t\t\t\n          JUMP [in]\t\t\t\n        tag 48\t\t\t\n          JUMPDEST \t\t\t\n          DUP2 \t\t\t\n          EQ \t\t\t\n          PUSH [tag] 49\t\t\t\n          JUMPI \t\t\t\n          PUSH 0\t\t\t\n          DUP1 \t\t\t\n          REVERT \t\t\t\n        tag 49\t\t\t\n          JUMPDEST \t\t\t\n          POP \t\t\t\n          JUMP [out]\t\t\t\n        .data\n"
}